{"contracts/ai.sol":{"StakingContract":{"abi":[{"inputs":[{"internalType":"address","name":"_stakingToken","type":"address"},{"internalType":"address","name":"_rewardToken","type":"address"},{"internalType":"uint256","name":"_weeklyRateBps","type":"uint256"}],"stateMutability":"nonpayable","type":"constructor"},{"anonymous":false,"inputs":[{"indexed":true,"internalType":"address","name":"previousOwner","type":"address"},{"indexed":true,"internalType":"address","name":"newOwner","type":"address"}],"name":"OwnershipTransferred","type":"event"},{"anonymous":false,"inputs":[{"indexed":false,"internalType":"address","name":"account","type":"address"}],"name":"Paused","type":"event"},{"anonymous":false,"inputs":[{"indexed":true,"internalType":"address","name":"user","type":"address"},{"indexed":false,"internalType":"uint256","name":"reward","type":"uint256"}],"name":"RewardPaid","type":"event"},{"anonymous":false,"inputs":[{"indexed":false,"internalType":"uint256","name":"amount","type":"uint256"}],"name":"RewardsFunded","type":"event"},{"anonymous":false,"inputs":[{"indexed":true,"internalType":"address","name":"user","type":"address"},{"indexed":false,"internalType":"uint256","name":"amount","type":"uint256"}],"name":"Staked","type":"event"},{"anonymous":false,"inputs":[{"indexed":false,"internalType":"uint256","name":"newDuration","type":"uint256"}],"name":"StakingDurationUpdated","type":"event"},{"anonymous":false,"inputs":[{"indexed":false,"internalType":"address","name":"account","type":"address"}],"name":"Unpaused","type":"event"},{"anonymous":false,"inputs":[{"indexed":false,"internalType":"uint256","name":"newWeeklyRateBps","type":"uint256"}],"name":"WeeklyRateUpdated","type":"event"},{"anonymous":false,"inputs":[{"indexed":true,"internalType":"address","name":"user","type":"address"},{"indexed":false,"internalType":"uint256","name":"amount","type":"uint256"}],"name":"Withdrawn","type":"event"},{"inputs":[],"name":"DEFAULT_WEEKLY_RATE_BPS","outputs":[{"internalType":"uint256","name":"","type":"uint256"}],"stateMutability":"view","type":"function"},{"inputs":[],"name":"MAX_WEEKLY_RATE_BPS","outputs":[{"internalType":"uint256","name":"","type":"uint256"}],"stateMutability":"view","type":"function"},{"inputs":[{"internalType":"address","name":"account","type":"address"}],"name":"earned","outputs":[{"internalType":"uint256","name":"","type":"uint256"}],"stateMutability":"view","type":"function"},{"inputs":[],"name":"emergencyWithdraw","outputs":[],"stateMutability":"nonpayable","type":"function"},{"inputs":[{"internalType":"uint256","name":"amount","type":"uint256"}],"name":"fundRewards","outputs":[],"stateMutability":"nonpayable","type":"function"},{"inputs":[],"name":"getReward","outputs":[],"stateMutability":"nonpayable","type":"function"},{"inputs":[],"name":"lastUpdateTime","outputs":[{"internalType":"uint256","name":"","type":"uint256"}],"stateMutability":"view","type":"function"},{"inputs":[],"name":"owner","outputs":[{"internalType":"address","name":"","type":"address"}],"stateMutability":"view","type":"function"},{"inputs":[],"name":"pause","outputs":[],"stateMutability":"nonpayable","type":"function"},{"inputs":[],"name":"paused","outputs":[{"internalType":"bool","name":"","type":"bool"}],"stateMutability":"view","type":"function"},{"inputs":[],"name":"renounceOwnership","outputs":[],"stateMutability":"nonpayable","type":"function"},{"inputs":[],"name":"resetWeeklyRate","outputs":[],"stateMutability":"nonpayable","type":"function"},{"inputs":[],"name":"rewardPerToken","outputs":[{"internalType":"uint256","name":"","type":"uint256"}],"stateMutability":"view","type":"function"},{"inputs":[],"name":"rewardPerTokenStored","outputs":[{"internalType":"uint256","name":"","type":"uint256"}],"stateMutability":"view","type":"function"},{"inputs":[],"name":"rewardToken","outputs":[{"internalType":"contract IERC20","name":"","type":"address"}],"stateMutability":"view","type":"function"},{"inputs":[{"internalType":"address","name":"","type":"address"}],"name":"rewards","outputs":[{"internalType":"uint256","name":"","type":"uint256"}],"stateMutability":"view","type":"function"},{"inputs":[],"name":"rewardsPool","outputs":[{"internalType":"uint256","name":"","type":"uint256"}],"stateMutability":"view","type":"function"},{"inputs":[{"internalType":"uint256","name":"_duration","type":"uint256"}],"name":"setStakingDuration","outputs":[],"stateMutability":"nonpayable","type":"function"},{"inputs":[{"internalType":"uint256","name":"_weeklyRateBps","type":"uint256"}],"name":"setWeeklyRateBps","outputs":[],"stateMutability":"nonpayable","type":"function"},{"inputs":[{"internalType":"uint256","name":"amount","type":"uint256"}],"name":"stake","outputs":[],"stateMutability":"nonpayable","type":"function"},{"inputs":[{"internalType":"address","name":"","type":"address"}],"name":"stakedBalance","outputs":[{"internalType":"uint256","name":"","type":"uint256"}],"stateMutability":"view","type":"function"},{"inputs":[],"name":"stakingDuration","outputs":[{"internalType":"uint256","name":"","type":"uint256"}],"stateMutability":"view","type":"function"},{"inputs":[{"internalType":"address","name":"","type":"address"}],"name":"stakingTimestamp","outputs":[{"internalType":"uint256","name":"","type":"uint256"}],"stateMutability":"view","type":"function"},{"inputs":[],"name":"stakingToken","outputs":[{"internalType":"contract IERC20","name":"","type":"address"}],"stateMutability":"view","type":"function"},{"inputs":[],"name":"totalStaked","outputs":[{"internalType":"uint256","name":"","type":"uint256"}],"stateMutability":"view","type":"function"},{"inputs":[{"internalType":"address","name":"newOwner","type":"address"}],"name":"transferOwnership","outputs":[],"stateMutability":"nonpayable","type":"function"},{"inputs":[],"name":"unpause","outputs":[],"stateMutability":"nonpayable","type":"function"},{"inputs":[{"internalType":"address","name":"","type":"address"}],"name":"userRewardPerTokenPaid","outputs":[{"internalType":"uint256","name":"","type":"uint256"}],"stateMutability":"view","type":"function"},{"inputs":[],"name":"weeklyRateBps","outputs":[{"internalType":"uint256","name":"","type":"uint256"}],"stateMutability":"view","type":"function"},{"inputs":[{"internalType":"uint256","name":"amount","type":"uint256"}],"name":"withdraw","outputs":[],"stateMutability":"nonpayable","type":"function"},{"inputs":[],"name":"withdrawAndGetReward","outputs":[],"stateMutability":"nonpayable","type":"function"}],"evm":{"bytecode":{"linkReferences":{},"object":"608060405262278d006009553480156200001857600080fd5b506040516200184c3803806200184c8339810160408190526200003b9162000229565b6200004633620001bc565b600180556002805460ff191690556001600160a01b038316620000b05760405162461bcd60e51b815260206004820152601560248201527f496e76616c6964207374616b696e6720746f6b656e000000000000000000000060448201526064015b60405180910390fd5b6001600160a01b038216620001085760405162461bcd60e51b815260206004820152601460248201527f496e76616c69642072657761726420746f6b656e0000000000000000000000006044820152606401620000a7565b60028054610100600160a81b0319166101006001600160a01b038681169190910291909117909155600380546001600160a01b031916918416919091179055801562000155578062000158565b60325b600481905560c81015620001af5760405162461bcd60e51b815260206004820152601460248201527f5765656b6c79207261746520746f6f20686967680000000000000000000000006044820152606401620000a7565b505042600555506200026a565b600080546001600160a01b038381166001600160a01b0319831681178455604051919092169283917f8be0079c531659141344cd1fd0a4f28419497f9722a3daafe3b4186f6b6457e09190a35050565b80516001600160a01b03811681146200022457600080fd5b919050565b6000806000606084860312156200023f57600080fd5b6200024a846200020c565b92506200025a602085016200020c565b9150604084015190509250925092565b6115d2806200027a6000396000f3fe608060405234801561001057600080fd5b50600436106101e45760003560e01c8063817b1cd21161010f578063cd3daf9d116100a2578063df136d6511610071578063df136d65146103bc578063f2fde38b146103c5578063f7c618c1146103d8578063fc7cb627146103eb57600080fd5b8063cd3daf9d1461039b578063d54b6e70146103a3578063da9d6e8a146103ab578063db2e21bc146103b457600080fd5b80638f0794fe116100de5780638f0794fe1461034c57806393707a191461036c578063a694fc3a1461037f578063c8f33c911461039257600080fd5b8063817b1cd21461030a5780638456cb59146103135780638b8763471461031b5780638da5cb5b1461033b57600080fd5b806359c5e746116101875780636f9888b7116101565780636f9888b7146102b6578063715018a6146102c957806372f702f3146102d15780638005a7de1461030157600080fd5b806359c5e746146102655780635c975abb1461026d57806360217267146102835780636a8ca691146102a357600080fd5b80632e1a7d4d116101c35780632e1a7d4d146102385780633d18b9121461024d5780633f4ba83a14610255578063528defa11461025d57600080fd5b80628cc262146101e95780630359fea91461020f5780630700037d14610218575b600080fd5b6101fc6101f7366004611449565b6103f3565b6040519081526020015b60405180910390f35b6101fc60085481565b6101fc610226366004611449565b600c6020526000908152604090205481565b61024b610246366004611479565b610470565b005b61024b610681565b61024b610758565b6101fc60c881565b6101fc603281565b60025460ff166040519015158152602001610206565b6101fc610291366004611449565b600a6020526000908152604090205481565b61024b6102b1366004611479565b610768565b61024b6102c4366004611479565b6107ac565b61024b61088f565b6002546102e99061010090046001600160a01b031681565b6040516001600160a01b039091168152602001610206565b6101fc60095481565b6101fc60075481565b61024b6108a1565b6101fc610329366004611449565b600b6020526000908152604090205481565b6000546001600160a01b03166102e9565b6101fc61035a366004611449565b600d6020526000908152604090205481565b61024b61037a366004611479565b6108b1565b61024b61038d366004611479565b610968565b6101fc60055481565b6101fc610ab4565b61024b610b68565b6101fc60045481565b61024b610bf5565b6101fc60065481565b61024b6103d3366004611449565b610cde565b6003546102e9906001600160a01b031681565b61024b610d6b565b6001600160a01b0381166000908152600c6020908152604080832054600b909252822054670de0b6b3a764000090610429610ab4565b61043391906114a8565b6001600160a01b0385166000908152600a602052604090205461045691906114bb565b61046091906114d2565b61046a91906114f4565b92915050565b610478610d8c565b33610481610de5565b6001600160a01b038116156104c557610499816103f3565b6001600160a01b0382166000908152600c6020908152604080832093909355600654600b909152919020555b6000821161051a5760405162461bcd60e51b815260206004820152601160248201527f43616e6e6f74207769746864726177203000000000000000000000000000000060448201526064015b60405180910390fd5b336000908152600a60205260409020548211156105795760405162461bcd60e51b815260206004820152601460248201527f496e73756666696369656e742062616c616e63650000000000000000000000006044820152606401610511565b600954336000908152600d602052604090205461059691906114f4565b4210156105e55760405162461bcd60e51b815260206004820152600c60248201527f5374696c6c206c6f636b656400000000000000000000000000000000000000006044820152606401610511565b336000908152600a6020526040812080548492906106049084906114a8565b92505081905550816007600082825461061d91906114a8565b909155505060025461063e9061010090046001600160a01b03163384610ebf565b60405182815233907f7084f5476618d8e60b11ef0d7d3f06914655adb8793e28ff7f018d4c76d505d5906020015b60405180910390a25061067e60018055565b50565b610689610d8c565b33610692610de5565b6001600160a01b038116156106d6576106aa816103f3565b6001600160a01b0382166000908152600c6020908152604080832093909355600654600b909152919020555b336000908152600c6020526040902054801561074b57336000818152600c6020526040812055600354610715916001600160a01b039091169083610ebf565b60405181815233907fe2403640ba68fed3a2f88b7557551d1993f84b99bb10ff833f0cf8db0c5e04869060200160405180910390a25b505061075660018055565b565b610760610f6d565b610756610fc7565b610770610f6d565b60098190556040518181527f8c7ba3004ed566ca0f3da73aaa1e3470028922c65772882a9b89612e44a72dcf906020015b60405180910390a150565b6107b4610f6d565b60006107be610de5565b6001600160a01b03811615610802576107d6816103f3565b6001600160a01b0382166000908152600c6020908152604080832093909355600654600b909152919020555b60c88211156108535760405162461bcd60e51b815260206004820152601460248201527f5765656b6c79207261746520746f6f20686967680000000000000000000000006044820152606401610511565b60048290556040518281527f33a0b46dfa3e2cea9acbde71cfdd54d3d26187fedb09b839d120ec5f7cf549b49060200160405180910390a15050565b610897610f6d565b6107566000611019565b6108a9610f6d565b610756611081565b6108b9610f6d565b600081116109095760405162461bcd60e51b815260206004820152601260248201527f416d6f756e74206d757374206265203e203000000000000000000000000000006044820152606401610511565b600354610921906001600160a01b03163330846110be565b806008600082825461093391906114f4565b90915550506040518181527fe42dde25409a3e8c7c119c1c722610d9e9bd96e73e3cead774863c9ffdd870d6906020016107a1565b610970610d8c565b610978611115565b33610981610de5565b6001600160a01b038116156109c557610999816103f3565b6001600160a01b0382166000908152600c6020908152604080832093909355600654600b909152919020555b60008211610a155760405162461bcd60e51b815260206004820152600e60248201527f43616e6e6f74207374616b6520300000000000000000000000000000000000006044820152606401610511565b336000908152600a602052604081208054849290610a349084906114f4565b925050819055508160076000828254610a4d91906114f4565b9091555050336000818152600d60205260409020429055600254610a82916101009091046001600160a01b03169030856110be565b60405182815233907f9e71bc8eea02a63969f509818f2dafb9254532904319f9dbda79b67bd34a5f3d9060200161066c565b6000600754600003610ac7575060065490565b600060055442610ad791906114a8565b9050801580610ae65750600854155b15610af357505060065490565b60006401687d280082600454600754610b0c91906114bb565b610b1691906114bb565b610b2091906114d2565b6008549091508190811115610b3457506008545b600754610b4982670de0b6b3a76400006114bb565b610b5391906114d2565b600654610b6091906114f4565b935050505090565b610b70610f6d565b6000610b7a610de5565b6001600160a01b03811615610bbe57610b92816103f3565b6001600160a01b0382166000908152600c6020908152604080832093909355600654600b909152919020555b603260048190556040519081527f33a0b46dfa3e2cea9acbde71cfdd54d3d26187fedb09b839d120ec5f7cf549b4906020016107a1565b610bfd610d8c565b336000908152600a602052604090205480610c5a5760405162461bcd60e51b815260206004820152601060248201527f4e6f20746f6b656e73207374616b6564000000000000000000000000000000006044820152606401610511565b336000908152600a6020526040812081905560078054839290610c7e9084906114a8565b9091555050600254610c9f9061010090046001600160a01b03163383610ebf565b60405181815233907f7084f5476618d8e60b11ef0d7d3f06914655adb8793e28ff7f018d4c76d505d59060200160405180910390a25061075660018055565b610ce6610f6d565b6001600160a01b038116610d625760405162461bcd60e51b815260206004820152602660248201527f4f776e61626c653a206e6577206f776e657220697320746865207a65726f206160448201527f64647265737300000000000000000000000000000000000000000000000000006064820152608401610511565b61067e81611019565b336000908152600a6020526040902054610d8490610470565b610756610681565b600260015403610dde5760405162461bcd60e51b815260206004820152601f60248201527f5265656e7472616e637947756172643a207265656e7472616e742063616c6c006044820152606401610511565b6002600155565b600754600003610df55742600555565b600060055442610e0591906114a8565b9050801580610e145750600854155b15610e20575042600555565b60006401687d280082600454600754610e3991906114bb565b610e4391906114bb565b610e4d91906114d2565b6008549091508190811115610e6157506008545b8015610eb657600754610e7c82670de0b6b3a76400006114bb565b610e8691906114d2565b60066000828254610e9791906114f4565b925050819055508060086000828254610eb091906114a8565b90915550505b50504260055550565b6040516001600160a01b038316602482015260448101829052610f689084907fa9059cbb00000000000000000000000000000000000000000000000000000000906064015b60408051601f198184030181529190526020810180517bffffffffffffffffffffffffffffffffffffffffffffffffffffffff167fffffffff0000000000000000000000000000000000000000000000000000000090931692909217909152611168565b505050565b6000546001600160a01b031633146107565760405162461bcd60e51b815260206004820181905260248201527f4f776e61626c653a2063616c6c6572206973206e6f7420746865206f776e65726044820152606401610511565b610fcf611250565b6002805460ff191690557f5db9ee0a495bf2e6ff9c91a7834c1ba4fdd244a5e8aa4e537bd38aeae4b073aa335b6040516001600160a01b03909116815260200160405180910390a1565b600080546001600160a01b038381167fffffffffffffffffffffffff0000000000000000000000000000000000000000831681178455604051919092169283917f8be0079c531659141344cd1fd0a4f28419497f9722a3daafe3b4186f6b6457e09190a35050565b611089611115565b6002805460ff191660011790557f62e78cea01bee320cd4e420270b5ea74000d11b0c9f74754ebdbfc544b05a258610ffc3390565b6040516001600160a01b038085166024830152831660448201526064810182905261110f9085907f23b872dd0000000000000000000000000000000000000000000000000000000090608401610f04565b50505050565b60025460ff16156107565760405162461bcd60e51b815260206004820152601060248201527f5061757361626c653a20706175736564000000000000000000000000000000006044820152606401610511565b60006111bd826040518060400160405280602081526020017f5361666545524332303a206c6f772d6c6576656c2063616c6c206661696c6564815250856001600160a01b03166112a29092919063ffffffff16565b90508051600014806111de5750808060200190518101906111de9190611507565b610f685760405162461bcd60e51b815260206004820152602a60248201527f5361666545524332303a204552433230206f7065726174696f6e20646964206e60448201527f6f742073756363656564000000000000000000000000000000000000000000006064820152608401610511565b60025460ff166107565760405162461bcd60e51b815260206004820152601460248201527f5061757361626c653a206e6f74207061757365640000000000000000000000006044820152606401610511565b60606112b184846000856112b9565b949350505050565b6060824710156113315760405162461bcd60e51b815260206004820152602660248201527f416464726573733a20696e73756666696369656e742062616c616e636520666f60448201527f722063616c6c00000000000000000000000000000000000000000000000000006064820152608401610511565b600080866001600160a01b0316858760405161134d919061154d565b60006040518083038185875af1925050503d806000811461138a576040519150601f19603f3d011682016040523d82523d6000602084013e61138f565b606091505b50915091506113a0878383876113ab565b979650505050505050565b6060831561141a578251600003611413576001600160a01b0385163b6114135760405162461bcd60e51b815260206004820152601d60248201527f416464726573733a2063616c6c20746f206e6f6e2d636f6e74726163740000006044820152606401610511565b50816112b1565b6112b1838381511561142f5781518083602001fd5b8060405162461bcd60e51b81526004016105119190611569565b60006020828403121561145b57600080fd5b81356001600160a01b038116811461147257600080fd5b9392505050565b60006020828403121561148b57600080fd5b5035919050565b634e487b7160e01b600052601160045260246000fd5b8181038181111561046a5761046a611492565b808202811582820484141761046a5761046a611492565b6000826114ef57634e487b7160e01b600052601260045260246000fd5b500490565b8082018082111561046a5761046a611492565b60006020828403121561151957600080fd5b8151801515811461147257600080fd5b60005b8381101561154457818101518382015260200161152c565b50506000910152565b6000825161155f818460208701611529565b9190910192915050565b6020815260008251806020840152611588816040850160208701611529565b601f01601f1916919091016040019291505056fea26469706673582212205422118d02ff781446d667209249434a32aabdd8317836721f6957c30de5db2964736f6c63430008130033","opcodes":"PUSH1 0x80 PUSH1 0x40 MSTORE PUSH3 0x278D00 PUSH1 0x9 SSTORE CALLVALUE DUP1 ISZERO PUSH3 0x18 JUMPI PUSH1 0x0 DUP1 REVERT JUMPDEST POP PUSH1 0x40 MLOAD PUSH3 0x184C CODESIZE SUB DUP1 PUSH3 0x184C DUP4 CODECOPY DUP2 ADD PUSH1 0x40 DUP2 SWAP1 MSTORE PUSH3 0x3B SWAP2 PUSH3 0x229 JUMP JUMPDEST PUSH3 0x46 CALLER PUSH3 0x1BC JUMP JUMPDEST PUSH1 0x1 DUP1 SSTORE PUSH1 0x2 DUP1 SLOAD PUSH1 0xFF NOT AND SWAP1 SSTORE PUSH1 0x1 PUSH1 0x1 PUSH1 0xA0 SHL SUB DUP4 AND PUSH3 0xB0 JUMPI PUSH1 0x40 MLOAD PUSH3 0x461BCD PUSH1 0xE5 SHL DUP2 MSTORE PUSH1 0x20 PUSH1 0x4 DUP3 ADD MSTORE PUSH1 0x15 PUSH1 0x24 DUP3 ADD MSTORE PUSH32 0x496E76616C6964207374616B696E6720746F6B656E0000000000000000000000 PUSH1 0x44 DUP3 ADD MSTORE PUSH1 0x64 ADD JUMPDEST PUSH1 0x40 MLOAD DUP1 SWAP2 SUB SWAP1 REVERT JUMPDEST PUSH1 0x1 PUSH1 0x1 PUSH1 0xA0 SHL SUB DUP3 AND PUSH3 0x108 JUMPI PUSH1 0x40 MLOAD PUSH3 0x461BCD PUSH1 0xE5 SHL DUP2 MSTORE PUSH1 0x20 PUSH1 0x4 DUP3 ADD MSTORE PUSH1 0x14 PUSH1 0x24 DUP3 ADD MSTORE PUSH32 0x496E76616C69642072657761726420746F6B656E000000000000000000000000 PUSH1 0x44 DUP3 ADD MSTORE PUSH1 0x64 ADD PUSH3 0xA7 JUMP JUMPDEST PUSH1 0x2 DUP1 SLOAD PUSH2 0x100 PUSH1 0x1 PUSH1 0xA8 SHL SUB NOT AND PUSH2 0x100 PUSH1 0x1 PUSH1 0x1 PUSH1 0xA0 SHL SUB DUP7 DUP2 AND SWAP2 SWAP1 SWAP2 MUL SWAP2 SWAP1 SWAP2 OR SWAP1 SWAP2 SSTORE PUSH1 0x3 DUP1 SLOAD PUSH1 0x1 PUSH1 0x1 PUSH1 0xA0 SHL SUB NOT AND SWAP2 DUP5 AND SWAP2 SWAP1 SWAP2 OR SWAP1 SSTORE DUP1 ISZERO PUSH3 0x155 JUMPI DUP1 PUSH3 0x158 JUMP JUMPDEST PUSH1 0x32 JUMPDEST PUSH1 0x4 DUP2 SWAP1 SSTORE PUSH1 0xC8 LT ISZERO PUSH3 0x1AF JUMPI PUSH1 0x40 MLOAD PUSH3 0x461BCD PUSH1 0xE5 SHL DUP2 MSTORE PUSH1 0x20 PUSH1 0x4 DUP3 ADD MSTORE PUSH1 0x14 PUSH1 0x24 DUP3 ADD MSTORE PUSH32 0x5765656B6C79207261746520746F6F2068696768000000000000000000000000 PUSH1 0x44 DUP3 ADD MSTORE PUSH1 0x64 ADD PUSH3 0xA7 JUMP JUMPDEST POP POP TIMESTAMP PUSH1 0x5 SSTORE POP PUSH3 0x26A JUMP JUMPDEST PUSH1 0x0 DUP1 SLOAD PUSH1 0x1 PUSH1 0x1 PUSH1 0xA0 SHL SUB DUP4 DUP2 AND PUSH1 0x1 PUSH1 0x1 PUSH1 0xA0 SHL SUB NOT DUP4 AND DUP2 OR DUP5 SSTORE PUSH1 0x40 MLOAD SWAP2 SWAP1 SWAP3 AND SWAP3 DUP4 SWAP2 PUSH32 0x8BE0079C531659141344CD1FD0A4F28419497F9722A3DAAFE3B4186F6B6457E0 SWAP2 SWAP1 LOG3 POP POP JUMP JUMPDEST DUP1 MLOAD PUSH1 0x1 PUSH1 0x1 PUSH1 0xA0 SHL SUB DUP2 AND DUP2 EQ PUSH3 0x224 JUMPI PUSH1 0x0 DUP1 REVERT JUMPDEST SWAP2 SWAP1 POP JUMP JUMPDEST PUSH1 0x0 DUP1 PUSH1 0x0 PUSH1 0x60 DUP5 DUP7 SUB SLT ISZERO PUSH3 0x23F JUMPI PUSH1 0x0 DUP1 REVERT JUMPDEST PUSH3 0x24A DUP5 PUSH3 0x20C JUMP JUMPDEST SWAP3 POP PUSH3 0x25A PUSH1 0x20 DUP6 ADD PUSH3 0x20C JUMP JUMPDEST SWAP2 POP PUSH1 0x40 DUP5 ADD MLOAD SWAP1 POP SWAP3 POP SWAP3 POP SWAP3 JUMP JUMPDEST PUSH2 0x15D2 DUP1 PUSH3 0x27A PUSH1 0x0 CODECOPY PUSH1 0x0 RETURN INVALID PUSH1 0x80 PUSH1 0x40 MSTORE CALLVALUE DUP1 ISZERO PUSH2 0x10 JUMPI PUSH1 0x0 DUP1 REVERT JUMPDEST POP PUSH1 0x4 CALLDATASIZE LT PUSH2 0x1E4 JUMPI PUSH1 0x0 CALLDATALOAD PUSH1 0xE0 SHR DUP1 PUSH4 0x817B1CD2 GT PUSH2 0x10F JUMPI DUP1 PUSH4 0xCD3DAF9D GT PUSH2 0xA2 JUMPI DUP1 PUSH4 0xDF136D65 GT PUSH2 0x71 JUMPI DUP1 PUSH4 0xDF136D65 EQ PUSH2 0x3BC JUMPI DUP1 PUSH4 0xF2FDE38B EQ PUSH2 0x3C5 JUMPI DUP1 PUSH4 0xF7C618C1 EQ PUSH2 0x3D8 JUMPI DUP1 PUSH4 0xFC7CB627 EQ PUSH2 0x3EB JUMPI PUSH1 0x0 DUP1 REVERT JUMPDEST DUP1 PUSH4 0xCD3DAF9D EQ PUSH2 0x39B JUMPI DUP1 PUSH4 0xD54B6E70 EQ PUSH2 0x3A3 JUMPI DUP1 PUSH4 0xDA9D6E8A EQ PUSH2 0x3AB JUMPI DUP1 PUSH4 0xDB2E21BC EQ PUSH2 0x3B4 JUMPI PUSH1 0x0 DUP1 REVERT JUMPDEST DUP1 PUSH4 0x8F0794FE GT PUSH2 0xDE JUMPI DUP1 PUSH4 0x8F0794FE EQ PUSH2 0x34C JUMPI DUP1 PUSH4 0x93707A19 EQ PUSH2 0x36C JUMPI DUP1 PUSH4 0xA694FC3A EQ PUSH2 0x37F JUMPI DUP1 PUSH4 0xC8F33C91 EQ PUSH2 0x392 JUMPI PUSH1 0x0 DUP1 REVERT JUMPDEST DUP1 PUSH4 0x817B1CD2 EQ PUSH2 0x30A JUMPI DUP1 PUSH4 0x8456CB59 EQ PUSH2 0x313 JUMPI DUP1 PUSH4 0x8B876347 EQ PUSH2 0x31B JUMPI DUP1 PUSH4 0x8DA5CB5B EQ PUSH2 0x33B JUMPI PUSH1 0x0 DUP1 REVERT JUMPDEST DUP1 PUSH4 0x59C5E746 GT PUSH2 0x187 JUMPI DUP1 PUSH4 0x6F9888B7 GT PUSH2 0x156 JUMPI DUP1 PUSH4 0x6F9888B7 EQ PUSH2 0x2B6 JUMPI DUP1 PUSH4 0x715018A6 EQ PUSH2 0x2C9 JUMPI DUP1 PUSH4 0x72F702F3 EQ PUSH2 0x2D1 JUMPI DUP1 PUSH4 0x8005A7DE EQ PUSH2 0x301 JUMPI PUSH1 0x0 DUP1 REVERT JUMPDEST DUP1 PUSH4 0x59C5E746 EQ PUSH2 0x265 JUMPI DUP1 PUSH4 0x5C975ABB EQ PUSH2 0x26D JUMPI DUP1 PUSH4 0x60217267 EQ PUSH2 0x283 JUMPI DUP1 PUSH4 0x6A8CA691 EQ PUSH2 0x2A3 JUMPI PUSH1 0x0 DUP1 REVERT JUMPDEST DUP1 PUSH4 0x2E1A7D4D GT PUSH2 0x1C3 JUMPI DUP1 PUSH4 0x2E1A7D4D EQ PUSH2 0x238 JUMPI DUP1 PUSH4 0x3D18B912 EQ PUSH2 0x24D JUMPI DUP1 PUSH4 0x3F4BA83A EQ PUSH2 0x255 JUMPI DUP1 PUSH4 0x528DEFA1 EQ PUSH2 0x25D JUMPI PUSH1 0x0 DUP1 REVERT JUMPDEST DUP1 PUSH3 0x8CC262 EQ PUSH2 0x1E9 JUMPI DUP1 PUSH4 0x359FEA9 EQ PUSH2 0x20F JUMPI DUP1 PUSH4 0x700037D EQ PUSH2 0x218 JUMPI JUMPDEST PUSH1 0x0 DUP1 REVERT JUMPDEST PUSH2 0x1FC PUSH2 0x1F7 CALLDATASIZE PUSH1 0x4 PUSH2 0x1449 JUMP JUMPDEST PUSH2 0x3F3 JUMP JUMPDEST PUSH1 0x40 MLOAD SWAP1 DUP2 MSTORE PUSH1 0x20 ADD JUMPDEST PUSH1 0x40 MLOAD DUP1 SWAP2 SUB SWAP1 RETURN JUMPDEST PUSH2 0x1FC PUSH1 0x8 SLOAD DUP2 JUMP JUMPDEST PUSH2 0x1FC PUSH2 0x226 CALLDATASIZE PUSH1 0x4 PUSH2 0x1449 JUMP JUMPDEST PUSH1 0xC PUSH1 0x20 MSTORE PUSH1 0x0 SWAP1 DUP2 MSTORE PUSH1 0x40 SWAP1 KECCAK256 SLOAD DUP2 JUMP JUMPDEST PUSH2 0x24B PUSH2 0x246 CALLDATASIZE PUSH1 0x4 PUSH2 0x1479 JUMP JUMPDEST PUSH2 0x470 JUMP JUMPDEST STOP JUMPDEST PUSH2 0x24B PUSH2 0x681 JUMP JUMPDEST PUSH2 0x24B PUSH2 0x758 JUMP JUMPDEST PUSH2 0x1FC PUSH1 0xC8 DUP2 JUMP JUMPDEST PUSH2 0x1FC PUSH1 0x32 DUP2 JUMP JUMPDEST PUSH1 0x2 SLOAD PUSH1 0xFF AND PUSH1 0x40 MLOAD SWAP1 ISZERO ISZERO DUP2 MSTORE PUSH1 0x20 ADD PUSH2 0x206 JUMP JUMPDEST PUSH2 0x1FC PUSH2 0x291 CALLDATASIZE PUSH1 0x4 PUSH2 0x1449 JUMP JUMPDEST PUSH1 0xA PUSH1 0x20 MSTORE PUSH1 0x0 SWAP1 DUP2 MSTORE PUSH1 0x40 SWAP1 KECCAK256 SLOAD DUP2 JUMP JUMPDEST PUSH2 0x24B PUSH2 0x2B1 CALLDATASIZE PUSH1 0x4 PUSH2 0x1479 JUMP JUMPDEST PUSH2 0x768 JUMP JUMPDEST PUSH2 0x24B PUSH2 0x2C4 CALLDATASIZE PUSH1 0x4 PUSH2 0x1479 JUMP JUMPDEST PUSH2 0x7AC JUMP JUMPDEST PUSH2 0x24B PUSH2 0x88F JUMP JUMPDEST PUSH1 0x2 SLOAD PUSH2 0x2E9 SWAP1 PUSH2 0x100 SWAP1 DIV PUSH1 0x1 PUSH1 0x1 PUSH1 0xA0 SHL SUB AND DUP2 JUMP JUMPDEST PUSH1 0x40 MLOAD PUSH1 0x1 PUSH1 0x1 PUSH1 0xA0 SHL SUB SWAP1 SWAP2 AND DUP2 MSTORE PUSH1 0x20 ADD PUSH2 0x206 JUMP JUMPDEST PUSH2 0x1FC PUSH1 0x9 SLOAD DUP2 JUMP JUMPDEST PUSH2 0x1FC PUSH1 0x7 SLOAD DUP2 JUMP JUMPDEST PUSH2 0x24B PUSH2 0x8A1 JUMP JUMPDEST PUSH2 0x1FC PUSH2 0x329 CALLDATASIZE PUSH1 0x4 PUSH2 0x1449 JUMP JUMPDEST PUSH1 0xB PUSH1 0x20 MSTORE PUSH1 0x0 SWAP1 DUP2 MSTORE PUSH1 0x40 SWAP1 KECCAK256 SLOAD DUP2 JUMP JUMPDEST PUSH1 0x0 SLOAD PUSH1 0x1 PUSH1 0x1 PUSH1 0xA0 SHL SUB AND PUSH2 0x2E9 JUMP JUMPDEST PUSH2 0x1FC PUSH2 0x35A CALLDATASIZE PUSH1 0x4 PUSH2 0x1449 JUMP JUMPDEST PUSH1 0xD PUSH1 0x20 MSTORE PUSH1 0x0 SWAP1 DUP2 MSTORE PUSH1 0x40 SWAP1 KECCAK256 SLOAD DUP2 JUMP JUMPDEST PUSH2 0x24B PUSH2 0x37A CALLDATASIZE PUSH1 0x4 PUSH2 0x1479 JUMP JUMPDEST PUSH2 0x8B1 JUMP JUMPDEST PUSH2 0x24B PUSH2 0x38D CALLDATASIZE PUSH1 0x4 PUSH2 0x1479 JUMP JUMPDEST PUSH2 0x968 JUMP JUMPDEST PUSH2 0x1FC PUSH1 0x5 SLOAD DUP2 JUMP JUMPDEST PUSH2 0x1FC PUSH2 0xAB4 JUMP JUMPDEST PUSH2 0x24B PUSH2 0xB68 JUMP JUMPDEST PUSH2 0x1FC PUSH1 0x4 SLOAD DUP2 JUMP JUMPDEST PUSH2 0x24B PUSH2 0xBF5 JUMP JUMPDEST PUSH2 0x1FC PUSH1 0x6 SLOAD DUP2 JUMP JUMPDEST PUSH2 0x24B PUSH2 0x3D3 CALLDATASIZE PUSH1 0x4 PUSH2 0x1449 JUMP JUMPDEST PUSH2 0xCDE JUMP JUMPDEST PUSH1 0x3 SLOAD PUSH2 0x2E9 SWAP1 PUSH1 0x1 PUSH1 0x1 PUSH1 0xA0 SHL SUB AND DUP2 JUMP JUMPDEST PUSH2 0x24B PUSH2 0xD6B JUMP JUMPDEST PUSH1 0x1 PUSH1 0x1 PUSH1 0xA0 SHL SUB DUP2 AND PUSH1 0x0 SWAP1 DUP2 MSTORE PUSH1 0xC PUSH1 0x20 SWAP1 DUP2 MSTORE PUSH1 0x40 DUP1 DUP4 KECCAK256 SLOAD PUSH1 0xB SWAP1 SWAP3 MSTORE DUP3 KECCAK256 SLOAD PUSH8 0xDE0B6B3A7640000 SWAP1 PUSH2 0x429 PUSH2 0xAB4 JUMP JUMPDEST PUSH2 0x433 SWAP2 SWAP1 PUSH2 0x14A8 JUMP JUMPDEST PUSH1 0x1 PUSH1 0x1 PUSH1 0xA0 SHL SUB DUP6 AND PUSH1 0x0 SWAP1 DUP2 MSTORE PUSH1 0xA PUSH1 0x20 MSTORE PUSH1 0x40 SWAP1 KECCAK256 SLOAD PUSH2 0x456 SWAP2 SWAP1 PUSH2 0x14BB JUMP JUMPDEST PUSH2 0x460 SWAP2 SWAP1 PUSH2 0x14D2 JUMP JUMPDEST PUSH2 0x46A SWAP2 SWAP1 PUSH2 0x14F4 JUMP JUMPDEST SWAP3 SWAP2 POP POP JUMP JUMPDEST PUSH2 0x478 PUSH2 0xD8C JUMP JUMPDEST CALLER PUSH2 0x481 PUSH2 0xDE5 JUMP JUMPDEST PUSH1 0x1 PUSH1 0x1 PUSH1 0xA0 SHL SUB DUP2 AND ISZERO PUSH2 0x4C5 JUMPI PUSH2 0x499 DUP2 PUSH2 0x3F3 JUMP JUMPDEST PUSH1 0x1 PUSH1 0x1 PUSH1 0xA0 SHL SUB DUP3 AND PUSH1 0x0 SWAP1 DUP2 MSTORE PUSH1 0xC PUSH1 0x20 SWAP1 DUP2 MSTORE PUSH1 0x40 DUP1 DUP4 KECCAK256 SWAP4 SWAP1 SWAP4 SSTORE PUSH1 0x6 SLOAD PUSH1 0xB SWAP1 SWAP2 MSTORE SWAP2 SWAP1 KECCAK256 SSTORE JUMPDEST PUSH1 0x0 DUP3 GT PUSH2 0x51A JUMPI PUSH1 0x40 MLOAD PUSH3 0x461BCD PUSH1 0xE5 SHL DUP2 MSTORE PUSH1 0x20 PUSH1 0x4 DUP3 ADD MSTORE PUSH1 0x11 PUSH1 0x24 DUP3 ADD MSTORE PUSH32 0x43616E6E6F742077697468647261772030000000000000000000000000000000 PUSH1 0x44 DUP3 ADD MSTORE PUSH1 0x64 ADD JUMPDEST PUSH1 0x40 MLOAD DUP1 SWAP2 SUB SWAP1 REVERT JUMPDEST CALLER PUSH1 0x0 SWAP1 DUP2 MSTORE PUSH1 0xA PUSH1 0x20 MSTORE PUSH1 0x40 SWAP1 KECCAK256 SLOAD DUP3 GT ISZERO PUSH2 0x579 JUMPI PUSH1 0x40 MLOAD PUSH3 0x461BCD PUSH1 0xE5 SHL DUP2 MSTORE PUSH1 0x20 PUSH1 0x4 DUP3 ADD MSTORE PUSH1 0x14 PUSH1 0x24 DUP3 ADD MSTORE PUSH32 0x496E73756666696369656E742062616C616E6365000000000000000000000000 PUSH1 0x44 DUP3 ADD MSTORE PUSH1 0x64 ADD PUSH2 0x511 JUMP JUMPDEST PUSH1 0x9 SLOAD CALLER PUSH1 0x0 SWAP1 DUP2 MSTORE PUSH1 0xD PUSH1 0x20 MSTORE PUSH1 0x40 SWAP1 KECCAK256 SLOAD PUSH2 0x596 SWAP2 SWAP1 PUSH2 0x14F4 JUMP JUMPDEST TIMESTAMP LT ISZERO PUSH2 0x5E5 JUMPI PUSH1 0x40 MLOAD PUSH3 0x461BCD PUSH1 0xE5 SHL DUP2 MSTORE PUSH1 0x20 PUSH1 0x4 DUP3 ADD MSTORE PUSH1 0xC PUSH1 0x24 DUP3 ADD MSTORE PUSH32 0x5374696C6C206C6F636B65640000000000000000000000000000000000000000 PUSH1 0x44 DUP3 ADD MSTORE PUSH1 0x64 ADD PUSH2 0x511 JUMP JUMPDEST CALLER PUSH1 0x0 SWAP1 DUP2 MSTORE PUSH1 0xA PUSH1 0x20 MSTORE PUSH1 0x40 DUP2 KECCAK256 DUP1 SLOAD DUP5 SWAP3 SWAP1 PUSH2 0x604 SWAP1 DUP5 SWAP1 PUSH2 0x14A8 JUMP JUMPDEST SWAP3 POP POP DUP2 SWAP1 SSTORE POP DUP2 PUSH1 0x7 PUSH1 0x0 DUP3 DUP3 SLOAD PUSH2 0x61D SWAP2 SWAP1 PUSH2 0x14A8 JUMP JUMPDEST SWAP1 SWAP2 SSTORE POP POP PUSH1 0x2 SLOAD PUSH2 0x63E SWAP1 PUSH2 0x100 SWAP1 DIV PUSH1 0x1 PUSH1 0x1 PUSH1 0xA0 SHL SUB AND CALLER DUP5 PUSH2 0xEBF JUMP JUMPDEST PUSH1 0x40 MLOAD DUP3 DUP2 MSTORE CALLER SWAP1 PUSH32 0x7084F5476618D8E60B11EF0D7D3F06914655ADB8793E28FF7F018D4C76D505D5 SWAP1 PUSH1 0x20 ADD JUMPDEST PUSH1 0x40 MLOAD DUP1 SWAP2 SUB SWAP1 LOG2 POP PUSH2 0x67E PUSH1 0x1 DUP1 SSTORE JUMP JUMPDEST POP JUMP JUMPDEST PUSH2 0x689 PUSH2 0xD8C JUMP JUMPDEST CALLER PUSH2 0x692 PUSH2 0xDE5 JUMP JUMPDEST PUSH1 0x1 PUSH1 0x1 PUSH1 0xA0 SHL SUB DUP2 AND ISZERO PUSH2 0x6D6 JUMPI PUSH2 0x6AA DUP2 PUSH2 0x3F3 JUMP JUMPDEST PUSH1 0x1 PUSH1 0x1 PUSH1 0xA0 SHL SUB DUP3 AND PUSH1 0x0 SWAP1 DUP2 MSTORE PUSH1 0xC PUSH1 0x20 SWAP1 DUP2 MSTORE PUSH1 0x40 DUP1 DUP4 KECCAK256 SWAP4 SWAP1 SWAP4 SSTORE PUSH1 0x6 SLOAD PUSH1 0xB SWAP1 SWAP2 MSTORE SWAP2 SWAP1 KECCAK256 SSTORE JUMPDEST CALLER PUSH1 0x0 SWAP1 DUP2 MSTORE PUSH1 0xC PUSH1 0x20 MSTORE PUSH1 0x40 SWAP1 KECCAK256 SLOAD DUP1 ISZERO PUSH2 0x74B JUMPI CALLER PUSH1 0x0 DUP2 DUP2 MSTORE PUSH1 0xC PUSH1 0x20 MSTORE PUSH1 0x40 DUP2 KECCAK256 SSTORE PUSH1 0x3 SLOAD PUSH2 0x715 SWAP2 PUSH1 0x1 PUSH1 0x1 PUSH1 0xA0 SHL SUB SWAP1 SWAP2 AND SWAP1 DUP4 PUSH2 0xEBF JUMP JUMPDEST PUSH1 0x40 MLOAD DUP2 DUP2 MSTORE CALLER SWAP1 PUSH32 0xE2403640BA68FED3A2F88B7557551D1993F84B99BB10FF833F0CF8DB0C5E0486 SWAP1 PUSH1 0x20 ADD PUSH1 0x40 MLOAD DUP1 SWAP2 SUB SWAP1 LOG2 JUMPDEST POP POP PUSH2 0x756 PUSH1 0x1 DUP1 SSTORE JUMP JUMPDEST JUMP JUMPDEST PUSH2 0x760 PUSH2 0xF6D JUMP JUMPDEST PUSH2 0x756 PUSH2 0xFC7 JUMP JUMPDEST PUSH2 0x770 PUSH2 0xF6D JUMP JUMPDEST PUSH1 0x9 DUP2 SWAP1 SSTORE PUSH1 0x40 MLOAD DUP2 DUP2 MSTORE PUSH32 0x8C7BA3004ED566CA0F3DA73AAA1E3470028922C65772882A9B89612E44A72DCF SWAP1 PUSH1 0x20 ADD JUMPDEST PUSH1 0x40 MLOAD DUP1 SWAP2 SUB SWAP1 LOG1 POP JUMP JUMPDEST PUSH2 0x7B4 PUSH2 0xF6D JUMP JUMPDEST PUSH1 0x0 PUSH2 0x7BE PUSH2 0xDE5 JUMP JUMPDEST PUSH1 0x1 PUSH1 0x1 PUSH1 0xA0 SHL SUB DUP2 AND ISZERO PUSH2 0x802 JUMPI PUSH2 0x7D6 DUP2 PUSH2 0x3F3 JUMP JUMPDEST PUSH1 0x1 PUSH1 0x1 PUSH1 0xA0 SHL SUB DUP3 AND PUSH1 0x0 SWAP1 DUP2 MSTORE PUSH1 0xC PUSH1 0x20 SWAP1 DUP2 MSTORE PUSH1 0x40 DUP1 DUP4 KECCAK256 SWAP4 SWAP1 SWAP4 SSTORE PUSH1 0x6 SLOAD PUSH1 0xB SWAP1 SWAP2 MSTORE SWAP2 SWAP1 KECCAK256 SSTORE JUMPDEST PUSH1 0xC8 DUP3 GT ISZERO PUSH2 0x853 JUMPI PUSH1 0x40 MLOAD PUSH3 0x461BCD PUSH1 0xE5 SHL DUP2 MSTORE PUSH1 0x20 PUSH1 0x4 DUP3 ADD MSTORE PUSH1 0x14 PUSH1 0x24 DUP3 ADD MSTORE PUSH32 0x5765656B6C79207261746520746F6F2068696768000000000000000000000000 PUSH1 0x44 DUP3 ADD MSTORE PUSH1 0x64 ADD PUSH2 0x511 JUMP JUMPDEST PUSH1 0x4 DUP3 SWAP1 SSTORE PUSH1 0x40 MLOAD DUP3 DUP2 MSTORE PUSH32 0x33A0B46DFA3E2CEA9ACBDE71CFDD54D3D26187FEDB09B839D120EC5F7CF549B4 SWAP1 PUSH1 0x20 ADD PUSH1 0x40 MLOAD DUP1 SWAP2 SUB SWAP1 LOG1 POP POP JUMP JUMPDEST PUSH2 0x897 PUSH2 0xF6D JUMP JUMPDEST PUSH2 0x756 PUSH1 0x0 PUSH2 0x1019 JUMP JUMPDEST PUSH2 0x8A9 PUSH2 0xF6D JUMP JUMPDEST PUSH2 0x756 PUSH2 0x1081 JUMP JUMPDEST PUSH2 0x8B9 PUSH2 0xF6D JUMP JUMPDEST PUSH1 0x0 DUP2 GT PUSH2 0x909 JUMPI PUSH1 0x40 MLOAD PUSH3 0x461BCD PUSH1 0xE5 SHL DUP2 MSTORE PUSH1 0x20 PUSH1 0x4 DUP3 ADD MSTORE PUSH1 0x12 PUSH1 0x24 DUP3 ADD MSTORE PUSH32 0x416D6F756E74206D757374206265203E20300000000000000000000000000000 PUSH1 0x44 DUP3 ADD MSTORE PUSH1 0x64 ADD PUSH2 0x511 JUMP JUMPDEST PUSH1 0x3 SLOAD PUSH2 0x921 SWAP1 PUSH1 0x1 PUSH1 0x1 PUSH1 0xA0 SHL SUB AND CALLER ADDRESS DUP5 PUSH2 0x10BE JUMP JUMPDEST DUP1 PUSH1 0x8 PUSH1 0x0 DUP3 DUP3 SLOAD PUSH2 0x933 SWAP2 SWAP1 PUSH2 0x14F4 JUMP JUMPDEST SWAP1 SWAP2 SSTORE POP POP PUSH1 0x40 MLOAD DUP2 DUP2 MSTORE PUSH32 0xE42DDE25409A3E8C7C119C1C722610D9E9BD96E73E3CEAD774863C9FFDD870D6 SWAP1 PUSH1 0x20 ADD PUSH2 0x7A1 JUMP JUMPDEST PUSH2 0x970 PUSH2 0xD8C JUMP JUMPDEST PUSH2 0x978 PUSH2 0x1115 JUMP JUMPDEST CALLER PUSH2 0x981 PUSH2 0xDE5 JUMP JUMPDEST PUSH1 0x1 PUSH1 0x1 PUSH1 0xA0 SHL SUB DUP2 AND ISZERO PUSH2 0x9C5 JUMPI PUSH2 0x999 DUP2 PUSH2 0x3F3 JUMP JUMPDEST PUSH1 0x1 PUSH1 0x1 PUSH1 0xA0 SHL SUB DUP3 AND PUSH1 0x0 SWAP1 DUP2 MSTORE PUSH1 0xC PUSH1 0x20 SWAP1 DUP2 MSTORE PUSH1 0x40 DUP1 DUP4 KECCAK256 SWAP4 SWAP1 SWAP4 SSTORE PUSH1 0x6 SLOAD PUSH1 0xB SWAP1 SWAP2 MSTORE SWAP2 SWAP1 KECCAK256 SSTORE JUMPDEST PUSH1 0x0 DUP3 GT PUSH2 0xA15 JUMPI PUSH1 0x40 MLOAD PUSH3 0x461BCD PUSH1 0xE5 SHL DUP2 MSTORE PUSH1 0x20 PUSH1 0x4 DUP3 ADD MSTORE PUSH1 0xE PUSH1 0x24 DUP3 ADD MSTORE PUSH32 0x43616E6E6F74207374616B652030000000000000000000000000000000000000 PUSH1 0x44 DUP3 ADD MSTORE PUSH1 0x64 ADD PUSH2 0x511 JUMP JUMPDEST CALLER PUSH1 0x0 SWAP1 DUP2 MSTORE PUSH1 0xA PUSH1 0x20 MSTORE PUSH1 0x40 DUP2 KECCAK256 DUP1 SLOAD DUP5 SWAP3 SWAP1 PUSH2 0xA34 SWAP1 DUP5 SWAP1 PUSH2 0x14F4 JUMP JUMPDEST SWAP3 POP POP DUP2 SWAP1 SSTORE POP DUP2 PUSH1 0x7 PUSH1 0x0 DUP3 DUP3 SLOAD PUSH2 0xA4D SWAP2 SWAP1 PUSH2 0x14F4 JUMP JUMPDEST SWAP1 SWAP2 SSTORE POP POP CALLER PUSH1 0x0 DUP2 DUP2 MSTORE PUSH1 0xD PUSH1 0x20 MSTORE PUSH1 0x40 SWAP1 KECCAK256 TIMESTAMP SWAP1 SSTORE PUSH1 0x2 SLOAD PUSH2 0xA82 SWAP2 PUSH2 0x100 SWAP1 SWAP2 DIV PUSH1 0x1 PUSH1 0x1 PUSH1 0xA0 SHL SUB AND SWAP1 ADDRESS DUP6 PUSH2 0x10BE JUMP JUMPDEST PUSH1 0x40 MLOAD DUP3 DUP2 MSTORE CALLER SWAP1 PUSH32 0x9E71BC8EEA02A63969F509818F2DAFB9254532904319F9DBDA79B67BD34A5F3D SWAP1 PUSH1 0x20 ADD PUSH2 0x66C JUMP JUMPDEST PUSH1 0x0 PUSH1 0x7 SLOAD PUSH1 0x0 SUB PUSH2 0xAC7 JUMPI POP PUSH1 0x6 SLOAD SWAP1 JUMP JUMPDEST PUSH1 0x0 PUSH1 0x5 SLOAD TIMESTAMP PUSH2 0xAD7 SWAP2 SWAP1 PUSH2 0x14A8 JUMP JUMPDEST SWAP1 POP DUP1 ISZERO DUP1 PUSH2 0xAE6 JUMPI POP PUSH1 0x8 SLOAD ISZERO JUMPDEST ISZERO PUSH2 0xAF3 JUMPI POP POP PUSH1 0x6 SLOAD SWAP1 JUMP JUMPDEST PUSH1 0x0 PUSH5 0x1687D2800 DUP3 PUSH1 0x4 SLOAD PUSH1 0x7 SLOAD PUSH2 0xB0C SWAP2 SWAP1 PUSH2 0x14BB JUMP JUMPDEST PUSH2 0xB16 SWAP2 SWAP1 PUSH2 0x14BB JUMP JUMPDEST PUSH2 0xB20 SWAP2 SWAP1 PUSH2 0x14D2 JUMP JUMPDEST PUSH1 0x8 SLOAD SWAP1 SWAP2 POP DUP2 SWAP1 DUP2 GT ISZERO PUSH2 0xB34 JUMPI POP PUSH1 0x8 SLOAD JUMPDEST PUSH1 0x7 SLOAD PUSH2 0xB49 DUP3 PUSH8 0xDE0B6B3A7640000 PUSH2 0x14BB JUMP JUMPDEST PUSH2 0xB53 SWAP2 SWAP1 PUSH2 0x14D2 JUMP JUMPDEST PUSH1 0x6 SLOAD PUSH2 0xB60 SWAP2 SWAP1 PUSH2 0x14F4 JUMP JUMPDEST SWAP4 POP POP POP POP SWAP1 JUMP JUMPDEST PUSH2 0xB70 PUSH2 0xF6D JUMP JUMPDEST PUSH1 0x0 PUSH2 0xB7A PUSH2 0xDE5 JUMP JUMPDEST PUSH1 0x1 PUSH1 0x1 PUSH1 0xA0 SHL SUB DUP2 AND ISZERO PUSH2 0xBBE JUMPI PUSH2 0xB92 DUP2 PUSH2 0x3F3 JUMP JUMPDEST PUSH1 0x1 PUSH1 0x1 PUSH1 0xA0 SHL SUB DUP3 AND PUSH1 0x0 SWAP1 DUP2 MSTORE PUSH1 0xC PUSH1 0x20 SWAP1 DUP2 MSTORE PUSH1 0x40 DUP1 DUP4 KECCAK256 SWAP4 SWAP1 SWAP4 SSTORE PUSH1 0x6 SLOAD PUSH1 0xB SWAP1 SWAP2 MSTORE SWAP2 SWAP1 KECCAK256 SSTORE JUMPDEST PUSH1 0x32 PUSH1 0x4 DUP2 SWAP1 SSTORE PUSH1 0x40 MLOAD SWAP1 DUP2 MSTORE PUSH32 0x33A0B46DFA3E2CEA9ACBDE71CFDD54D3D26187FEDB09B839D120EC5F7CF549B4 SWAP1 PUSH1 0x20 ADD PUSH2 0x7A1 JUMP JUMPDEST PUSH2 0xBFD PUSH2 0xD8C JUMP JUMPDEST CALLER PUSH1 0x0 SWAP1 DUP2 MSTORE PUSH1 0xA PUSH1 0x20 MSTORE PUSH1 0x40 SWAP1 KECCAK256 SLOAD DUP1 PUSH2 0xC5A JUMPI PUSH1 0x40 MLOAD PUSH3 0x461BCD PUSH1 0xE5 SHL DUP2 MSTORE PUSH1 0x20 PUSH1 0x4 DUP3 ADD MSTORE PUSH1 0x10 PUSH1 0x24 DUP3 ADD MSTORE PUSH32 0x4E6F20746F6B656E73207374616B656400000000000000000000000000000000 PUSH1 0x44 DUP3 ADD MSTORE PUSH1 0x64 ADD PUSH2 0x511 JUMP JUMPDEST CALLER PUSH1 0x0 SWAP1 DUP2 MSTORE PUSH1 0xA PUSH1 0x20 MSTORE PUSH1 0x40 DUP2 KECCAK256 DUP2 SWAP1 SSTORE PUSH1 0x7 DUP1 SLOAD DUP4 SWAP3 SWAP1 PUSH2 0xC7E SWAP1 DUP5 SWAP1 PUSH2 0x14A8 JUMP JUMPDEST SWAP1 SWAP2 SSTORE POP POP PUSH1 0x2 SLOAD PUSH2 0xC9F SWAP1 PUSH2 0x100 SWAP1 DIV PUSH1 0x1 PUSH1 0x1 PUSH1 0xA0 SHL SUB AND CALLER DUP4 PUSH2 0xEBF JUMP JUMPDEST PUSH1 0x40 MLOAD DUP2 DUP2 MSTORE CALLER SWAP1 PUSH32 0x7084F5476618D8E60B11EF0D7D3F06914655ADB8793E28FF7F018D4C76D505D5 SWAP1 PUSH1 0x20 ADD PUSH1 0x40 MLOAD DUP1 SWAP2 SUB SWAP1 LOG2 POP PUSH2 0x756 PUSH1 0x1 DUP1 SSTORE JUMP JUMPDEST PUSH2 0xCE6 PUSH2 0xF6D JUMP JUMPDEST PUSH1 0x1 PUSH1 0x1 PUSH1 0xA0 SHL SUB DUP2 AND PUSH2 0xD62 JUMPI PUSH1 0x40 MLOAD PUSH3 0x461BCD PUSH1 0xE5 SHL DUP2 MSTORE PUSH1 0x20 PUSH1 0x4 DUP3 ADD MSTORE PUSH1 0x26 PUSH1 0x24 DUP3 ADD MSTORE PUSH32 0x4F776E61626C653A206E6577206F776E657220697320746865207A65726F2061 PUSH1 0x44 DUP3 ADD MSTORE PUSH32 0x6464726573730000000000000000000000000000000000000000000000000000 PUSH1 0x64 DUP3 ADD MSTORE PUSH1 0x84 ADD PUSH2 0x511 JUMP JUMPDEST PUSH2 0x67E DUP2 PUSH2 0x1019 JUMP JUMPDEST CALLER PUSH1 0x0 SWAP1 DUP2 MSTORE PUSH1 0xA PUSH1 0x20 MSTORE PUSH1 0x40 SWAP1 KECCAK256 SLOAD PUSH2 0xD84 SWAP1 PUSH2 0x470 JUMP JUMPDEST PUSH2 0x756 PUSH2 0x681 JUMP JUMPDEST PUSH1 0x2 PUSH1 0x1 SLOAD SUB PUSH2 0xDDE JUMPI PUSH1 0x40 MLOAD PUSH3 0x461BCD PUSH1 0xE5 SHL DUP2 MSTORE PUSH1 0x20 PUSH1 0x4 DUP3 ADD MSTORE PUSH1 0x1F PUSH1 0x24 DUP3 ADD MSTORE PUSH32 0x5265656E7472616E637947756172643A207265656E7472616E742063616C6C00 PUSH1 0x44 DUP3 ADD MSTORE PUSH1 0x64 ADD PUSH2 0x511 JUMP JUMPDEST PUSH1 0x2 PUSH1 0x1 SSTORE JUMP JUMPDEST PUSH1 0x7 SLOAD PUSH1 0x0 SUB PUSH2 0xDF5 JUMPI TIMESTAMP PUSH1 0x5 SSTORE JUMP JUMPDEST PUSH1 0x0 PUSH1 0x5 SLOAD TIMESTAMP PUSH2 0xE05 SWAP2 SWAP1 PUSH2 0x14A8 JUMP JUMPDEST SWAP1 POP DUP1 ISZERO DUP1 PUSH2 0xE14 JUMPI POP PUSH1 0x8 SLOAD ISZERO JUMPDEST ISZERO PUSH2 0xE20 JUMPI POP TIMESTAMP PUSH1 0x5 SSTORE JUMP JUMPDEST PUSH1 0x0 PUSH5 0x1687D2800 DUP3 PUSH1 0x4 SLOAD PUSH1 0x7 SLOAD PUSH2 0xE39 SWAP2 SWAP1 PUSH2 0x14BB JUMP JUMPDEST PUSH2 0xE43 SWAP2 SWAP1 PUSH2 0x14BB JUMP JUMPDEST PUSH2 0xE4D SWAP2 SWAP1 PUSH2 0x14D2 JUMP JUMPDEST PUSH1 0x8 SLOAD SWAP1 SWAP2 POP DUP2 SWAP1 DUP2 GT ISZERO PUSH2 0xE61 JUMPI POP PUSH1 0x8 SLOAD JUMPDEST DUP1 ISZERO PUSH2 0xEB6 JUMPI PUSH1 0x7 SLOAD PUSH2 0xE7C DUP3 PUSH8 0xDE0B6B3A7640000 PUSH2 0x14BB JUMP JUMPDEST PUSH2 0xE86 SWAP2 SWAP1 PUSH2 0x14D2 JUMP JUMPDEST PUSH1 0x6 PUSH1 0x0 DUP3 DUP3 SLOAD PUSH2 0xE97 SWAP2 SWAP1 PUSH2 0x14F4 JUMP JUMPDEST SWAP3 POP POP DUP2 SWAP1 SSTORE POP DUP1 PUSH1 0x8 PUSH1 0x0 DUP3 DUP3 SLOAD PUSH2 0xEB0 SWAP2 SWAP1 PUSH2 0x14A8 JUMP JUMPDEST SWAP1 SWAP2 SSTORE POP POP JUMPDEST POP POP TIMESTAMP PUSH1 0x5 SSTORE POP JUMP JUMPDEST PUSH1 0x40 MLOAD PUSH1 0x1 PUSH1 0x1 PUSH1 0xA0 SHL SUB DUP4 AND PUSH1 0x24 DUP3 ADD MSTORE PUSH1 0x44 DUP2 ADD DUP3 SWAP1 MSTORE PUSH2 0xF68 SWAP1 DUP5 SWAP1 PUSH32 0xA9059CBB00000000000000000000000000000000000000000000000000000000 SWAP1 PUSH1 0x64 ADD JUMPDEST PUSH1 0x40 DUP1 MLOAD PUSH1 0x1F NOT DUP2 DUP5 SUB ADD DUP2 MSTORE SWAP2 SWAP1 MSTORE PUSH1 0x20 DUP2 ADD DUP1 MLOAD PUSH28 0xFFFFFFFFFFFFFFFFFFFFFFFFFFFFFFFFFFFFFFFFFFFFFFFFFFFFFFFF AND PUSH32 0xFFFFFFFF00000000000000000000000000000000000000000000000000000000 SWAP1 SWAP4 AND SWAP3 SWAP1 SWAP3 OR SWAP1 SWAP2 MSTORE PUSH2 0x1168 JUMP JUMPDEST POP POP POP JUMP JUMPDEST PUSH1 0x0 SLOAD PUSH1 0x1 PUSH1 0x1 PUSH1 0xA0 SHL SUB AND CALLER EQ PUSH2 0x756 JUMPI PUSH1 0x40 MLOAD PUSH3 0x461BCD PUSH1 0xE5 SHL DUP2 MSTORE PUSH1 0x20 PUSH1 0x4 DUP3 ADD DUP2 SWAP1 MSTORE PUSH1 0x24 DUP3 ADD MSTORE PUSH32 0x4F776E61626C653A2063616C6C6572206973206E6F7420746865206F776E6572 PUSH1 0x44 DUP3 ADD MSTORE PUSH1 0x64 ADD PUSH2 0x511 JUMP JUMPDEST PUSH2 0xFCF PUSH2 0x1250 JUMP JUMPDEST PUSH1 0x2 DUP1 SLOAD PUSH1 0xFF NOT AND SWAP1 SSTORE PUSH32 0x5DB9EE0A495BF2E6FF9C91A7834C1BA4FDD244A5E8AA4E537BD38AEAE4B073AA CALLER JUMPDEST PUSH1 0x40 MLOAD PUSH1 0x1 PUSH1 0x1 PUSH1 0xA0 SHL SUB SWAP1 SWAP2 AND DUP2 MSTORE PUSH1 0x20 ADD PUSH1 0x40 MLOAD DUP1 SWAP2 SUB SWAP1 LOG1 JUMP JUMPDEST PUSH1 0x0 DUP1 SLOAD PUSH1 0x1 PUSH1 0x1 PUSH1 0xA0 SHL SUB DUP4 DUP2 AND PUSH32 0xFFFFFFFFFFFFFFFFFFFFFFFF0000000000000000000000000000000000000000 DUP4 AND DUP2 OR DUP5 SSTORE PUSH1 0x40 MLOAD SWAP2 SWAP1 SWAP3 AND SWAP3 DUP4 SWAP2 PUSH32 0x8BE0079C531659141344CD1FD0A4F28419497F9722A3DAAFE3B4186F6B6457E0 SWAP2 SWAP1 LOG3 POP POP JUMP JUMPDEST PUSH2 0x1089 PUSH2 0x1115 JUMP JUMPDEST PUSH1 0x2 DUP1 SLOAD PUSH1 0xFF NOT AND PUSH1 0x1 OR SWAP1 SSTORE PUSH32 0x62E78CEA01BEE320CD4E420270B5EA74000D11B0C9F74754EBDBFC544B05A258 PUSH2 0xFFC CALLER SWAP1 JUMP JUMPDEST PUSH1 0x40 MLOAD PUSH1 0x1 PUSH1 0x1 PUSH1 0xA0 SHL SUB DUP1 DUP6 AND PUSH1 0x24 DUP4 ADD MSTORE DUP4 AND PUSH1 0x44 DUP3 ADD MSTORE PUSH1 0x64 DUP2 ADD DUP3 SWAP1 MSTORE PUSH2 0x110F SWAP1 DUP6 SWAP1 PUSH32 0x23B872DD00000000000000000000000000000000000000000000000000000000 SWAP1 PUSH1 0x84 ADD PUSH2 0xF04 JUMP JUMPDEST POP POP POP POP JUMP JUMPDEST PUSH1 0x2 SLOAD PUSH1 0xFF AND ISZERO PUSH2 0x756 JUMPI PUSH1 0x40 MLOAD PUSH3 0x461BCD PUSH1 0xE5 SHL DUP2 MSTORE PUSH1 0x20 PUSH1 0x4 DUP3 ADD MSTORE PUSH1 0x10 PUSH1 0x24 DUP3 ADD MSTORE PUSH32 0x5061757361626C653A2070617573656400000000000000000000000000000000 PUSH1 0x44 DUP3 ADD MSTORE PUSH1 0x64 ADD PUSH2 0x511 JUMP JUMPDEST PUSH1 0x0 PUSH2 0x11BD DUP3 PUSH1 0x40 MLOAD DUP1 PUSH1 0x40 ADD PUSH1 0x40 MSTORE DUP1 PUSH1 0x20 DUP2 MSTORE PUSH1 0x20 ADD PUSH32 0x5361666545524332303A206C6F772D6C6576656C2063616C6C206661696C6564 DUP2 MSTORE POP DUP6 PUSH1 0x1 PUSH1 0x1 PUSH1 0xA0 SHL SUB AND PUSH2 0x12A2 SWAP1 SWAP3 SWAP2 SWAP1 PUSH4 0xFFFFFFFF AND JUMP JUMPDEST SWAP1 POP DUP1 MLOAD PUSH1 0x0 EQ DUP1 PUSH2 0x11DE JUMPI POP DUP1 DUP1 PUSH1 0x20 ADD SWAP1 MLOAD DUP2 ADD SWAP1 PUSH2 0x11DE SWAP2 SWAP1 PUSH2 0x1507 JUMP JUMPDEST PUSH2 0xF68 JUMPI PUSH1 0x40 MLOAD PUSH3 0x461BCD PUSH1 0xE5 SHL DUP2 MSTORE PUSH1 0x20 PUSH1 0x4 DUP3 ADD MSTORE PUSH1 0x2A PUSH1 0x24 DUP3 ADD MSTORE PUSH32 0x5361666545524332303A204552433230206F7065726174696F6E20646964206E PUSH1 0x44 DUP3 ADD MSTORE PUSH32 0x6F74207375636365656400000000000000000000000000000000000000000000 PUSH1 0x64 DUP3 ADD MSTORE PUSH1 0x84 ADD PUSH2 0x511 JUMP JUMPDEST PUSH1 0x2 SLOAD PUSH1 0xFF AND PUSH2 0x756 JUMPI PUSH1 0x40 MLOAD PUSH3 0x461BCD PUSH1 0xE5 SHL DUP2 MSTORE PUSH1 0x20 PUSH1 0x4 DUP3 ADD MSTORE PUSH1 0x14 PUSH1 0x24 DUP3 ADD MSTORE PUSH32 0x5061757361626C653A206E6F7420706175736564000000000000000000000000 PUSH1 0x44 DUP3 ADD MSTORE PUSH1 0x64 ADD PUSH2 0x511 JUMP JUMPDEST PUSH1 0x60 PUSH2 0x12B1 DUP5 DUP5 PUSH1 0x0 DUP6 PUSH2 0x12B9 JUMP JUMPDEST SWAP5 SWAP4 POP POP POP POP JUMP JUMPDEST PUSH1 0x60 DUP3 SELFBALANCE LT ISZERO PUSH2 0x1331 JUMPI PUSH1 0x40 MLOAD PUSH3 0x461BCD PUSH1 0xE5 SHL DUP2 MSTORE PUSH1 0x20 PUSH1 0x4 DUP3 ADD MSTORE PUSH1 0x26 PUSH1 0x24 DUP3 ADD MSTORE PUSH32 0x416464726573733A20696E73756666696369656E742062616C616E636520666F PUSH1 0x44 DUP3 ADD MSTORE PUSH32 0x722063616C6C0000000000000000000000000000000000000000000000000000 PUSH1 0x64 DUP3 ADD MSTORE PUSH1 0x84 ADD PUSH2 0x511 JUMP JUMPDEST PUSH1 0x0 DUP1 DUP7 PUSH1 0x1 PUSH1 0x1 PUSH1 0xA0 SHL SUB AND DUP6 DUP8 PUSH1 0x40 MLOAD PUSH2 0x134D SWAP2 SWAP1 PUSH2 0x154D JUMP JUMPDEST PUSH1 0x0 PUSH1 0x40 MLOAD DUP1 DUP4 SUB DUP2 DUP6 DUP8 GAS CALL SWAP3 POP POP POP RETURNDATASIZE DUP1 PUSH1 0x0 DUP2 EQ PUSH2 0x138A JUMPI PUSH1 0x40 MLOAD SWAP2 POP PUSH1 0x1F NOT PUSH1 0x3F RETURNDATASIZE ADD AND DUP3 ADD PUSH1 0x40 MSTORE RETURNDATASIZE DUP3 MSTORE RETURNDATASIZE PUSH1 0x0 PUSH1 0x20 DUP5 ADD RETURNDATACOPY PUSH2 0x138F JUMP JUMPDEST PUSH1 0x60 SWAP2 POP JUMPDEST POP SWAP2 POP SWAP2 POP PUSH2 0x13A0 DUP8 DUP4 DUP4 DUP8 PUSH2 0x13AB JUMP JUMPDEST SWAP8 SWAP7 POP POP POP POP POP POP POP JUMP JUMPDEST PUSH1 0x60 DUP4 ISZERO PUSH2 0x141A JUMPI DUP3 MLOAD PUSH1 0x0 SUB PUSH2 0x1413 JUMPI PUSH1 0x1 PUSH1 0x1 PUSH1 0xA0 SHL SUB DUP6 AND EXTCODESIZE PUSH2 0x1413 JUMPI PUSH1 0x40 MLOAD PUSH3 0x461BCD PUSH1 0xE5 SHL DUP2 MSTORE PUSH1 0x20 PUSH1 0x4 DUP3 ADD MSTORE PUSH1 0x1D PUSH1 0x24 DUP3 ADD MSTORE PUSH32 0x416464726573733A2063616C6C20746F206E6F6E2D636F6E7472616374000000 PUSH1 0x44 DUP3 ADD MSTORE PUSH1 0x64 ADD PUSH2 0x511 JUMP JUMPDEST POP DUP2 PUSH2 0x12B1 JUMP JUMPDEST PUSH2 0x12B1 DUP4 DUP4 DUP2 MLOAD ISZERO PUSH2 0x142F JUMPI DUP2 MLOAD DUP1 DUP4 PUSH1 0x20 ADD REVERT JUMPDEST DUP1 PUSH1 0x40 MLOAD PUSH3 0x461BCD PUSH1 0xE5 SHL DUP2 MSTORE PUSH1 0x4 ADD PUSH2 0x511 SWAP2 SWAP1 PUSH2 0x1569 JUMP JUMPDEST PUSH1 0x0 PUSH1 0x20 DUP3 DUP5 SUB SLT ISZERO PUSH2 0x145B JUMPI PUSH1 0x0 DUP1 REVERT JUMPDEST DUP2 CALLDATALOAD PUSH1 0x1 PUSH1 0x1 PUSH1 0xA0 SHL SUB DUP2 AND DUP2 EQ PUSH2 0x1472 JUMPI PUSH1 0x0 DUP1 REVERT JUMPDEST SWAP4 SWAP3 POP POP POP JUMP JUMPDEST PUSH1 0x0 PUSH1 0x20 DUP3 DUP5 SUB SLT ISZERO PUSH2 0x148B JUMPI PUSH1 0x0 DUP1 REVERT JUMPDEST POP CALLDATALOAD SWAP2 SWAP1 POP JUMP JUMPDEST PUSH4 0x4E487B71 PUSH1 0xE0 SHL PUSH1 0x0 MSTORE PUSH1 0x11 PUSH1 0x4 MSTORE PUSH1 0x24 PUSH1 0x0 REVERT JUMPDEST DUP2 DUP2 SUB DUP2 DUP2 GT ISZERO PUSH2 0x46A JUMPI PUSH2 0x46A PUSH2 0x1492 JUMP JUMPDEST DUP1 DUP3 MUL DUP2 ISZERO DUP3 DUP3 DIV DUP5 EQ OR PUSH2 0x46A JUMPI PUSH2 0x46A PUSH2 0x1492 JUMP JUMPDEST PUSH1 0x0 DUP3 PUSH2 0x14EF JUMPI PUSH4 0x4E487B71 PUSH1 0xE0 SHL PUSH1 0x0 MSTORE PUSH1 0x12 PUSH1 0x4 MSTORE PUSH1 0x24 PUSH1 0x0 REVERT JUMPDEST POP DIV SWAP1 JUMP JUMPDEST DUP1 DUP3 ADD DUP1 DUP3 GT ISZERO PUSH2 0x46A JUMPI PUSH2 0x46A PUSH2 0x1492 JUMP JUMPDEST PUSH1 0x0 PUSH1 0x20 DUP3 DUP5 SUB SLT ISZERO PUSH2 0x1519 JUMPI PUSH1 0x0 DUP1 REVERT JUMPDEST DUP2 MLOAD DUP1 ISZERO ISZERO DUP2 EQ PUSH2 0x1472 JUMPI PUSH1 0x0 DUP1 REVERT JUMPDEST PUSH1 0x0 JUMPDEST DUP4 DUP2 LT ISZERO PUSH2 0x1544 JUMPI DUP2 DUP2 ADD MLOAD DUP4 DUP3 ADD MSTORE PUSH1 0x20 ADD PUSH2 0x152C JUMP JUMPDEST POP POP PUSH1 0x0 SWAP2 ADD MSTORE JUMP JUMPDEST PUSH1 0x0 DUP3 MLOAD PUSH2 0x155F DUP2 DUP5 PUSH1 0x20 DUP8 ADD PUSH2 0x1529 JUMP JUMPDEST SWAP2 SWAP1 SWAP2 ADD SWAP3 SWAP2 POP POP JUMP JUMPDEST PUSH1 0x20 DUP2 MSTORE PUSH1 0x0 DUP3 MLOAD DUP1 PUSH1 0x20 DUP5 ADD MSTORE PUSH2 0x1588 DUP2 PUSH1 0x40 DUP6 ADD PUSH1 0x20 DUP8 ADD PUSH2 0x1529 JUMP JUMPDEST PUSH1 0x1F ADD PUSH1 0x1F NOT AND SWAP2 SWAP1 SWAP2 ADD PUSH1 0x40 ADD SWAP3 SWAP2 POP POP JUMP INVALID LOG2 PUSH5 0x6970667358 0x22 SLT KECCAK256 SLOAD 0x22 GT DUP14 MUL SELFDESTRUCT PUSH25 0x1446D667209249434A32AABDD8317836721F6957C30DE5DB29 PUSH5 0x736F6C6343 STOP ADDMOD SGT STOP CALLER "},"methodIdentifiers":{"DEFAULT_WEEKLY_RATE_BPS()":"59c5e746","MAX_WEEKLY_RATE_BPS()":"528defa1","earned(address)":"008cc262","emergencyWithdraw()":"db2e21bc","fundRewards(uint256)":"93707a19","getReward()":"3d18b912","lastUpdateTime()":"c8f33c91","owner()":"8da5cb5b","pause()":"8456cb59","paused()":"5c975abb","renounceOwnership()":"715018a6","resetWeeklyRate()":"d54b6e70","rewardPerToken()":"cd3daf9d","rewardPerTokenStored()":"df136d65","rewardToken()":"f7c618c1","rewards(address)":"0700037d","rewardsPool()":"0359fea9","setStakingDuration(uint256)":"6a8ca691","setWeeklyRateBps(uint256)":"6f9888b7","stake(uint256)":"a694fc3a","stakedBalance(address)":"60217267","stakingDuration()":"8005a7de","stakingTimestamp(address)":"8f0794fe","stakingToken()":"72f702f3","totalStaked()":"817b1cd2","transferOwnership(address)":"f2fde38b","unpause()":"3f4ba83a","userRewardPerTokenPaid(address)":"8b876347","weeklyRateBps()":"da9d6e8a","withdraw(uint256)":"2e1a7d4d","withdrawAndGetReward()":"fc7cb627"}},"storageLayout":{"storage":[{"astId":7,"contract":"contracts/ai.sol:StakingContract","label":"_owner","offset":0,"slot":"0","type":"t_address"},{"astId":231,"contract":"contracts/ai.sol:StakingContract","label":"_status","offset":0,"slot":"1","type":"t_uint256"},{"astId":130,"contract":"contracts/ai.sol:StakingContract","label":"_paused","offset":0,"slot":"2","type":"t_bool"},{"astId":3586,"contract":"contracts/ai.sol:StakingContract","label":"stakingToken","offset":1,"slot":"2","type":"t_contract(IERC20)363"},{"astId":3589,"contract":"contracts/ai.sol:StakingContract","label":"rewardToken","offset":0,"slot":"3","type":"t_contract(IERC20)363"},{"astId":3591,"contract":"contracts/ai.sol:StakingContract","label":"weeklyRateBps","offset":0,"slot":"4","type":"t_uint256"},{"astId":3593,"contract":"contracts/ai.sol:StakingContract","label":"lastUpdateTime","offset":0,"slot":"5","type":"t_uint256"},{"astId":3595,"contract":"contracts/ai.sol:StakingContract","label":"rewardPerTokenStored","offset":0,"slot":"6","type":"t_uint256"},{"astId":3597,"contract":"contracts/ai.sol:StakingContract","label":"totalStaked","offset":0,"slot":"7","type":"t_uint256"},{"astId":3599,"contract":"contracts/ai.sol:StakingContract","label":"rewardsPool","offset":0,"slot":"8","type":"t_uint256"},{"astId":3602,"contract":"contracts/ai.sol:StakingContract","label":"stakingDuration","offset":0,"slot":"9","type":"t_uint256"},{"astId":3606,"contract":"contracts/ai.sol:StakingContract","label":"stakedBalance","offset":0,"slot":"10","type":"t_mapping(t_address,t_uint256)"},{"astId":3610,"contract":"contracts/ai.sol:StakingContract","label":"userRewardPerTokenPaid","offset":0,"slot":"11","type":"t_mapping(t_address,t_uint256)"},{"astId":3614,"contract":"contracts/ai.sol:StakingContract","label":"rewards","offset":0,"slot":"12","type":"t_mapping(t_address,t_uint256)"},{"astId":3618,"contract":"contracts/ai.sol:StakingContract","label":"stakingTimestamp","offset":0,"slot":"13","type":"t_mapping(t_address,t_uint256)"}],"types":{"t_address":{"encoding":"inplace","label":"address","numberOfBytes":"20"},"t_bool":{"encoding":"inplace","label":"bool","numberOfBytes":"1"},"t_contract(IERC20)363":{"encoding":"inplace","label":"contract IERC20","numberOfBytes":"20"},"t_mapping(t_address,t_uint256)":{"encoding":"mapping","key":"t_address","label":"mapping(address => uint256)","numberOfBytes":"32","value":"t_uint256"},"t_uint256":{"encoding":"inplace","label":"uint256","numberOfBytes":"32"}}}}}}