{"contracts/multi_ai.sol":{"TieredStaking":{"abi":[{"inputs":[{"internalType":"address","name":"_stakingToken","type":"address"},{"internalType":"address","name":"_rewardToken","type":"address"},{"internalType":"uint256","name":"_baseRewardRate","type":"uint256"}],"stateMutability":"nonpayable","type":"constructor"},{"anonymous":false,"inputs":[{"indexed":true,"internalType":"address","name":"previousOwner","type":"address"},{"indexed":true,"internalType":"address","name":"newOwner","type":"address"}],"name":"OwnershipTransferred","type":"event"},{"anonymous":false,"inputs":[{"indexed":true,"internalType":"address","name":"user","type":"address"},{"indexed":false,"internalType":"uint256","name":"amount","type":"uint256"},{"indexed":false,"internalType":"uint256","name":"stakeIndex","type":"uint256"}],"name":"RewardClaimed","type":"event"},{"anonymous":false,"inputs":[{"indexed":true,"internalType":"address","name":"user","type":"address"},{"indexed":false,"internalType":"uint256","name":"amount","type":"uint256"},{"indexed":false,"internalType":"uint256","name":"tierId","type":"uint256"},{"indexed":false,"internalType":"uint256","name":"stakeIndex","type":"uint256"}],"name":"Staked","type":"event"},{"anonymous":false,"inputs":[{"indexed":true,"internalType":"uint256","name":"tierId","type":"uint256"},{"indexed":false,"internalType":"uint256","name":"minAmount","type":"uint256"},{"indexed":false,"internalType":"uint256","name":"maxAmount","type":"uint256"},{"indexed":false,"internalType":"uint256","name":"multiplier","type":"uint256"},{"indexed":false,"internalType":"uint256","name":"lockDuration","type":"uint256"}],"name":"TierCreated","type":"event"},{"anonymous":false,"inputs":[{"indexed":true,"internalType":"uint256","name":"tierId","type":"uint256"},{"indexed":false,"internalType":"bool","name":"isActive","type":"bool"}],"name":"TierUpdated","type":"event"},{"anonymous":false,"inputs":[{"indexed":true,"internalType":"address","name":"user","type":"address"},{"indexed":false,"internalType":"uint256","name":"amount","type":"uint256"},{"indexed":false,"internalType":"uint256","name":"stakeIndex","type":"uint256"}],"name":"Withdrawn","type":"event"},{"inputs":[],"name":"baseRewardRate","outputs":[{"internalType":"uint256","name":"","type":"uint256"}],"stateMutability":"view","type":"function"},{"inputs":[{"internalType":"address","name":"user","type":"address"},{"internalType":"uint256","name":"stakeIndex","type":"uint256"}],"name":"calculateRewards","outputs":[{"internalType":"uint256","name":"","type":"uint256"}],"stateMutability":"view","type":"function"},{"inputs":[{"internalType":"uint256","name":"stakeIndex","type":"uint256"}],"name":"claimRewards","outputs":[],"stateMutability":"nonpayable","type":"function"},{"inputs":[{"internalType":"uint256","name":"minAmount","type":"uint256"},{"internalType":"uint256","name":"maxAmount","type":"uint256"},{"internalType":"uint256","name":"rewardMultiplier","type":"uint256"},{"internalType":"uint256","name":"lockDuration","type":"uint256"}],"name":"createTier","outputs":[],"stateMutability":"nonpayable","type":"function"},{"inputs":[{"internalType":"uint256","name":"stakeIndex","type":"uint256"}],"name":"emergencyWithdraw","outputs":[],"stateMutability":"nonpayable","type":"function"},{"inputs":[{"internalType":"uint256","name":"amount","type":"uint256"}],"name":"fundRewards","outputs":[],"stateMutability":"nonpayable","type":"function"},{"inputs":[{"internalType":"address","name":"user","type":"address"}],"name":"getUserStakes","outputs":[{"components":[{"internalType":"uint256","name":"amount","type":"uint256"},{"internalType":"uint256","name":"tierId","type":"uint256"},{"internalType":"uint256","name":"stakedAt","type":"uint256"},{"internalType":"uint256","name":"lastClaimed","type":"uint256"},{"internalType":"uint256","name":"pendingRewards","type":"uint256"}],"internalType":"struct TieredStaking.StakeInfo[]","name":"","type":"tuple[]"}],"stateMutability":"view","type":"function"},{"inputs":[],"name":"owner","outputs":[{"internalType":"address","name":"","type":"address"}],"stateMutability":"view","type":"function"},{"inputs":[],"name":"renounceOwnership","outputs":[],"stateMutability":"nonpayable","type":"function"},{"inputs":[],"name":"rewardToken","outputs":[{"internalType":"contract IERC20","name":"","type":"address"}],"stateMutability":"view","type":"function"},{"inputs":[{"internalType":"uint256","name":"newRate","type":"uint256"}],"name":"setBaseRewardRate","outputs":[],"stateMutability":"nonpayable","type":"function"},{"inputs":[{"internalType":"uint256","name":"tierId","type":"uint256"},{"internalType":"bool","name":"isActive","type":"bool"}],"name":"setTierStatus","outputs":[],"stateMutability":"nonpayable","type":"function"},{"inputs":[{"internalType":"uint256","name":"amount","type":"uint256"},{"internalType":"uint256","name":"tierId","type":"uint256"}],"name":"stake","outputs":[],"stateMutability":"nonpayable","type":"function"},{"inputs":[],"name":"stakingToken","outputs":[{"internalType":"contract IERC20","name":"","type":"address"}],"stateMutability":"view","type":"function"},{"inputs":[],"name":"tierCount","outputs":[{"internalType":"uint256","name":"","type":"uint256"}],"stateMutability":"view","type":"function"},{"inputs":[{"internalType":"uint256","name":"","type":"uint256"}],"name":"tiers","outputs":[{"internalType":"uint256","name":"minAmount","type":"uint256"},{"internalType":"uint256","name":"maxAmount","type":"uint256"},{"internalType":"uint256","name":"rewardMultiplier","type":"uint256"},{"internalType":"uint256","name":"lockDuration","type":"uint256"},{"internalType":"bool","name":"isActive","type":"bool"}],"stateMutability":"view","type":"function"},{"inputs":[],"name":"totalStaked","outputs":[{"internalType":"uint256","name":"","type":"uint256"}],"stateMutability":"view","type":"function"},{"inputs":[{"internalType":"address","name":"","type":"address"}],"name":"totalUserStaked","outputs":[{"internalType":"uint256","name":"","type":"uint256"}],"stateMutability":"view","type":"function"},{"inputs":[{"internalType":"address","name":"newOwner","type":"address"}],"name":"transferOwnership","outputs":[],"stateMutability":"nonpayable","type":"function"},{"inputs":[{"internalType":"address","name":"","type":"address"},{"internalType":"uint256","name":"","type":"uint256"}],"name":"userStakes","outputs":[{"internalType":"uint256","name":"amount","type":"uint256"},{"internalType":"uint256","name":"tierId","type":"uint256"},{"internalType":"uint256","name":"stakedAt","type":"uint256"},{"internalType":"uint256","name":"lastClaimed","type":"uint256"},{"internalType":"uint256","name":"pendingRewards","type":"uint256"}],"stateMutability":"view","type":"function"},{"inputs":[{"internalType":"uint256","name":"stakeIndex","type":"uint256"}],"name":"withdrawStake","outputs":[],"stateMutability":"nonpayable","type":"function"}],"evm":{"bytecode":{"linkReferences":{},"object":"60806040523480156200001157600080fd5b5060405162001c8838038062001c888339810160408190526200003491620000e9565b6200003f336200007c565b60018055600280546001600160a01b039485166001600160a01b03199182161790915560038054939094169216919091179091556004556200012a565b600080546001600160a01b038381166001600160a01b0319831681178455604051919092169283917f8be0079c531659141344cd1fd0a4f28419497f9722a3daafe3b4186f6b6457e09190a35050565b80516001600160a01b0381168114620000e457600080fd5b919050565b600080600060608486031215620000ff57600080fd5b6200010a84620000cc565b92506200011a60208501620000cc565b9150604084015190509250925092565b611b4e806200013a6000396000f3fe608060405234801561001057600080fd5b50600436106101775760003560e01c8063817b1cd2116100d8578063afbf34401161008c578063f0a9abe711610066578063f0a9abe71461036d578063f2fde38b14610380578063f7c618c11461039357600080fd5b8063afbf344014610316578063b5d5b5fa1461031f578063beb8314c1461035a57600080fd5b80638da5cb5b116100bd5780638da5cb5b146102e957806393707a19146102fa57806396b55f7d1461030d57600080fd5b8063817b1cd2146102c0578063842e2981146102c957600080fd5b80633a1077391161012f578063715018a611610114578063715018a61461027a57806372f702f3146102825780637b0472f0146102ad57600080fd5b80633a107739146102395780635312ea8e1461026757600080fd5b80630962ef79116101605780630962ef79146102005780631ebb4fdc1461021357806325d5971f1461022657600080fd5b8063039af9eb1461017c57806307738af8146101eb575b600080fd5b6101bc61018a36600461184d565b600660205260009081526040902080546001820154600283015460038401546004909401549293919290919060ff1685565b6040805195865260208601949094529284019190915260608301521515608082015260a0015b60405180910390f35b6101fe6101f9366004611866565b6103a6565b005b6101fe61020e36600461184d565b61051f565b6101fe6102213660046118a6565b6106a3565b6101fe61023436600461184d565b610752565b6102596102473660046118f2565b60096020526000908152604090205481565b6040519081526020016101e2565b6101fe61027536600461184d565b610a97565b6101fe610cb2565b600254610295906001600160a01b031681565b6040516001600160a01b0390911681526020016101e2565b6101fe6102bb366004611914565b610cc6565b61025960055481565b6102dc6102d73660046118f2565b6110a3565b6040516101e29190611936565b6000546001600160a01b0316610295565b6101fe61030836600461184d565b61114a565b61025960075481565b61025960045481565b61033261032d3660046119a4565b61116a565b604080519586526020860194909452928401919091526060830152608082015260a0016101e2565b6102596103683660046119a4565b6111b8565b6101fe61037b36600461184d565b611304565b6101fe61038e3660046118f2565b611311565b600354610295906001600160a01b031681565b6103ae61139e565b8284106104025760405162461bcd60e51b815260206004820152600f60248201527f496e76616c696420616d6f756e7473000000000000000000000000000000000060448201526064015b60405180910390fd5b600082116104525760405162461bcd60e51b815260206004820152601260248201527f496e76616c6964206d756c7469706c696572000000000000000000000000000060448201526064016103f9565b60078054906000610462836119e4565b90915550506040805160a081018252858152602080820186815282840186815260608085018781526001608080880182815260078054600090815260068a528b902099518a559651928901929092559351600288015590516003870155516004909501805460ff191695151595909517909455905484518981529283018890529382018690529181018490527f1d87edd766d4a80321c9b268fd614fda07e60cdebe8c75fa2e5fa8584dbbf90b910160405180910390a250505050565b6105276113f8565b3360009081526008602052604090205481106105755760405162461bcd60e51b815260206004820152600d60248201526c496e76616c6964207374616b6560981b60448201526064016103f9565b600061058133836111b8565b9050600081116105d35760405162461bcd60e51b815260206004820152601360248201527f4e6f207265776172647320746f20636c61696d0000000000000000000000000060448201526064016103f9565b3360009081526008602052604090208054429190849081106105f7576105f76119fd565b600091825260208083206003600590930201919091019290925533815260089091526040812080548490811061062f5761062f6119fd565b600091825260209091206004600590920201015560035461065a906001600160a01b03163383611451565b604080518281526020810184905233917ff01da32686223933d8a18a391060918c7f11a3648639edd87ae013e2e273174391015b60405180910390a2506106a060018055565b50565b6106ab61139e565b6000821180156106bd57506007548211155b6106f85760405162461bcd60e51b815260206004820152600c60248201526b24b73b30b634b2103a34b2b960a11b60448201526064016103f9565b600082815260066020908152604091829020600401805460ff1916841515908117909155915191825283917f8f71204ab5049511d33210dd0e3f57d281dfb0c878c1246c78bba0e1d0ecb561910160405180910390a25050565b61075a6113f8565b3360009081526008602052604090205481106107a85760405162461bcd60e51b815260206004820152600d60248201526c496e76616c6964207374616b6560981b60448201526064016103f9565b3360009081526008602052604081208054839081106107c9576107c96119fd565b600091825260208083206040805160a080820183526005909502909201805483526001808201548486018190526002808401548686019081526003808601546060808a01919091526004968701546080808b0191909152948c5260068a529a87902087519a8b01885280548b5294850154988a0198909852908301549488019490945294810154968601879052015460ff161515928401929092529051909350909161087491611a13565b4210156108c35760405162461bcd60e51b815260206004820152601260248201527f5374616b65207374696c6c206c6f636b6564000000000000000000000000000060448201526064016103f9565b60006108cf33856111b8565b905080156108ee576003546108ee906001600160a01b03163383611451565b8251336000908152600960205260408120805490919061090f908490611a26565b9091555050825160058054600090610928908490611a26565b9091555050336000908152600860205260409020805461094a90600190611a26565b8154811061095a5761095a6119fd565b906000526020600020906005020160086000336001600160a01b03166001600160a01b03168152602001908152602001600020858154811061099e5761099e6119fd565b60009182526020808320845460059093020191825560018085015490830155600280850154908301556003808501549083015560049384015493909101929092553381526008909152604090208054806109fa576109fa611a39565b60008281526020812060056000199093019283020181815560018101829055600280820183905560038201839055600490910191909155915583519054610a4e916001600160a01b03909116903390611451565b8251604080519182526020820186905233917f92ccf450a286a957af52509bc1c9939d1a6a481783e142e41e2499f0bb66ebc6910160405180910390a25050506106a060018055565b610a9f6113f8565b336000908152600860205260409020548110610aed5760405162461bcd60e51b815260206004820152600d60248201526c496e76616c6964207374616b6560981b60448201526064016103f9565b336000908152600860205260408120805483908110610b0e57610b0e6119fd565b60009182526020808320600590920290910154338352600990915260408220805491935083929091610b41908490611a26565b925050819055508060056000828254610b5a9190611a26565b90915550503360009081526008602052604090208054610b7c90600190611a26565b81548110610b8c57610b8c6119fd565b906000526020600020906005020160086000336001600160a01b03166001600160a01b031681526020019081526020016000208381548110610bd057610bd06119fd565b6000918252602080832084546005909302019182556001808501549083015560028085015490830155600380850154908301556004938401549390910192909255338152600890915260409020805480610c2c57610c2c611a39565b60008281526020812060056000199093019283020181815560018101829055600280820183905560038201839055600490910191909155915554610c7a906001600160a01b03163383611451565b604080518281526020810184905233917f92ccf450a286a957af52509bc1c9939d1a6a481783e142e41e2499f0bb66ebc6910161068e565b610cba61139e565b610cc460006114ff565b565b610cce6113f8565b600081118015610ce057506007548111155b610d1b5760405162461bcd60e51b815260206004820152600c60248201526b24b73b30b634b2103a34b2b960a11b60448201526064016103f9565b600081815260066020908152604091829020825160a081018452815481526001820154928101929092526002810154928201929092526003820154606082015260049091015460ff16151560808201819052610db95760405162461bcd60e51b815260206004820152600f60248201527f54696572206e6f7420616374697665000000000000000000000000000000000060448201526064016103f9565b80518310801590610dce575080602001518311155b610e1a5760405162461bcd60e51b815260206004820152601860248201527f416d6f756e74206e6f7420696e20746965722072616e6765000000000000000060448201526064016103f9565b60008311610e6a5760405162461bcd60e51b815260206004820152600e60248201527f43616e6e6f74207374616b65203000000000000000000000000000000000000060448201526064016103f9565b6000805b33600090815260086020526040902054811015610f1357336000908152600860205260409020805485919083908110610ea957610ea96119fd565b90600052602060002090600502016001015403610f0157336000908152600860205260409020805482908110610ee157610ee16119fd565b90600052602060002090600502016000015482610efe9190611a13565b91505b80610f0b816119e4565b915050610e6e565b506020820151610f238583611a13565b1115610f715760405162461bcd60e51b815260206004820152601060248201527f457863656564732074696572206d61780000000000000000000000000000000060448201526064016103f9565b336000818152600860209081526040808320815160a081018352898152808401898152428285018181526060840191825260808401888152855460018181018855968a52888a209551600590910290950194855592519484019490945592516002830155915160038201559051600490910155928252600990529081208054869290610ffe908490611a13565b9250508190555083600560008282546110179190611a13565b9091555050600254611034906001600160a01b0316333087611567565b336000818152600860205260409020547fb4caaf29adda3eefee3ad552a8e85058589bf834c7466cae4ee58787f70589ed908690869061107690600190611a26565b6040805193845260208401929092529082015260600160405180910390a2505061109f60018055565b5050565b6001600160a01b0381166000908152600860209081526040808320805482518185028101850190935280835260609492939192909184015b8282101561113f57838290600052602060002090600502016040518060a001604052908160008201548152602001600182015481526020016002820154815260200160038201548152602001600482015481525050815260200190600101906110db565b505050509050919050565b61115261139e565b6003546106a0906001600160a01b0316333084611567565b6008602052816000526040600020818154811061118657600080fd5b600091825260209091206005909102018054600182015460028301546003840154600490940154929550909350919085565b6001600160a01b03821660009081526008602052604081208054829190849081106111e5576111e56119fd565b600091825260208083206040805160a080820183526005909502909201805483526001808201548486018190526002808401548686015260038085015460608089019182526004968701546080808b0191909152948c5260068a52878c2088519b8c01895280548c5295860154998b019990995291840154958901959095529382015495870195909552015460ff16151592840192909252905190935090919061128f9042611a26565b90506000670de0b6b3a76400008260045486600001516112af9190611a4f565b6112b99190611a4f565b6112c39190611a66565b905060006127108460400151836112da9190611a4f565b6112e49190611a66565b90508460800151816112f69190611a13565b955050505050505b92915050565b61130c61139e565b600455565b61131961139e565b6001600160a01b0381166113955760405162461bcd60e51b815260206004820152602660248201527f4f776e61626c653a206e6577206f776e657220697320746865207a65726f206160448201527f646472657373000000000000000000000000000000000000000000000000000060648201526084016103f9565b6106a0816114ff565b6000546001600160a01b03163314610cc45760405162461bcd60e51b815260206004820181905260248201527f4f776e61626c653a2063616c6c6572206973206e6f7420746865206f776e657260448201526064016103f9565b60026001540361144a5760405162461bcd60e51b815260206004820152601f60248201527f5265656e7472616e637947756172643a207265656e7472616e742063616c6c0060448201526064016103f9565b6002600155565b6040516001600160a01b0383166024820152604481018290526114fa9084907fa9059cbb00000000000000000000000000000000000000000000000000000000906064015b60408051601f198184030181529190526020810180517bffffffffffffffffffffffffffffffffffffffffffffffffffffffff167fffffffff00000000000000000000000000000000000000000000000000000000909316929092179091526115be565b505050565b600080546001600160a01b038381167fffffffffffffffffffffffff0000000000000000000000000000000000000000831681178455604051919092169283917f8be0079c531659141344cd1fd0a4f28419497f9722a3daafe3b4186f6b6457e09190a35050565b6040516001600160a01b03808516602483015283166044820152606481018290526115b89085907f23b872dd0000000000000000000000000000000000000000000000000000000090608401611496565b50505050565b6000611613826040518060400160405280602081526020017f5361666545524332303a206c6f772d6c6576656c2063616c6c206661696c6564815250856001600160a01b03166116a69092919063ffffffff16565b90508051600014806116345750808060200190518101906116349190611a88565b6114fa5760405162461bcd60e51b815260206004820152602a60248201527f5361666545524332303a204552433230206f7065726174696f6e20646964206e60448201527f6f7420737563636565640000000000000000000000000000000000000000000060648201526084016103f9565b60606116b584846000856116bd565b949350505050565b6060824710156117355760405162461bcd60e51b815260206004820152602660248201527f416464726573733a20696e73756666696369656e742062616c616e636520666f60448201527f722063616c6c000000000000000000000000000000000000000000000000000060648201526084016103f9565b600080866001600160a01b031685876040516117519190611ac9565b60006040518083038185875af1925050503d806000811461178e576040519150601f19603f3d011682016040523d82523d6000602084013e611793565b606091505b50915091506117a4878383876117af565b979650505050505050565b6060831561181e578251600003611817576001600160a01b0385163b6118175760405162461bcd60e51b815260206004820152601d60248201527f416464726573733a2063616c6c20746f206e6f6e2d636f6e747261637400000060448201526064016103f9565b50816116b5565b6116b583838151156118335781518083602001fd5b8060405162461bcd60e51b81526004016103f99190611ae5565b60006020828403121561185f57600080fd5b5035919050565b6000806000806080858703121561187c57600080fd5b5050823594602084013594506040840135936060013592509050565b80151581146106a057600080fd5b600080604083850312156118b957600080fd5b8235915060208301356118cb81611898565b809150509250929050565b80356001600160a01b03811681146118ed57600080fd5b919050565b60006020828403121561190457600080fd5b61190d826118d6565b9392505050565b6000806040838503121561192757600080fd5b50508035926020909101359150565b602080825282518282018190526000919060409081850190868401855b828110156119975781518051855286810151878601528581015186860152606080820151908601526080908101519085015260a09093019290850190600101611953565b5091979650505050505050565b600080604083850312156119b757600080fd5b6119c0836118d6565b946020939093013593505050565b634e487b7160e01b600052601160045260246000fd5b6000600182016119f6576119f66119ce565b5060010190565b634e487b7160e01b600052603260045260246000fd5b808201808211156112fe576112fe6119ce565b818103818111156112fe576112fe6119ce565b634e487b7160e01b600052603160045260246000fd5b80820281158282048414176112fe576112fe6119ce565b600082611a8357634e487b7160e01b600052601260045260246000fd5b500490565b600060208284031215611a9a57600080fd5b815161190d81611898565b60005b83811015611ac0578181015183820152602001611aa8565b50506000910152565b60008251611adb818460208701611aa5565b9190910192915050565b6020815260008251806020840152611b04816040850160208701611aa5565b601f01601f1916919091016040019291505056fea2646970667358221220eaf238c81efe198183d99d4456fe3bb609102484c9387cb2cb03f63de2527f1264736f6c63430008130033","opcodes":"PUSH1 0x80 PUSH1 0x40 MSTORE CALLVALUE DUP1 ISZERO PUSH3 0x11 JUMPI PUSH1 0x0 DUP1 REVERT JUMPDEST POP PUSH1 0x40 MLOAD PUSH3 0x1C88 CODESIZE SUB DUP1 PUSH3 0x1C88 DUP4 CODECOPY DUP2 ADD PUSH1 0x40 DUP2 SWAP1 MSTORE PUSH3 0x34 SWAP2 PUSH3 0xE9 JUMP JUMPDEST PUSH3 0x3F CALLER PUSH3 0x7C JUMP JUMPDEST PUSH1 0x1 DUP1 SSTORE PUSH1 0x2 DUP1 SLOAD PUSH1 0x1 PUSH1 0x1 PUSH1 0xA0 SHL SUB SWAP5 DUP6 AND PUSH1 0x1 PUSH1 0x1 PUSH1 0xA0 SHL SUB NOT SWAP2 DUP3 AND OR SWAP1 SWAP2 SSTORE PUSH1 0x3 DUP1 SLOAD SWAP4 SWAP1 SWAP5 AND SWAP3 AND SWAP2 SWAP1 SWAP2 OR SWAP1 SWAP2 SSTORE PUSH1 0x4 SSTORE PUSH3 0x12A JUMP JUMPDEST PUSH1 0x0 DUP1 SLOAD PUSH1 0x1 PUSH1 0x1 PUSH1 0xA0 SHL SUB DUP4 DUP2 AND PUSH1 0x1 PUSH1 0x1 PUSH1 0xA0 SHL SUB NOT DUP4 AND DUP2 OR DUP5 SSTORE PUSH1 0x40 MLOAD SWAP2 SWAP1 SWAP3 AND SWAP3 DUP4 SWAP2 PUSH32 0x8BE0079C531659141344CD1FD0A4F28419497F9722A3DAAFE3B4186F6B6457E0 SWAP2 SWAP1 LOG3 POP POP JUMP JUMPDEST DUP1 MLOAD PUSH1 0x1 PUSH1 0x1 PUSH1 0xA0 SHL SUB DUP2 AND DUP2 EQ PUSH3 0xE4 JUMPI PUSH1 0x0 DUP1 REVERT JUMPDEST SWAP2 SWAP1 POP JUMP JUMPDEST PUSH1 0x0 DUP1 PUSH1 0x0 PUSH1 0x60 DUP5 DUP7 SUB SLT ISZERO PUSH3 0xFF JUMPI PUSH1 0x0 DUP1 REVERT JUMPDEST PUSH3 0x10A DUP5 PUSH3 0xCC JUMP JUMPDEST SWAP3 POP PUSH3 0x11A PUSH1 0x20 DUP6 ADD PUSH3 0xCC JUMP JUMPDEST SWAP2 POP PUSH1 0x40 DUP5 ADD MLOAD SWAP1 POP SWAP3 POP SWAP3 POP SWAP3 JUMP JUMPDEST PUSH2 0x1B4E DUP1 PUSH3 0x13A PUSH1 0x0 CODECOPY PUSH1 0x0 RETURN INVALID PUSH1 0x80 PUSH1 0x40 MSTORE CALLVALUE DUP1 ISZERO PUSH2 0x10 JUMPI PUSH1 0x0 DUP1 REVERT JUMPDEST POP PUSH1 0x4 CALLDATASIZE LT PUSH2 0x177 JUMPI PUSH1 0x0 CALLDATALOAD PUSH1 0xE0 SHR DUP1 PUSH4 0x817B1CD2 GT PUSH2 0xD8 JUMPI DUP1 PUSH4 0xAFBF3440 GT PUSH2 0x8C JUMPI DUP1 PUSH4 0xF0A9ABE7 GT PUSH2 0x66 JUMPI DUP1 PUSH4 0xF0A9ABE7 EQ PUSH2 0x36D JUMPI DUP1 PUSH4 0xF2FDE38B EQ PUSH2 0x380 JUMPI DUP1 PUSH4 0xF7C618C1 EQ PUSH2 0x393 JUMPI PUSH1 0x0 DUP1 REVERT JUMPDEST DUP1 PUSH4 0xAFBF3440 EQ PUSH2 0x316 JUMPI DUP1 PUSH4 0xB5D5B5FA EQ PUSH2 0x31F JUMPI DUP1 PUSH4 0xBEB8314C EQ PUSH2 0x35A JUMPI PUSH1 0x0 DUP1 REVERT JUMPDEST DUP1 PUSH4 0x8DA5CB5B GT PUSH2 0xBD JUMPI DUP1 PUSH4 0x8DA5CB5B EQ PUSH2 0x2E9 JUMPI DUP1 PUSH4 0x93707A19 EQ PUSH2 0x2FA JUMPI DUP1 PUSH4 0x96B55F7D EQ PUSH2 0x30D JUMPI PUSH1 0x0 DUP1 REVERT JUMPDEST DUP1 PUSH4 0x817B1CD2 EQ PUSH2 0x2C0 JUMPI DUP1 PUSH4 0x842E2981 EQ PUSH2 0x2C9 JUMPI PUSH1 0x0 DUP1 REVERT JUMPDEST DUP1 PUSH4 0x3A107739 GT PUSH2 0x12F JUMPI DUP1 PUSH4 0x715018A6 GT PUSH2 0x114 JUMPI DUP1 PUSH4 0x715018A6 EQ PUSH2 0x27A JUMPI DUP1 PUSH4 0x72F702F3 EQ PUSH2 0x282 JUMPI DUP1 PUSH4 0x7B0472F0 EQ PUSH2 0x2AD JUMPI PUSH1 0x0 DUP1 REVERT JUMPDEST DUP1 PUSH4 0x3A107739 EQ PUSH2 0x239 JUMPI DUP1 PUSH4 0x5312EA8E EQ PUSH2 0x267 JUMPI PUSH1 0x0 DUP1 REVERT JUMPDEST DUP1 PUSH4 0x962EF79 GT PUSH2 0x160 JUMPI DUP1 PUSH4 0x962EF79 EQ PUSH2 0x200 JUMPI DUP1 PUSH4 0x1EBB4FDC EQ PUSH2 0x213 JUMPI DUP1 PUSH4 0x25D5971F EQ PUSH2 0x226 JUMPI PUSH1 0x0 DUP1 REVERT JUMPDEST DUP1 PUSH4 0x39AF9EB EQ PUSH2 0x17C JUMPI DUP1 PUSH4 0x7738AF8 EQ PUSH2 0x1EB JUMPI JUMPDEST PUSH1 0x0 DUP1 REVERT JUMPDEST PUSH2 0x1BC PUSH2 0x18A CALLDATASIZE PUSH1 0x4 PUSH2 0x184D JUMP JUMPDEST PUSH1 0x6 PUSH1 0x20 MSTORE PUSH1 0x0 SWAP1 DUP2 MSTORE PUSH1 0x40 SWAP1 KECCAK256 DUP1 SLOAD PUSH1 0x1 DUP3 ADD SLOAD PUSH1 0x2 DUP4 ADD SLOAD PUSH1 0x3 DUP5 ADD SLOAD PUSH1 0x4 SWAP1 SWAP5 ADD SLOAD SWAP3 SWAP4 SWAP2 SWAP3 SWAP1 SWAP2 SWAP1 PUSH1 0xFF AND DUP6 JUMP JUMPDEST PUSH1 0x40 DUP1 MLOAD SWAP6 DUP7 MSTORE PUSH1 0x20 DUP7 ADD SWAP5 SWAP1 SWAP5 MSTORE SWAP3 DUP5 ADD SWAP2 SWAP1 SWAP2 MSTORE PUSH1 0x60 DUP4 ADD MSTORE ISZERO ISZERO PUSH1 0x80 DUP3 ADD MSTORE PUSH1 0xA0 ADD JUMPDEST PUSH1 0x40 MLOAD DUP1 SWAP2 SUB SWAP1 RETURN JUMPDEST PUSH2 0x1FE PUSH2 0x1F9 CALLDATASIZE PUSH1 0x4 PUSH2 0x1866 JUMP JUMPDEST PUSH2 0x3A6 JUMP JUMPDEST STOP JUMPDEST PUSH2 0x1FE PUSH2 0x20E CALLDATASIZE PUSH1 0x4 PUSH2 0x184D JUMP JUMPDEST PUSH2 0x51F JUMP JUMPDEST PUSH2 0x1FE PUSH2 0x221 CALLDATASIZE PUSH1 0x4 PUSH2 0x18A6 JUMP JUMPDEST PUSH2 0x6A3 JUMP JUMPDEST PUSH2 0x1FE PUSH2 0x234 CALLDATASIZE PUSH1 0x4 PUSH2 0x184D JUMP JUMPDEST PUSH2 0x752 JUMP JUMPDEST PUSH2 0x259 PUSH2 0x247 CALLDATASIZE PUSH1 0x4 PUSH2 0x18F2 JUMP JUMPDEST PUSH1 0x9 PUSH1 0x20 MSTORE PUSH1 0x0 SWAP1 DUP2 MSTORE PUSH1 0x40 SWAP1 KECCAK256 SLOAD DUP2 JUMP JUMPDEST PUSH1 0x40 MLOAD SWAP1 DUP2 MSTORE PUSH1 0x20 ADD PUSH2 0x1E2 JUMP JUMPDEST PUSH2 0x1FE PUSH2 0x275 CALLDATASIZE PUSH1 0x4 PUSH2 0x184D JUMP JUMPDEST PUSH2 0xA97 JUMP JUMPDEST PUSH2 0x1FE PUSH2 0xCB2 JUMP JUMPDEST PUSH1 0x2 SLOAD PUSH2 0x295 SWAP1 PUSH1 0x1 PUSH1 0x1 PUSH1 0xA0 SHL SUB AND DUP2 JUMP JUMPDEST PUSH1 0x40 MLOAD PUSH1 0x1 PUSH1 0x1 PUSH1 0xA0 SHL SUB SWAP1 SWAP2 AND DUP2 MSTORE PUSH1 0x20 ADD PUSH2 0x1E2 JUMP JUMPDEST PUSH2 0x1FE PUSH2 0x2BB CALLDATASIZE PUSH1 0x4 PUSH2 0x1914 JUMP JUMPDEST PUSH2 0xCC6 JUMP JUMPDEST PUSH2 0x259 PUSH1 0x5 SLOAD DUP2 JUMP JUMPDEST PUSH2 0x2DC PUSH2 0x2D7 CALLDATASIZE PUSH1 0x4 PUSH2 0x18F2 JUMP JUMPDEST PUSH2 0x10A3 JUMP JUMPDEST PUSH1 0x40 MLOAD PUSH2 0x1E2 SWAP2 SWAP1 PUSH2 0x1936 JUMP JUMPDEST PUSH1 0x0 SLOAD PUSH1 0x1 PUSH1 0x1 PUSH1 0xA0 SHL SUB AND PUSH2 0x295 JUMP JUMPDEST PUSH2 0x1FE PUSH2 0x308 CALLDATASIZE PUSH1 0x4 PUSH2 0x184D JUMP JUMPDEST PUSH2 0x114A JUMP JUMPDEST PUSH2 0x259 PUSH1 0x7 SLOAD DUP2 JUMP JUMPDEST PUSH2 0x259 PUSH1 0x4 SLOAD DUP2 JUMP JUMPDEST PUSH2 0x332 PUSH2 0x32D CALLDATASIZE PUSH1 0x4 PUSH2 0x19A4 JUMP JUMPDEST PUSH2 0x116A JUMP JUMPDEST PUSH1 0x40 DUP1 MLOAD SWAP6 DUP7 MSTORE PUSH1 0x20 DUP7 ADD SWAP5 SWAP1 SWAP5 MSTORE SWAP3 DUP5 ADD SWAP2 SWAP1 SWAP2 MSTORE PUSH1 0x60 DUP4 ADD MSTORE PUSH1 0x80 DUP3 ADD MSTORE PUSH1 0xA0 ADD PUSH2 0x1E2 JUMP JUMPDEST PUSH2 0x259 PUSH2 0x368 CALLDATASIZE PUSH1 0x4 PUSH2 0x19A4 JUMP JUMPDEST PUSH2 0x11B8 JUMP JUMPDEST PUSH2 0x1FE PUSH2 0x37B CALLDATASIZE PUSH1 0x4 PUSH2 0x184D JUMP JUMPDEST PUSH2 0x1304 JUMP JUMPDEST PUSH2 0x1FE PUSH2 0x38E CALLDATASIZE PUSH1 0x4 PUSH2 0x18F2 JUMP JUMPDEST PUSH2 0x1311 JUMP JUMPDEST PUSH1 0x3 SLOAD PUSH2 0x295 SWAP1 PUSH1 0x1 PUSH1 0x1 PUSH1 0xA0 SHL SUB AND DUP2 JUMP JUMPDEST PUSH2 0x3AE PUSH2 0x139E JUMP JUMPDEST DUP3 DUP5 LT PUSH2 0x402 JUMPI PUSH1 0x40 MLOAD PUSH3 0x461BCD PUSH1 0xE5 SHL DUP2 MSTORE PUSH1 0x20 PUSH1 0x4 DUP3 ADD MSTORE PUSH1 0xF PUSH1 0x24 DUP3 ADD MSTORE PUSH32 0x496E76616C696420616D6F756E74730000000000000000000000000000000000 PUSH1 0x44 DUP3 ADD MSTORE PUSH1 0x64 ADD JUMPDEST PUSH1 0x40 MLOAD DUP1 SWAP2 SUB SWAP1 REVERT JUMPDEST PUSH1 0x0 DUP3 GT PUSH2 0x452 JUMPI PUSH1 0x40 MLOAD PUSH3 0x461BCD PUSH1 0xE5 SHL DUP2 MSTORE PUSH1 0x20 PUSH1 0x4 DUP3 ADD MSTORE PUSH1 0x12 PUSH1 0x24 DUP3 ADD MSTORE PUSH32 0x496E76616C6964206D756C7469706C6965720000000000000000000000000000 PUSH1 0x44 DUP3 ADD MSTORE PUSH1 0x64 ADD PUSH2 0x3F9 JUMP JUMPDEST PUSH1 0x7 DUP1 SLOAD SWAP1 PUSH1 0x0 PUSH2 0x462 DUP4 PUSH2 0x19E4 JUMP JUMPDEST SWAP1 SWAP2 SSTORE POP POP PUSH1 0x40 DUP1 MLOAD PUSH1 0xA0 DUP2 ADD DUP3 MSTORE DUP6 DUP2 MSTORE PUSH1 0x20 DUP1 DUP3 ADD DUP7 DUP2 MSTORE DUP3 DUP5 ADD DUP7 DUP2 MSTORE PUSH1 0x60 DUP1 DUP6 ADD DUP8 DUP2 MSTORE PUSH1 0x1 PUSH1 0x80 DUP1 DUP9 ADD DUP3 DUP2 MSTORE PUSH1 0x7 DUP1 SLOAD PUSH1 0x0 SWAP1 DUP2 MSTORE PUSH1 0x6 DUP11 MSTORE DUP12 SWAP1 KECCAK256 SWAP10 MLOAD DUP11 SSTORE SWAP7 MLOAD SWAP3 DUP10 ADD SWAP3 SWAP1 SWAP3 SSTORE SWAP4 MLOAD PUSH1 0x2 DUP9 ADD SSTORE SWAP1 MLOAD PUSH1 0x3 DUP8 ADD SSTORE MLOAD PUSH1 0x4 SWAP1 SWAP6 ADD DUP1 SLOAD PUSH1 0xFF NOT AND SWAP6 ISZERO ISZERO SWAP6 SWAP1 SWAP6 OR SWAP1 SWAP5 SSTORE SWAP1 SLOAD DUP5 MLOAD DUP10 DUP2 MSTORE SWAP3 DUP4 ADD DUP9 SWAP1 MSTORE SWAP4 DUP3 ADD DUP7 SWAP1 MSTORE SWAP2 DUP2 ADD DUP5 SWAP1 MSTORE PUSH32 0x1D87EDD766D4A80321C9B268FD614FDA07E60CDEBE8C75FA2E5FA8584DBBF90B SWAP2 ADD PUSH1 0x40 MLOAD DUP1 SWAP2 SUB SWAP1 LOG2 POP POP POP POP JUMP JUMPDEST PUSH2 0x527 PUSH2 0x13F8 JUMP JUMPDEST CALLER PUSH1 0x0 SWAP1 DUP2 MSTORE PUSH1 0x8 PUSH1 0x20 MSTORE PUSH1 0x40 SWAP1 KECCAK256 SLOAD DUP2 LT PUSH2 0x575 JUMPI PUSH1 0x40 MLOAD PUSH3 0x461BCD PUSH1 0xE5 SHL DUP2 MSTORE PUSH1 0x20 PUSH1 0x4 DUP3 ADD MSTORE PUSH1 0xD PUSH1 0x24 DUP3 ADD MSTORE PUSH13 0x496E76616C6964207374616B65 PUSH1 0x98 SHL PUSH1 0x44 DUP3 ADD MSTORE PUSH1 0x64 ADD PUSH2 0x3F9 JUMP JUMPDEST PUSH1 0x0 PUSH2 0x581 CALLER DUP4 PUSH2 0x11B8 JUMP JUMPDEST SWAP1 POP PUSH1 0x0 DUP2 GT PUSH2 0x5D3 JUMPI PUSH1 0x40 MLOAD PUSH3 0x461BCD PUSH1 0xE5 SHL DUP2 MSTORE PUSH1 0x20 PUSH1 0x4 DUP3 ADD MSTORE PUSH1 0x13 PUSH1 0x24 DUP3 ADD MSTORE PUSH32 0x4E6F207265776172647320746F20636C61696D00000000000000000000000000 PUSH1 0x44 DUP3 ADD MSTORE PUSH1 0x64 ADD PUSH2 0x3F9 JUMP JUMPDEST CALLER PUSH1 0x0 SWAP1 DUP2 MSTORE PUSH1 0x8 PUSH1 0x20 MSTORE PUSH1 0x40 SWAP1 KECCAK256 DUP1 SLOAD TIMESTAMP SWAP2 SWAP1 DUP5 SWAP1 DUP2 LT PUSH2 0x5F7 JUMPI PUSH2 0x5F7 PUSH2 0x19FD JUMP JUMPDEST PUSH1 0x0 SWAP2 DUP3 MSTORE PUSH1 0x20 DUP1 DUP4 KECCAK256 PUSH1 0x3 PUSH1 0x5 SWAP1 SWAP4 MUL ADD SWAP2 SWAP1 SWAP2 ADD SWAP3 SWAP1 SWAP3 SSTORE CALLER DUP2 MSTORE PUSH1 0x8 SWAP1 SWAP2 MSTORE PUSH1 0x40 DUP2 KECCAK256 DUP1 SLOAD DUP5 SWAP1 DUP2 LT PUSH2 0x62F JUMPI PUSH2 0x62F PUSH2 0x19FD JUMP JUMPDEST PUSH1 0x0 SWAP2 DUP3 MSTORE PUSH1 0x20 SWAP1 SWAP2 KECCAK256 PUSH1 0x4 PUSH1 0x5 SWAP1 SWAP3 MUL ADD ADD SSTORE PUSH1 0x3 SLOAD PUSH2 0x65A SWAP1 PUSH1 0x1 PUSH1 0x1 PUSH1 0xA0 SHL SUB AND CALLER DUP4 PUSH2 0x1451 JUMP JUMPDEST PUSH1 0x40 DUP1 MLOAD DUP3 DUP2 MSTORE PUSH1 0x20 DUP2 ADD DUP5 SWAP1 MSTORE CALLER SWAP2 PUSH32 0xF01DA32686223933D8A18A391060918C7F11A3648639EDD87AE013E2E2731743 SWAP2 ADD JUMPDEST PUSH1 0x40 MLOAD DUP1 SWAP2 SUB SWAP1 LOG2 POP PUSH2 0x6A0 PUSH1 0x1 DUP1 SSTORE JUMP JUMPDEST POP JUMP JUMPDEST PUSH2 0x6AB PUSH2 0x139E JUMP JUMPDEST PUSH1 0x0 DUP3 GT DUP1 ISZERO PUSH2 0x6BD JUMPI POP PUSH1 0x7 SLOAD DUP3 GT ISZERO JUMPDEST PUSH2 0x6F8 JUMPI PUSH1 0x40 MLOAD PUSH3 0x461BCD PUSH1 0xE5 SHL DUP2 MSTORE PUSH1 0x20 PUSH1 0x4 DUP3 ADD MSTORE PUSH1 0xC PUSH1 0x24 DUP3 ADD MSTORE PUSH12 0x24B73B30B634B2103A34B2B9 PUSH1 0xA1 SHL PUSH1 0x44 DUP3 ADD MSTORE PUSH1 0x64 ADD PUSH2 0x3F9 JUMP JUMPDEST PUSH1 0x0 DUP3 DUP2 MSTORE PUSH1 0x6 PUSH1 0x20 SWAP1 DUP2 MSTORE PUSH1 0x40 SWAP2 DUP3 SWAP1 KECCAK256 PUSH1 0x4 ADD DUP1 SLOAD PUSH1 0xFF NOT AND DUP5 ISZERO ISZERO SWAP1 DUP2 OR SWAP1 SWAP2 SSTORE SWAP2 MLOAD SWAP2 DUP3 MSTORE DUP4 SWAP2 PUSH32 0x8F71204AB5049511D33210DD0E3F57D281DFB0C878C1246C78BBA0E1D0ECB561 SWAP2 ADD PUSH1 0x40 MLOAD DUP1 SWAP2 SUB SWAP1 LOG2 POP POP JUMP JUMPDEST PUSH2 0x75A PUSH2 0x13F8 JUMP JUMPDEST CALLER PUSH1 0x0 SWAP1 DUP2 MSTORE PUSH1 0x8 PUSH1 0x20 MSTORE PUSH1 0x40 SWAP1 KECCAK256 SLOAD DUP2 LT PUSH2 0x7A8 JUMPI PUSH1 0x40 MLOAD PUSH3 0x461BCD PUSH1 0xE5 SHL DUP2 MSTORE PUSH1 0x20 PUSH1 0x4 DUP3 ADD MSTORE PUSH1 0xD PUSH1 0x24 DUP3 ADD MSTORE PUSH13 0x496E76616C6964207374616B65 PUSH1 0x98 SHL PUSH1 0x44 DUP3 ADD MSTORE PUSH1 0x64 ADD PUSH2 0x3F9 JUMP JUMPDEST CALLER PUSH1 0x0 SWAP1 DUP2 MSTORE PUSH1 0x8 PUSH1 0x20 MSTORE PUSH1 0x40 DUP2 KECCAK256 DUP1 SLOAD DUP4 SWAP1 DUP2 LT PUSH2 0x7C9 JUMPI PUSH2 0x7C9 PUSH2 0x19FD JUMP JUMPDEST PUSH1 0x0 SWAP2 DUP3 MSTORE PUSH1 0x20 DUP1 DUP4 KECCAK256 PUSH1 0x40 DUP1 MLOAD PUSH1 0xA0 DUP1 DUP3 ADD DUP4 MSTORE PUSH1 0x5 SWAP1 SWAP6 MUL SWAP1 SWAP3 ADD DUP1 SLOAD DUP4 MSTORE PUSH1 0x1 DUP1 DUP3 ADD SLOAD DUP5 DUP7 ADD DUP2 SWAP1 MSTORE PUSH1 0x2 DUP1 DUP5 ADD SLOAD DUP7 DUP7 ADD SWAP1 DUP2 MSTORE PUSH1 0x3 DUP1 DUP7 ADD SLOAD PUSH1 0x60 DUP1 DUP11 ADD SWAP2 SWAP1 SWAP2 MSTORE PUSH1 0x4 SWAP7 DUP8 ADD SLOAD PUSH1 0x80 DUP1 DUP12 ADD SWAP2 SWAP1 SWAP2 MSTORE SWAP5 DUP13 MSTORE PUSH1 0x6 DUP11 MSTORE SWAP11 DUP8 SWAP1 KECCAK256 DUP8 MLOAD SWAP11 DUP12 ADD DUP9 MSTORE DUP1 SLOAD DUP12 MSTORE SWAP5 DUP6 ADD SLOAD SWAP9 DUP11 ADD SWAP9 SWAP1 SWAP9 MSTORE SWAP1 DUP4 ADD SLOAD SWAP5 DUP9 ADD SWAP5 SWAP1 SWAP5 MSTORE SWAP5 DUP2 ADD SLOAD SWAP7 DUP7 ADD DUP8 SWAP1 MSTORE ADD SLOAD PUSH1 0xFF AND ISZERO ISZERO SWAP3 DUP5 ADD SWAP3 SWAP1 SWAP3 MSTORE SWAP1 MLOAD SWAP1 SWAP4 POP SWAP1 SWAP2 PUSH2 0x874 SWAP2 PUSH2 0x1A13 JUMP JUMPDEST TIMESTAMP LT ISZERO PUSH2 0x8C3 JUMPI PUSH1 0x40 MLOAD PUSH3 0x461BCD PUSH1 0xE5 SHL DUP2 MSTORE PUSH1 0x20 PUSH1 0x4 DUP3 ADD MSTORE PUSH1 0x12 PUSH1 0x24 DUP3 ADD MSTORE PUSH32 0x5374616B65207374696C6C206C6F636B65640000000000000000000000000000 PUSH1 0x44 DUP3 ADD MSTORE PUSH1 0x64 ADD PUSH2 0x3F9 JUMP JUMPDEST PUSH1 0x0 PUSH2 0x8CF CALLER DUP6 PUSH2 0x11B8 JUMP JUMPDEST SWAP1 POP DUP1 ISZERO PUSH2 0x8EE JUMPI PUSH1 0x3 SLOAD PUSH2 0x8EE SWAP1 PUSH1 0x1 PUSH1 0x1 PUSH1 0xA0 SHL SUB AND CALLER DUP4 PUSH2 0x1451 JUMP JUMPDEST DUP3 MLOAD CALLER PUSH1 0x0 SWAP1 DUP2 MSTORE PUSH1 0x9 PUSH1 0x20 MSTORE PUSH1 0x40 DUP2 KECCAK256 DUP1 SLOAD SWAP1 SWAP2 SWAP1 PUSH2 0x90F SWAP1 DUP5 SWAP1 PUSH2 0x1A26 JUMP JUMPDEST SWAP1 SWAP2 SSTORE POP POP DUP3 MLOAD PUSH1 0x5 DUP1 SLOAD PUSH1 0x0 SWAP1 PUSH2 0x928 SWAP1 DUP5 SWAP1 PUSH2 0x1A26 JUMP JUMPDEST SWAP1 SWAP2 SSTORE POP POP CALLER PUSH1 0x0 SWAP1 DUP2 MSTORE PUSH1 0x8 PUSH1 0x20 MSTORE PUSH1 0x40 SWAP1 KECCAK256 DUP1 SLOAD PUSH2 0x94A SWAP1 PUSH1 0x1 SWAP1 PUSH2 0x1A26 JUMP JUMPDEST DUP2 SLOAD DUP2 LT PUSH2 0x95A JUMPI PUSH2 0x95A PUSH2 0x19FD JUMP JUMPDEST SWAP1 PUSH1 0x0 MSTORE PUSH1 0x20 PUSH1 0x0 KECCAK256 SWAP1 PUSH1 0x5 MUL ADD PUSH1 0x8 PUSH1 0x0 CALLER PUSH1 0x1 PUSH1 0x1 PUSH1 0xA0 SHL SUB AND PUSH1 0x1 PUSH1 0x1 PUSH1 0xA0 SHL SUB AND DUP2 MSTORE PUSH1 0x20 ADD SWAP1 DUP2 MSTORE PUSH1 0x20 ADD PUSH1 0x0 KECCAK256 DUP6 DUP2 SLOAD DUP2 LT PUSH2 0x99E JUMPI PUSH2 0x99E PUSH2 0x19FD JUMP JUMPDEST PUSH1 0x0 SWAP2 DUP3 MSTORE PUSH1 0x20 DUP1 DUP4 KECCAK256 DUP5 SLOAD PUSH1 0x5 SWAP1 SWAP4 MUL ADD SWAP2 DUP3 SSTORE PUSH1 0x1 DUP1 DUP6 ADD SLOAD SWAP1 DUP4 ADD SSTORE PUSH1 0x2 DUP1 DUP6 ADD SLOAD SWAP1 DUP4 ADD SSTORE PUSH1 0x3 DUP1 DUP6 ADD SLOAD SWAP1 DUP4 ADD SSTORE PUSH1 0x4 SWAP4 DUP5 ADD SLOAD SWAP4 SWAP1 SWAP2 ADD SWAP3 SWAP1 SWAP3 SSTORE CALLER DUP2 MSTORE PUSH1 0x8 SWAP1 SWAP2 MSTORE PUSH1 0x40 SWAP1 KECCAK256 DUP1 SLOAD DUP1 PUSH2 0x9FA JUMPI PUSH2 0x9FA PUSH2 0x1A39 JUMP JUMPDEST PUSH1 0x0 DUP3 DUP2 MSTORE PUSH1 0x20 DUP2 KECCAK256 PUSH1 0x5 PUSH1 0x0 NOT SWAP1 SWAP4 ADD SWAP3 DUP4 MUL ADD DUP2 DUP2 SSTORE PUSH1 0x1 DUP2 ADD DUP3 SWAP1 SSTORE PUSH1 0x2 DUP1 DUP3 ADD DUP4 SWAP1 SSTORE PUSH1 0x3 DUP3 ADD DUP4 SWAP1 SSTORE PUSH1 0x4 SWAP1 SWAP2 ADD SWAP2 SWAP1 SWAP2 SSTORE SWAP2 SSTORE DUP4 MLOAD SWAP1 SLOAD PUSH2 0xA4E SWAP2 PUSH1 0x1 PUSH1 0x1 PUSH1 0xA0 SHL SUB SWAP1 SWAP2 AND SWAP1 CALLER SWAP1 PUSH2 0x1451 JUMP JUMPDEST DUP3 MLOAD PUSH1 0x40 DUP1 MLOAD SWAP2 DUP3 MSTORE PUSH1 0x20 DUP3 ADD DUP7 SWAP1 MSTORE CALLER SWAP2 PUSH32 0x92CCF450A286A957AF52509BC1C9939D1A6A481783E142E41E2499F0BB66EBC6 SWAP2 ADD PUSH1 0x40 MLOAD DUP1 SWAP2 SUB SWAP1 LOG2 POP POP POP PUSH2 0x6A0 PUSH1 0x1 DUP1 SSTORE JUMP JUMPDEST PUSH2 0xA9F PUSH2 0x13F8 JUMP JUMPDEST CALLER PUSH1 0x0 SWAP1 DUP2 MSTORE PUSH1 0x8 PUSH1 0x20 MSTORE PUSH1 0x40 SWAP1 KECCAK256 SLOAD DUP2 LT PUSH2 0xAED JUMPI PUSH1 0x40 MLOAD PUSH3 0x461BCD PUSH1 0xE5 SHL DUP2 MSTORE PUSH1 0x20 PUSH1 0x4 DUP3 ADD MSTORE PUSH1 0xD PUSH1 0x24 DUP3 ADD MSTORE PUSH13 0x496E76616C6964207374616B65 PUSH1 0x98 SHL PUSH1 0x44 DUP3 ADD MSTORE PUSH1 0x64 ADD PUSH2 0x3F9 JUMP JUMPDEST CALLER PUSH1 0x0 SWAP1 DUP2 MSTORE PUSH1 0x8 PUSH1 0x20 MSTORE PUSH1 0x40 DUP2 KECCAK256 DUP1 SLOAD DUP4 SWAP1 DUP2 LT PUSH2 0xB0E JUMPI PUSH2 0xB0E PUSH2 0x19FD JUMP JUMPDEST PUSH1 0x0 SWAP2 DUP3 MSTORE PUSH1 0x20 DUP1 DUP4 KECCAK256 PUSH1 0x5 SWAP1 SWAP3 MUL SWAP1 SWAP2 ADD SLOAD CALLER DUP4 MSTORE PUSH1 0x9 SWAP1 SWAP2 MSTORE PUSH1 0x40 DUP3 KECCAK256 DUP1 SLOAD SWAP2 SWAP4 POP DUP4 SWAP3 SWAP1 SWAP2 PUSH2 0xB41 SWAP1 DUP5 SWAP1 PUSH2 0x1A26 JUMP JUMPDEST SWAP3 POP POP DUP2 SWAP1 SSTORE POP DUP1 PUSH1 0x5 PUSH1 0x0 DUP3 DUP3 SLOAD PUSH2 0xB5A SWAP2 SWAP1 PUSH2 0x1A26 JUMP JUMPDEST SWAP1 SWAP2 SSTORE POP POP CALLER PUSH1 0x0 SWAP1 DUP2 MSTORE PUSH1 0x8 PUSH1 0x20 MSTORE PUSH1 0x40 SWAP1 KECCAK256 DUP1 SLOAD PUSH2 0xB7C SWAP1 PUSH1 0x1 SWAP1 PUSH2 0x1A26 JUMP JUMPDEST DUP2 SLOAD DUP2 LT PUSH2 0xB8C JUMPI PUSH2 0xB8C PUSH2 0x19FD JUMP JUMPDEST SWAP1 PUSH1 0x0 MSTORE PUSH1 0x20 PUSH1 0x0 KECCAK256 SWAP1 PUSH1 0x5 MUL ADD PUSH1 0x8 PUSH1 0x0 CALLER PUSH1 0x1 PUSH1 0x1 PUSH1 0xA0 SHL SUB AND PUSH1 0x1 PUSH1 0x1 PUSH1 0xA0 SHL SUB AND DUP2 MSTORE PUSH1 0x20 ADD SWAP1 DUP2 MSTORE PUSH1 0x20 ADD PUSH1 0x0 KECCAK256 DUP4 DUP2 SLOAD DUP2 LT PUSH2 0xBD0 JUMPI PUSH2 0xBD0 PUSH2 0x19FD JUMP JUMPDEST PUSH1 0x0 SWAP2 DUP3 MSTORE PUSH1 0x20 DUP1 DUP4 KECCAK256 DUP5 SLOAD PUSH1 0x5 SWAP1 SWAP4 MUL ADD SWAP2 DUP3 SSTORE PUSH1 0x1 DUP1 DUP6 ADD SLOAD SWAP1 DUP4 ADD SSTORE PUSH1 0x2 DUP1 DUP6 ADD SLOAD SWAP1 DUP4 ADD SSTORE PUSH1 0x3 DUP1 DUP6 ADD SLOAD SWAP1 DUP4 ADD SSTORE PUSH1 0x4 SWAP4 DUP5 ADD SLOAD SWAP4 SWAP1 SWAP2 ADD SWAP3 SWAP1 SWAP3 SSTORE CALLER DUP2 MSTORE PUSH1 0x8 SWAP1 SWAP2 MSTORE PUSH1 0x40 SWAP1 KECCAK256 DUP1 SLOAD DUP1 PUSH2 0xC2C JUMPI PUSH2 0xC2C PUSH2 0x1A39 JUMP JUMPDEST PUSH1 0x0 DUP3 DUP2 MSTORE PUSH1 0x20 DUP2 KECCAK256 PUSH1 0x5 PUSH1 0x0 NOT SWAP1 SWAP4 ADD SWAP3 DUP4 MUL ADD DUP2 DUP2 SSTORE PUSH1 0x1 DUP2 ADD DUP3 SWAP1 SSTORE PUSH1 0x2 DUP1 DUP3 ADD DUP4 SWAP1 SSTORE PUSH1 0x3 DUP3 ADD DUP4 SWAP1 SSTORE PUSH1 0x4 SWAP1 SWAP2 ADD SWAP2 SWAP1 SWAP2 SSTORE SWAP2 SSTORE SLOAD PUSH2 0xC7A SWAP1 PUSH1 0x1 PUSH1 0x1 PUSH1 0xA0 SHL SUB AND CALLER DUP4 PUSH2 0x1451 JUMP JUMPDEST PUSH1 0x40 DUP1 MLOAD DUP3 DUP2 MSTORE PUSH1 0x20 DUP2 ADD DUP5 SWAP1 MSTORE CALLER SWAP2 PUSH32 0x92CCF450A286A957AF52509BC1C9939D1A6A481783E142E41E2499F0BB66EBC6 SWAP2 ADD PUSH2 0x68E JUMP JUMPDEST PUSH2 0xCBA PUSH2 0x139E JUMP JUMPDEST PUSH2 0xCC4 PUSH1 0x0 PUSH2 0x14FF JUMP JUMPDEST JUMP JUMPDEST PUSH2 0xCCE PUSH2 0x13F8 JUMP JUMPDEST PUSH1 0x0 DUP2 GT DUP1 ISZERO PUSH2 0xCE0 JUMPI POP PUSH1 0x7 SLOAD DUP2 GT ISZERO JUMPDEST PUSH2 0xD1B JUMPI PUSH1 0x40 MLOAD PUSH3 0x461BCD PUSH1 0xE5 SHL DUP2 MSTORE PUSH1 0x20 PUSH1 0x4 DUP3 ADD MSTORE PUSH1 0xC PUSH1 0x24 DUP3 ADD MSTORE PUSH12 0x24B73B30B634B2103A34B2B9 PUSH1 0xA1 SHL PUSH1 0x44 DUP3 ADD MSTORE PUSH1 0x64 ADD PUSH2 0x3F9 JUMP JUMPDEST PUSH1 0x0 DUP2 DUP2 MSTORE PUSH1 0x6 PUSH1 0x20 SWAP1 DUP2 MSTORE PUSH1 0x40 SWAP2 DUP3 SWAP1 KECCAK256 DUP3 MLOAD PUSH1 0xA0 DUP2 ADD DUP5 MSTORE DUP2 SLOAD DUP2 MSTORE PUSH1 0x1 DUP3 ADD SLOAD SWAP3 DUP2 ADD SWAP3 SWAP1 SWAP3 MSTORE PUSH1 0x2 DUP2 ADD SLOAD SWAP3 DUP3 ADD SWAP3 SWAP1 SWAP3 MSTORE PUSH1 0x3 DUP3 ADD SLOAD PUSH1 0x60 DUP3 ADD MSTORE PUSH1 0x4 SWAP1 SWAP2 ADD SLOAD PUSH1 0xFF AND ISZERO ISZERO PUSH1 0x80 DUP3 ADD DUP2 SWAP1 MSTORE PUSH2 0xDB9 JUMPI PUSH1 0x40 MLOAD PUSH3 0x461BCD PUSH1 0xE5 SHL DUP2 MSTORE PUSH1 0x20 PUSH1 0x4 DUP3 ADD MSTORE PUSH1 0xF PUSH1 0x24 DUP3 ADD MSTORE PUSH32 0x54696572206E6F74206163746976650000000000000000000000000000000000 PUSH1 0x44 DUP3 ADD MSTORE PUSH1 0x64 ADD PUSH2 0x3F9 JUMP JUMPDEST DUP1 MLOAD DUP4 LT DUP1 ISZERO SWAP1 PUSH2 0xDCE JUMPI POP DUP1 PUSH1 0x20 ADD MLOAD DUP4 GT ISZERO JUMPDEST PUSH2 0xE1A JUMPI PUSH1 0x40 MLOAD PUSH3 0x461BCD PUSH1 0xE5 SHL DUP2 MSTORE PUSH1 0x20 PUSH1 0x4 DUP3 ADD MSTORE PUSH1 0x18 PUSH1 0x24 DUP3 ADD MSTORE PUSH32 0x416D6F756E74206E6F7420696E20746965722072616E67650000000000000000 PUSH1 0x44 DUP3 ADD MSTORE PUSH1 0x64 ADD PUSH2 0x3F9 JUMP JUMPDEST PUSH1 0x0 DUP4 GT PUSH2 0xE6A JUMPI PUSH1 0x40 MLOAD PUSH3 0x461BCD PUSH1 0xE5 SHL DUP2 MSTORE PUSH1 0x20 PUSH1 0x4 DUP3 ADD MSTORE PUSH1 0xE PUSH1 0x24 DUP3 ADD MSTORE PUSH32 0x43616E6E6F74207374616B652030000000000000000000000000000000000000 PUSH1 0x44 DUP3 ADD MSTORE PUSH1 0x64 ADD PUSH2 0x3F9 JUMP JUMPDEST PUSH1 0x0 DUP1 JUMPDEST CALLER PUSH1 0x0 SWAP1 DUP2 MSTORE PUSH1 0x8 PUSH1 0x20 MSTORE PUSH1 0x40 SWAP1 KECCAK256 SLOAD DUP2 LT ISZERO PUSH2 0xF13 JUMPI CALLER PUSH1 0x0 SWAP1 DUP2 MSTORE PUSH1 0x8 PUSH1 0x20 MSTORE PUSH1 0x40 SWAP1 KECCAK256 DUP1 SLOAD DUP6 SWAP2 SWAP1 DUP4 SWAP1 DUP2 LT PUSH2 0xEA9 JUMPI PUSH2 0xEA9 PUSH2 0x19FD JUMP JUMPDEST SWAP1 PUSH1 0x0 MSTORE PUSH1 0x20 PUSH1 0x0 KECCAK256 SWAP1 PUSH1 0x5 MUL ADD PUSH1 0x1 ADD SLOAD SUB PUSH2 0xF01 JUMPI CALLER PUSH1 0x0 SWAP1 DUP2 MSTORE PUSH1 0x8 PUSH1 0x20 MSTORE PUSH1 0x40 SWAP1 KECCAK256 DUP1 SLOAD DUP3 SWAP1 DUP2 LT PUSH2 0xEE1 JUMPI PUSH2 0xEE1 PUSH2 0x19FD JUMP JUMPDEST SWAP1 PUSH1 0x0 MSTORE PUSH1 0x20 PUSH1 0x0 KECCAK256 SWAP1 PUSH1 0x5 MUL ADD PUSH1 0x0 ADD SLOAD DUP3 PUSH2 0xEFE SWAP2 SWAP1 PUSH2 0x1A13 JUMP JUMPDEST SWAP2 POP JUMPDEST DUP1 PUSH2 0xF0B DUP2 PUSH2 0x19E4 JUMP JUMPDEST SWAP2 POP POP PUSH2 0xE6E JUMP JUMPDEST POP PUSH1 0x20 DUP3 ADD MLOAD PUSH2 0xF23 DUP6 DUP4 PUSH2 0x1A13 JUMP JUMPDEST GT ISZERO PUSH2 0xF71 JUMPI PUSH1 0x40 MLOAD PUSH3 0x461BCD PUSH1 0xE5 SHL DUP2 MSTORE PUSH1 0x20 PUSH1 0x4 DUP3 ADD MSTORE PUSH1 0x10 PUSH1 0x24 DUP3 ADD MSTORE PUSH32 0x457863656564732074696572206D617800000000000000000000000000000000 PUSH1 0x44 DUP3 ADD MSTORE PUSH1 0x64 ADD PUSH2 0x3F9 JUMP JUMPDEST CALLER PUSH1 0x0 DUP2 DUP2 MSTORE PUSH1 0x8 PUSH1 0x20 SWAP1 DUP2 MSTORE PUSH1 0x40 DUP1 DUP4 KECCAK256 DUP2 MLOAD PUSH1 0xA0 DUP2 ADD DUP4 MSTORE DUP10 DUP2 MSTORE DUP1 DUP5 ADD DUP10 DUP2 MSTORE TIMESTAMP DUP3 DUP6 ADD DUP2 DUP2 MSTORE PUSH1 0x60 DUP5 ADD SWAP2 DUP3 MSTORE PUSH1 0x80 DUP5 ADD DUP9 DUP2 MSTORE DUP6 SLOAD PUSH1 0x1 DUP2 DUP2 ADD DUP9 SSTORE SWAP7 DUP11 MSTORE DUP9 DUP11 KECCAK256 SWAP6 MLOAD PUSH1 0x5 SWAP1 SWAP2 MUL SWAP1 SWAP6 ADD SWAP5 DUP6 SSTORE SWAP3 MLOAD SWAP5 DUP5 ADD SWAP5 SWAP1 SWAP5 SSTORE SWAP3 MLOAD PUSH1 0x2 DUP4 ADD SSTORE SWAP2 MLOAD PUSH1 0x3 DUP3 ADD SSTORE SWAP1 MLOAD PUSH1 0x4 SWAP1 SWAP2 ADD SSTORE SWAP3 DUP3 MSTORE PUSH1 0x9 SWAP1 MSTORE SWAP1 DUP2 KECCAK256 DUP1 SLOAD DUP7 SWAP3 SWAP1 PUSH2 0xFFE SWAP1 DUP5 SWAP1 PUSH2 0x1A13 JUMP JUMPDEST SWAP3 POP POP DUP2 SWAP1 SSTORE POP DUP4 PUSH1 0x5 PUSH1 0x0 DUP3 DUP3 SLOAD PUSH2 0x1017 SWAP2 SWAP1 PUSH2 0x1A13 JUMP JUMPDEST SWAP1 SWAP2 SSTORE POP POP PUSH1 0x2 SLOAD PUSH2 0x1034 SWAP1 PUSH1 0x1 PUSH1 0x1 PUSH1 0xA0 SHL SUB AND CALLER ADDRESS DUP8 PUSH2 0x1567 JUMP JUMPDEST CALLER PUSH1 0x0 DUP2 DUP2 MSTORE PUSH1 0x8 PUSH1 0x20 MSTORE PUSH1 0x40 SWAP1 KECCAK256 SLOAD PUSH32 0xB4CAAF29ADDA3EEFEE3AD552A8E85058589BF834C7466CAE4EE58787F70589ED SWAP1 DUP7 SWAP1 DUP7 SWAP1 PUSH2 0x1076 SWAP1 PUSH1 0x1 SWAP1 PUSH2 0x1A26 JUMP JUMPDEST PUSH1 0x40 DUP1 MLOAD SWAP4 DUP5 MSTORE PUSH1 0x20 DUP5 ADD SWAP3 SWAP1 SWAP3 MSTORE SWAP1 DUP3 ADD MSTORE PUSH1 0x60 ADD PUSH1 0x40 MLOAD DUP1 SWAP2 SUB SWAP1 LOG2 POP POP PUSH2 0x109F PUSH1 0x1 DUP1 SSTORE JUMP JUMPDEST POP POP JUMP JUMPDEST PUSH1 0x1 PUSH1 0x1 PUSH1 0xA0 SHL SUB DUP2 AND PUSH1 0x0 SWAP1 DUP2 MSTORE PUSH1 0x8 PUSH1 0x20 SWAP1 DUP2 MSTORE PUSH1 0x40 DUP1 DUP4 KECCAK256 DUP1 SLOAD DUP3 MLOAD DUP2 DUP6 MUL DUP2 ADD DUP6 ADD SWAP1 SWAP4 MSTORE DUP1 DUP4 MSTORE PUSH1 0x60 SWAP5 SWAP3 SWAP4 SWAP2 SWAP3 SWAP1 SWAP2 DUP5 ADD JUMPDEST DUP3 DUP3 LT ISZERO PUSH2 0x113F JUMPI DUP4 DUP3 SWAP1 PUSH1 0x0 MSTORE PUSH1 0x20 PUSH1 0x0 KECCAK256 SWAP1 PUSH1 0x5 MUL ADD PUSH1 0x40 MLOAD DUP1 PUSH1 0xA0 ADD PUSH1 0x40 MSTORE SWAP1 DUP2 PUSH1 0x0 DUP3 ADD SLOAD DUP2 MSTORE PUSH1 0x20 ADD PUSH1 0x1 DUP3 ADD SLOAD DUP2 MSTORE PUSH1 0x20 ADD PUSH1 0x2 DUP3 ADD SLOAD DUP2 MSTORE PUSH1 0x20 ADD PUSH1 0x3 DUP3 ADD SLOAD DUP2 MSTORE PUSH1 0x20 ADD PUSH1 0x4 DUP3 ADD SLOAD DUP2 MSTORE POP POP DUP2 MSTORE PUSH1 0x20 ADD SWAP1 PUSH1 0x1 ADD SWAP1 PUSH2 0x10DB JUMP JUMPDEST POP POP POP POP SWAP1 POP SWAP2 SWAP1 POP JUMP JUMPDEST PUSH2 0x1152 PUSH2 0x139E JUMP JUMPDEST PUSH1 0x3 SLOAD PUSH2 0x6A0 SWAP1 PUSH1 0x1 PUSH1 0x1 PUSH1 0xA0 SHL SUB AND CALLER ADDRESS DUP5 PUSH2 0x1567 JUMP JUMPDEST PUSH1 0x8 PUSH1 0x20 MSTORE DUP2 PUSH1 0x0 MSTORE PUSH1 0x40 PUSH1 0x0 KECCAK256 DUP2 DUP2 SLOAD DUP2 LT PUSH2 0x1186 JUMPI PUSH1 0x0 DUP1 REVERT JUMPDEST PUSH1 0x0 SWAP2 DUP3 MSTORE PUSH1 0x20 SWAP1 SWAP2 KECCAK256 PUSH1 0x5 SWAP1 SWAP2 MUL ADD DUP1 SLOAD PUSH1 0x1 DUP3 ADD SLOAD PUSH1 0x2 DUP4 ADD SLOAD PUSH1 0x3 DUP5 ADD SLOAD PUSH1 0x4 SWAP1 SWAP5 ADD SLOAD SWAP3 SWAP6 POP SWAP1 SWAP4 POP SWAP2 SWAP1 DUP6 JUMP JUMPDEST PUSH1 0x1 PUSH1 0x1 PUSH1 0xA0 SHL SUB DUP3 AND PUSH1 0x0 SWAP1 DUP2 MSTORE PUSH1 0x8 PUSH1 0x20 MSTORE PUSH1 0x40 DUP2 KECCAK256 DUP1 SLOAD DUP3 SWAP2 SWAP1 DUP5 SWAP1 DUP2 LT PUSH2 0x11E5 JUMPI PUSH2 0x11E5 PUSH2 0x19FD JUMP JUMPDEST PUSH1 0x0 SWAP2 DUP3 MSTORE PUSH1 0x20 DUP1 DUP4 KECCAK256 PUSH1 0x40 DUP1 MLOAD PUSH1 0xA0 DUP1 DUP3 ADD DUP4 MSTORE PUSH1 0x5 SWAP1 SWAP6 MUL SWAP1 SWAP3 ADD DUP1 SLOAD DUP4 MSTORE PUSH1 0x1 DUP1 DUP3 ADD SLOAD DUP5 DUP7 ADD DUP2 SWAP1 MSTORE PUSH1 0x2 DUP1 DUP5 ADD SLOAD DUP7 DUP7 ADD MSTORE PUSH1 0x3 DUP1 DUP6 ADD SLOAD PUSH1 0x60 DUP1 DUP10 ADD SWAP2 DUP3 MSTORE PUSH1 0x4 SWAP7 DUP8 ADD SLOAD PUSH1 0x80 DUP1 DUP12 ADD SWAP2 SWAP1 SWAP2 MSTORE SWAP5 DUP13 MSTORE PUSH1 0x6 DUP11 MSTORE DUP8 DUP13 KECCAK256 DUP9 MLOAD SWAP12 DUP13 ADD DUP10 MSTORE DUP1 SLOAD DUP13 MSTORE SWAP6 DUP7 ADD SLOAD SWAP10 DUP12 ADD SWAP10 SWAP1 SWAP10 MSTORE SWAP2 DUP5 ADD SLOAD SWAP6 DUP10 ADD SWAP6 SWAP1 SWAP6 MSTORE SWAP4 DUP3 ADD SLOAD SWAP6 DUP8 ADD SWAP6 SWAP1 SWAP6 MSTORE ADD SLOAD PUSH1 0xFF AND ISZERO ISZERO SWAP3 DUP5 ADD SWAP3 SWAP1 SWAP3 MSTORE SWAP1 MLOAD SWAP1 SWAP4 POP SWAP1 SWAP2 SWAP1 PUSH2 0x128F SWAP1 TIMESTAMP PUSH2 0x1A26 JUMP JUMPDEST SWAP1 POP PUSH1 0x0 PUSH8 0xDE0B6B3A7640000 DUP3 PUSH1 0x4 SLOAD DUP7 PUSH1 0x0 ADD MLOAD PUSH2 0x12AF SWAP2 SWAP1 PUSH2 0x1A4F JUMP JUMPDEST PUSH2 0x12B9 SWAP2 SWAP1 PUSH2 0x1A4F JUMP JUMPDEST PUSH2 0x12C3 SWAP2 SWAP1 PUSH2 0x1A66 JUMP JUMPDEST SWAP1 POP PUSH1 0x0 PUSH2 0x2710 DUP5 PUSH1 0x40 ADD MLOAD DUP4 PUSH2 0x12DA SWAP2 SWAP1 PUSH2 0x1A4F JUMP JUMPDEST PUSH2 0x12E4 SWAP2 SWAP1 PUSH2 0x1A66 JUMP JUMPDEST SWAP1 POP DUP5 PUSH1 0x80 ADD MLOAD DUP2 PUSH2 0x12F6 SWAP2 SWAP1 PUSH2 0x1A13 JUMP JUMPDEST SWAP6 POP POP POP POP POP POP JUMPDEST SWAP3 SWAP2 POP POP JUMP JUMPDEST PUSH2 0x130C PUSH2 0x139E JUMP JUMPDEST PUSH1 0x4 SSTORE JUMP JUMPDEST PUSH2 0x1319 PUSH2 0x139E JUMP JUMPDEST PUSH1 0x1 PUSH1 0x1 PUSH1 0xA0 SHL SUB DUP2 AND PUSH2 0x1395 JUMPI PUSH1 0x40 MLOAD PUSH3 0x461BCD PUSH1 0xE5 SHL DUP2 MSTORE PUSH1 0x20 PUSH1 0x4 DUP3 ADD MSTORE PUSH1 0x26 PUSH1 0x24 DUP3 ADD MSTORE PUSH32 0x4F776E61626C653A206E6577206F776E657220697320746865207A65726F2061 PUSH1 0x44 DUP3 ADD MSTORE PUSH32 0x6464726573730000000000000000000000000000000000000000000000000000 PUSH1 0x64 DUP3 ADD MSTORE PUSH1 0x84 ADD PUSH2 0x3F9 JUMP JUMPDEST PUSH2 0x6A0 DUP2 PUSH2 0x14FF JUMP JUMPDEST PUSH1 0x0 SLOAD PUSH1 0x1 PUSH1 0x1 PUSH1 0xA0 SHL SUB AND CALLER EQ PUSH2 0xCC4 JUMPI PUSH1 0x40 MLOAD PUSH3 0x461BCD PUSH1 0xE5 SHL DUP2 MSTORE PUSH1 0x20 PUSH1 0x4 DUP3 ADD DUP2 SWAP1 MSTORE PUSH1 0x24 DUP3 ADD MSTORE PUSH32 0x4F776E61626C653A2063616C6C6572206973206E6F7420746865206F776E6572 PUSH1 0x44 DUP3 ADD MSTORE PUSH1 0x64 ADD PUSH2 0x3F9 JUMP JUMPDEST PUSH1 0x2 PUSH1 0x1 SLOAD SUB PUSH2 0x144A JUMPI PUSH1 0x40 MLOAD PUSH3 0x461BCD PUSH1 0xE5 SHL DUP2 MSTORE PUSH1 0x20 PUSH1 0x4 DUP3 ADD MSTORE PUSH1 0x1F PUSH1 0x24 DUP3 ADD MSTORE PUSH32 0x5265656E7472616E637947756172643A207265656E7472616E742063616C6C00 PUSH1 0x44 DUP3 ADD MSTORE PUSH1 0x64 ADD PUSH2 0x3F9 JUMP JUMPDEST PUSH1 0x2 PUSH1 0x1 SSTORE JUMP JUMPDEST PUSH1 0x40 MLOAD PUSH1 0x1 PUSH1 0x1 PUSH1 0xA0 SHL SUB DUP4 AND PUSH1 0x24 DUP3 ADD MSTORE PUSH1 0x44 DUP2 ADD DUP3 SWAP1 MSTORE PUSH2 0x14FA SWAP1 DUP5 SWAP1 PUSH32 0xA9059CBB00000000000000000000000000000000000000000000000000000000 SWAP1 PUSH1 0x64 ADD JUMPDEST PUSH1 0x40 DUP1 MLOAD PUSH1 0x1F NOT DUP2 DUP5 SUB ADD DUP2 MSTORE SWAP2 SWAP1 MSTORE PUSH1 0x20 DUP2 ADD DUP1 MLOAD PUSH28 0xFFFFFFFFFFFFFFFFFFFFFFFFFFFFFFFFFFFFFFFFFFFFFFFFFFFFFFFF AND PUSH32 0xFFFFFFFF00000000000000000000000000000000000000000000000000000000 SWAP1 SWAP4 AND SWAP3 SWAP1 SWAP3 OR SWAP1 SWAP2 MSTORE PUSH2 0x15BE JUMP JUMPDEST POP POP POP JUMP JUMPDEST PUSH1 0x0 DUP1 SLOAD PUSH1 0x1 PUSH1 0x1 PUSH1 0xA0 SHL SUB DUP4 DUP2 AND PUSH32 0xFFFFFFFFFFFFFFFFFFFFFFFF0000000000000000000000000000000000000000 DUP4 AND DUP2 OR DUP5 SSTORE PUSH1 0x40 MLOAD SWAP2 SWAP1 SWAP3 AND SWAP3 DUP4 SWAP2 PUSH32 0x8BE0079C531659141344CD1FD0A4F28419497F9722A3DAAFE3B4186F6B6457E0 SWAP2 SWAP1 LOG3 POP POP JUMP JUMPDEST PUSH1 0x40 MLOAD PUSH1 0x1 PUSH1 0x1 PUSH1 0xA0 SHL SUB DUP1 DUP6 AND PUSH1 0x24 DUP4 ADD MSTORE DUP4 AND PUSH1 0x44 DUP3 ADD MSTORE PUSH1 0x64 DUP2 ADD DUP3 SWAP1 MSTORE PUSH2 0x15B8 SWAP1 DUP6 SWAP1 PUSH32 0x23B872DD00000000000000000000000000000000000000000000000000000000 SWAP1 PUSH1 0x84 ADD PUSH2 0x1496 JUMP JUMPDEST POP POP POP POP JUMP JUMPDEST PUSH1 0x0 PUSH2 0x1613 DUP3 PUSH1 0x40 MLOAD DUP1 PUSH1 0x40 ADD PUSH1 0x40 MSTORE DUP1 PUSH1 0x20 DUP2 MSTORE PUSH1 0x20 ADD PUSH32 0x5361666545524332303A206C6F772D6C6576656C2063616C6C206661696C6564 DUP2 MSTORE POP DUP6 PUSH1 0x1 PUSH1 0x1 PUSH1 0xA0 SHL SUB AND PUSH2 0x16A6 SWAP1 SWAP3 SWAP2 SWAP1 PUSH4 0xFFFFFFFF AND JUMP JUMPDEST SWAP1 POP DUP1 MLOAD PUSH1 0x0 EQ DUP1 PUSH2 0x1634 JUMPI POP DUP1 DUP1 PUSH1 0x20 ADD SWAP1 MLOAD DUP2 ADD SWAP1 PUSH2 0x1634 SWAP2 SWAP1 PUSH2 0x1A88 JUMP JUMPDEST PUSH2 0x14FA JUMPI PUSH1 0x40 MLOAD PUSH3 0x461BCD PUSH1 0xE5 SHL DUP2 MSTORE PUSH1 0x20 PUSH1 0x4 DUP3 ADD MSTORE PUSH1 0x2A PUSH1 0x24 DUP3 ADD MSTORE PUSH32 0x5361666545524332303A204552433230206F7065726174696F6E20646964206E PUSH1 0x44 DUP3 ADD MSTORE PUSH32 0x6F74207375636365656400000000000000000000000000000000000000000000 PUSH1 0x64 DUP3 ADD MSTORE PUSH1 0x84 ADD PUSH2 0x3F9 JUMP JUMPDEST PUSH1 0x60 PUSH2 0x16B5 DUP5 DUP5 PUSH1 0x0 DUP6 PUSH2 0x16BD JUMP JUMPDEST SWAP5 SWAP4 POP POP POP POP JUMP JUMPDEST PUSH1 0x60 DUP3 SELFBALANCE LT ISZERO PUSH2 0x1735 JUMPI PUSH1 0x40 MLOAD PUSH3 0x461BCD PUSH1 0xE5 SHL DUP2 MSTORE PUSH1 0x20 PUSH1 0x4 DUP3 ADD MSTORE PUSH1 0x26 PUSH1 0x24 DUP3 ADD MSTORE PUSH32 0x416464726573733A20696E73756666696369656E742062616C616E636520666F PUSH1 0x44 DUP3 ADD MSTORE PUSH32 0x722063616C6C0000000000000000000000000000000000000000000000000000 PUSH1 0x64 DUP3 ADD MSTORE PUSH1 0x84 ADD PUSH2 0x3F9 JUMP JUMPDEST PUSH1 0x0 DUP1 DUP7 PUSH1 0x1 PUSH1 0x1 PUSH1 0xA0 SHL SUB AND DUP6 DUP8 PUSH1 0x40 MLOAD PUSH2 0x1751 SWAP2 SWAP1 PUSH2 0x1AC9 JUMP JUMPDEST PUSH1 0x0 PUSH1 0x40 MLOAD DUP1 DUP4 SUB DUP2 DUP6 DUP8 GAS CALL SWAP3 POP POP POP RETURNDATASIZE DUP1 PUSH1 0x0 DUP2 EQ PUSH2 0x178E JUMPI PUSH1 0x40 MLOAD SWAP2 POP PUSH1 0x1F NOT PUSH1 0x3F RETURNDATASIZE ADD AND DUP3 ADD PUSH1 0x40 MSTORE RETURNDATASIZE DUP3 MSTORE RETURNDATASIZE PUSH1 0x0 PUSH1 0x20 DUP5 ADD RETURNDATACOPY PUSH2 0x1793 JUMP JUMPDEST PUSH1 0x60 SWAP2 POP JUMPDEST POP SWAP2 POP SWAP2 POP PUSH2 0x17A4 DUP8 DUP4 DUP4 DUP8 PUSH2 0x17AF JUMP JUMPDEST SWAP8 SWAP7 POP POP POP POP POP POP POP JUMP JUMPDEST PUSH1 0x60 DUP4 ISZERO PUSH2 0x181E JUMPI DUP3 MLOAD PUSH1 0x0 SUB PUSH2 0x1817 JUMPI PUSH1 0x1 PUSH1 0x1 PUSH1 0xA0 SHL SUB DUP6 AND EXTCODESIZE PUSH2 0x1817 JUMPI PUSH1 0x40 MLOAD PUSH3 0x461BCD PUSH1 0xE5 SHL DUP2 MSTORE PUSH1 0x20 PUSH1 0x4 DUP3 ADD MSTORE PUSH1 0x1D PUSH1 0x24 DUP3 ADD MSTORE PUSH32 0x416464726573733A2063616C6C20746F206E6F6E2D636F6E7472616374000000 PUSH1 0x44 DUP3 ADD MSTORE PUSH1 0x64 ADD PUSH2 0x3F9 JUMP JUMPDEST POP DUP2 PUSH2 0x16B5 JUMP JUMPDEST PUSH2 0x16B5 DUP4 DUP4 DUP2 MLOAD ISZERO PUSH2 0x1833 JUMPI DUP2 MLOAD DUP1 DUP4 PUSH1 0x20 ADD REVERT JUMPDEST DUP1 PUSH1 0x40 MLOAD PUSH3 0x461BCD PUSH1 0xE5 SHL DUP2 MSTORE PUSH1 0x4 ADD PUSH2 0x3F9 SWAP2 SWAP1 PUSH2 0x1AE5 JUMP JUMPDEST PUSH1 0x0 PUSH1 0x20 DUP3 DUP5 SUB SLT ISZERO PUSH2 0x185F JUMPI PUSH1 0x0 DUP1 REVERT JUMPDEST POP CALLDATALOAD SWAP2 SWAP1 POP JUMP JUMPDEST PUSH1 0x0 DUP1 PUSH1 0x0 DUP1 PUSH1 0x80 DUP6 DUP8 SUB SLT ISZERO PUSH2 0x187C JUMPI PUSH1 0x0 DUP1 REVERT JUMPDEST POP POP DUP3 CALLDATALOAD SWAP5 PUSH1 0x20 DUP5 ADD CALLDATALOAD SWAP5 POP PUSH1 0x40 DUP5 ADD CALLDATALOAD SWAP4 PUSH1 0x60 ADD CALLDATALOAD SWAP3 POP SWAP1 POP JUMP JUMPDEST DUP1 ISZERO ISZERO DUP2 EQ PUSH2 0x6A0 JUMPI PUSH1 0x0 DUP1 REVERT JUMPDEST PUSH1 0x0 DUP1 PUSH1 0x40 DUP4 DUP6 SUB SLT ISZERO PUSH2 0x18B9 JUMPI PUSH1 0x0 DUP1 REVERT JUMPDEST DUP3 CALLDATALOAD SWAP2 POP PUSH1 0x20 DUP4 ADD CALLDATALOAD PUSH2 0x18CB DUP2 PUSH2 0x1898 JUMP JUMPDEST DUP1 SWAP2 POP POP SWAP3 POP SWAP3 SWAP1 POP JUMP JUMPDEST DUP1 CALLDATALOAD PUSH1 0x1 PUSH1 0x1 PUSH1 0xA0 SHL SUB DUP2 AND DUP2 EQ PUSH2 0x18ED JUMPI PUSH1 0x0 DUP1 REVERT JUMPDEST SWAP2 SWAP1 POP JUMP JUMPDEST PUSH1 0x0 PUSH1 0x20 DUP3 DUP5 SUB SLT ISZERO PUSH2 0x1904 JUMPI PUSH1 0x0 DUP1 REVERT JUMPDEST PUSH2 0x190D DUP3 PUSH2 0x18D6 JUMP JUMPDEST SWAP4 SWAP3 POP POP POP JUMP JUMPDEST PUSH1 0x0 DUP1 PUSH1 0x40 DUP4 DUP6 SUB SLT ISZERO PUSH2 0x1927 JUMPI PUSH1 0x0 DUP1 REVERT JUMPDEST POP POP DUP1 CALLDATALOAD SWAP3 PUSH1 0x20 SWAP1 SWAP2 ADD CALLDATALOAD SWAP2 POP JUMP JUMPDEST PUSH1 0x20 DUP1 DUP3 MSTORE DUP3 MLOAD DUP3 DUP3 ADD DUP2 SWAP1 MSTORE PUSH1 0x0 SWAP2 SWAP1 PUSH1 0x40 SWAP1 DUP2 DUP6 ADD SWAP1 DUP7 DUP5 ADD DUP6 JUMPDEST DUP3 DUP2 LT ISZERO PUSH2 0x1997 JUMPI DUP2 MLOAD DUP1 MLOAD DUP6 MSTORE DUP7 DUP2 ADD MLOAD DUP8 DUP7 ADD MSTORE DUP6 DUP2 ADD MLOAD DUP7 DUP7 ADD MSTORE PUSH1 0x60 DUP1 DUP3 ADD MLOAD SWAP1 DUP7 ADD MSTORE PUSH1 0x80 SWAP1 DUP2 ADD MLOAD SWAP1 DUP6 ADD MSTORE PUSH1 0xA0 SWAP1 SWAP4 ADD SWAP3 SWAP1 DUP6 ADD SWAP1 PUSH1 0x1 ADD PUSH2 0x1953 JUMP JUMPDEST POP SWAP2 SWAP8 SWAP7 POP POP POP POP POP POP POP JUMP JUMPDEST PUSH1 0x0 DUP1 PUSH1 0x40 DUP4 DUP6 SUB SLT ISZERO PUSH2 0x19B7 JUMPI PUSH1 0x0 DUP1 REVERT JUMPDEST PUSH2 0x19C0 DUP4 PUSH2 0x18D6 JUMP JUMPDEST SWAP5 PUSH1 0x20 SWAP4 SWAP1 SWAP4 ADD CALLDATALOAD SWAP4 POP POP POP JUMP JUMPDEST PUSH4 0x4E487B71 PUSH1 0xE0 SHL PUSH1 0x0 MSTORE PUSH1 0x11 PUSH1 0x4 MSTORE PUSH1 0x24 PUSH1 0x0 REVERT JUMPDEST PUSH1 0x0 PUSH1 0x1 DUP3 ADD PUSH2 0x19F6 JUMPI PUSH2 0x19F6 PUSH2 0x19CE JUMP JUMPDEST POP PUSH1 0x1 ADD SWAP1 JUMP JUMPDEST PUSH4 0x4E487B71 PUSH1 0xE0 SHL PUSH1 0x0 MSTORE PUSH1 0x32 PUSH1 0x4 MSTORE PUSH1 0x24 PUSH1 0x0 REVERT JUMPDEST DUP1 DUP3 ADD DUP1 DUP3 GT ISZERO PUSH2 0x12FE JUMPI PUSH2 0x12FE PUSH2 0x19CE JUMP JUMPDEST DUP2 DUP2 SUB DUP2 DUP2 GT ISZERO PUSH2 0x12FE JUMPI PUSH2 0x12FE PUSH2 0x19CE JUMP JUMPDEST PUSH4 0x4E487B71 PUSH1 0xE0 SHL PUSH1 0x0 MSTORE PUSH1 0x31 PUSH1 0x4 MSTORE PUSH1 0x24 PUSH1 0x0 REVERT JUMPDEST DUP1 DUP3 MUL DUP2 ISZERO DUP3 DUP3 DIV DUP5 EQ OR PUSH2 0x12FE JUMPI PUSH2 0x12FE PUSH2 0x19CE JUMP JUMPDEST PUSH1 0x0 DUP3 PUSH2 0x1A83 JUMPI PUSH4 0x4E487B71 PUSH1 0xE0 SHL PUSH1 0x0 MSTORE PUSH1 0x12 PUSH1 0x4 MSTORE PUSH1 0x24 PUSH1 0x0 REVERT JUMPDEST POP DIV SWAP1 JUMP JUMPDEST PUSH1 0x0 PUSH1 0x20 DUP3 DUP5 SUB SLT ISZERO PUSH2 0x1A9A JUMPI PUSH1 0x0 DUP1 REVERT JUMPDEST DUP2 MLOAD PUSH2 0x190D DUP2 PUSH2 0x1898 JUMP JUMPDEST PUSH1 0x0 JUMPDEST DUP4 DUP2 LT ISZERO PUSH2 0x1AC0 JUMPI DUP2 DUP2 ADD MLOAD DUP4 DUP3 ADD MSTORE PUSH1 0x20 ADD PUSH2 0x1AA8 JUMP JUMPDEST POP POP PUSH1 0x0 SWAP2 ADD MSTORE JUMP JUMPDEST PUSH1 0x0 DUP3 MLOAD PUSH2 0x1ADB DUP2 DUP5 PUSH1 0x20 DUP8 ADD PUSH2 0x1AA5 JUMP JUMPDEST SWAP2 SWAP1 SWAP2 ADD SWAP3 SWAP2 POP POP JUMP JUMPDEST PUSH1 0x20 DUP2 MSTORE PUSH1 0x0 DUP3 MLOAD DUP1 PUSH1 0x20 DUP5 ADD MSTORE PUSH2 0x1B04 DUP2 PUSH1 0x40 DUP6 ADD PUSH1 0x20 DUP8 ADD PUSH2 0x1AA5 JUMP JUMPDEST PUSH1 0x1F ADD PUSH1 0x1F NOT AND SWAP2 SWAP1 SWAP2 ADD PUSH1 0x40 ADD SWAP3 SWAP2 POP POP JUMP INVALID LOG2 PUSH5 0x6970667358 0x22 SLT KECCAK256 0xEA CALLCODE CODESIZE 0xC8 0x1E INVALID NOT DUP2 DUP4 0xD9 SWAP14 PREVRANDAO JUMP INVALID EXTCODESIZE 0xB6 MULMOD LT 0x24 DUP5 0xC9 CODESIZE PUSH29 0xB2CB03F63DE2527F1264736F6C63430008130033000000000000000000 "},"methodIdentifiers":{"baseRewardRate()":"afbf3440","calculateRewards(address,uint256)":"beb8314c","claimRewards(uint256)":"0962ef79","createTier(uint256,uint256,uint256,uint256)":"07738af8","emergencyWithdraw(uint256)":"5312ea8e","fundRewards(uint256)":"93707a19","getUserStakes(address)":"842e2981","owner()":"8da5cb5b","renounceOwnership()":"715018a6","rewardToken()":"f7c618c1","setBaseRewardRate(uint256)":"f0a9abe7","setTierStatus(uint256,bool)":"1ebb4fdc","stake(uint256,uint256)":"7b0472f0","stakingToken()":"72f702f3","tierCount()":"96b55f7d","tiers(uint256)":"039af9eb","totalStaked()":"817b1cd2","totalUserStaked(address)":"3a107739","transferOwnership(address)":"f2fde38b","userStakes(address,uint256)":"b5d5b5fa","withdrawStake(uint256)":"25d5971f"}},"storageLayout":{"storage":[{"astId":7,"contract":"contracts/multi_ai.sol:TieredStaking","label":"_owner","offset":0,"slot":"0","type":"t_address"},{"astId":231,"contract":"contracts/multi_ai.sol:TieredStaking","label":"_status","offset":0,"slot":"1","type":"t_uint256"},{"astId":5341,"contract":"contracts/multi_ai.sol:TieredStaking","label":"stakingToken","offset":0,"slot":"2","type":"t_contract(IERC20)950"},{"astId":5344,"contract":"contracts/multi_ai.sol:TieredStaking","label":"rewardToken","offset":0,"slot":"3","type":"t_contract(IERC20)950"},{"astId":5346,"contract":"contracts/multi_ai.sol:TieredStaking","label":"baseRewardRate","offset":0,"slot":"4","type":"t_uint256"},{"astId":5348,"contract":"contracts/multi_ai.sol:TieredStaking","label":"totalStaked","offset":0,"slot":"5","type":"t_uint256"},{"astId":5353,"contract":"contracts/multi_ai.sol:TieredStaking","label":"tiers","offset":0,"slot":"6","type":"t_mapping(t_uint256,t_struct(StakingTier)5327_storage)"},{"astId":5355,"contract":"contracts/multi_ai.sol:TieredStaking","label":"tierCount","offset":0,"slot":"7","type":"t_uint256"},{"astId":5361,"contract":"contracts/multi_ai.sol:TieredStaking","label":"userStakes","offset":0,"slot":"8","type":"t_mapping(t_address,t_array(t_struct(StakeInfo)5338_storage)dyn_storage)"},{"astId":5365,"contract":"contracts/multi_ai.sol:TieredStaking","label":"totalUserStaked","offset":0,"slot":"9","type":"t_mapping(t_address,t_uint256)"}],"types":{"t_address":{"encoding":"inplace","label":"address","numberOfBytes":"20"},"t_array(t_struct(StakeInfo)5338_storage)dyn_storage":{"base":"t_struct(StakeInfo)5338_storage","encoding":"dynamic_array","label":"struct TieredStaking.StakeInfo[]","numberOfBytes":"32"},"t_bool":{"encoding":"inplace","label":"bool","numberOfBytes":"1"},"t_contract(IERC20)950":{"encoding":"inplace","label":"contract IERC20","numberOfBytes":"20"},"t_mapping(t_address,t_array(t_struct(StakeInfo)5338_storage)dyn_storage)":{"encoding":"mapping","key":"t_address","label":"mapping(address => struct TieredStaking.StakeInfo[])","numberOfBytes":"32","value":"t_array(t_struct(StakeInfo)5338_storage)dyn_storage"},"t_mapping(t_address,t_uint256)":{"encoding":"mapping","key":"t_address","label":"mapping(address => uint256)","numberOfBytes":"32","value":"t_uint256"},"t_mapping(t_uint256,t_struct(StakingTier)5327_storage)":{"encoding":"mapping","key":"t_uint256","label":"mapping(uint256 => struct TieredStaking.StakingTier)","numberOfBytes":"32","value":"t_struct(StakingTier)5327_storage"},"t_struct(StakeInfo)5338_storage":{"encoding":"inplace","label":"struct TieredStaking.StakeInfo","members":[{"astId":5329,"contract":"contracts/multi_ai.sol:TieredStaking","label":"amount","offset":0,"slot":"0","type":"t_uint256"},{"astId":5331,"contract":"contracts/multi_ai.sol:TieredStaking","label":"tierId","offset":0,"slot":"1","type":"t_uint256"},{"astId":5333,"contract":"contracts/multi_ai.sol:TieredStaking","label":"stakedAt","offset":0,"slot":"2","type":"t_uint256"},{"astId":5335,"contract":"contracts/multi_ai.sol:TieredStaking","label":"lastClaimed","offset":0,"slot":"3","type":"t_uint256"},{"astId":5337,"contract":"contracts/multi_ai.sol:TieredStaking","label":"pendingRewards","offset":0,"slot":"4","type":"t_uint256"}],"numberOfBytes":"160"},"t_struct(StakingTier)5327_storage":{"encoding":"inplace","label":"struct TieredStaking.StakingTier","members":[{"astId":5318,"contract":"contracts/multi_ai.sol:TieredStaking","label":"minAmount","offset":0,"slot":"0","type":"t_uint256"},{"astId":5320,"contract":"contracts/multi_ai.sol:TieredStaking","label":"maxAmount","offset":0,"slot":"1","type":"t_uint256"},{"astId":5322,"contract":"contracts/multi_ai.sol:TieredStaking","label":"rewardMultiplier","offset":0,"slot":"2","type":"t_uint256"},{"astId":5324,"contract":"contracts/multi_ai.sol:TieredStaking","label":"lockDuration","offset":0,"slot":"3","type":"t_uint256"},{"astId":5326,"contract":"contracts/multi_ai.sol:TieredStaking","label":"isActive","offset":0,"slot":"4","type":"t_bool"}],"numberOfBytes":"160"},"t_uint256":{"encoding":"inplace","label":"uint256","numberOfBytes":"32"}}}}}}