{"contracts/NFTStaking.sol":{"NFTStaking":{"abi":[{"inputs":[{"internalType":"address","name":"nft_","type":"address"},{"internalType":"address","name":"rewardToken_","type":"address"},{"internalType":"uint256","name":"rewardPerSecond_","type":"uint256"}],"stateMutability":"nonpayable","type":"constructor"},{"anonymous":false,"inputs":[{"indexed":true,"internalType":"address","name":"previousOwner","type":"address"},{"indexed":true,"internalType":"address","name":"newOwner","type":"address"}],"name":"OwnershipTransferred","type":"event"},{"anonymous":false,"inputs":[{"indexed":false,"internalType":"address","name":"account","type":"address"}],"name":"Paused","type":"event"},{"anonymous":false,"inputs":[{"indexed":false,"internalType":"uint256","name":"newRewardPerSecond","type":"uint256"}],"name":"RewardRateUpdated","type":"event"},{"anonymous":false,"inputs":[{"indexed":true,"internalType":"address","name":"user","type":"address"},{"indexed":false,"internalType":"uint256","name":"amount","type":"uint256"}],"name":"RewardsClaimed","type":"event"},{"anonymous":false,"inputs":[{"indexed":false,"internalType":"uint256","name":"amount","type":"uint256"}],"name":"RewardsFunded","type":"event"},{"anonymous":false,"inputs":[{"indexed":true,"internalType":"address","name":"user","type":"address"},{"indexed":true,"internalType":"uint256","name":"tokenId","type":"uint256"}],"name":"Staked","type":"event"},{"anonymous":false,"inputs":[{"indexed":false,"internalType":"address","name":"account","type":"address"}],"name":"Unpaused","type":"event"},{"anonymous":false,"inputs":[{"indexed":true,"internalType":"address","name":"user","type":"address"},{"indexed":true,"internalType":"uint256","name":"tokenId","type":"uint256"}],"name":"Unstaked","type":"event"},{"inputs":[{"internalType":"uint256[]","name":"tokenIds","type":"uint256[]"}],"name":"claimRewards","outputs":[],"stateMutability":"nonpayable","type":"function"},{"inputs":[{"internalType":"uint256","name":"amount","type":"uint256"}],"name":"fundRewards","outputs":[],"stateMutability":"nonpayable","type":"function"},{"inputs":[],"name":"nft","outputs":[{"internalType":"contract IERC721","name":"","type":"address"}],"stateMutability":"view","type":"function"},{"inputs":[{"internalType":"address","name":"","type":"address"},{"internalType":"address","name":"","type":"address"},{"internalType":"uint256","name":"","type":"uint256"},{"internalType":"bytes","name":"","type":"bytes"}],"name":"onERC721Received","outputs":[{"internalType":"bytes4","name":"","type":"bytes4"}],"stateMutability":"pure","type":"function"},{"inputs":[],"name":"owner","outputs":[{"internalType":"address","name":"","type":"address"}],"stateMutability":"view","type":"function"},{"inputs":[],"name":"pause","outputs":[],"stateMutability":"nonpayable","type":"function"},{"inputs":[],"name":"paused","outputs":[{"internalType":"bool","name":"","type":"bool"}],"stateMutability":"view","type":"function"},{"inputs":[{"internalType":"address","name":"user","type":"address"},{"internalType":"uint256[]","name":"tokenIds","type":"uint256[]"}],"name":"pendingRewards","outputs":[{"internalType":"uint256","name":"","type":"uint256"}],"stateMutability":"view","type":"function"},{"inputs":[{"internalType":"uint256","name":"","type":"uint256"}],"name":"positionOf","outputs":[{"internalType":"address","name":"owner","type":"address"},{"internalType":"uint256","name":"stakedAt","type":"uint256"},{"internalType":"uint256","name":"lastClaimAt","type":"uint256"}],"stateMutability":"view","type":"function"},{"inputs":[],"name":"renounceOwnership","outputs":[],"stateMutability":"nonpayable","type":"function"},{"inputs":[],"name":"rewardPerSecond","outputs":[{"internalType":"uint256","name":"","type":"uint256"}],"stateMutability":"view","type":"function"},{"inputs":[],"name":"rewardToken","outputs":[{"internalType":"contract IERC20","name":"","type":"address"}],"stateMutability":"view","type":"function"},{"inputs":[{"internalType":"uint256","name":"newRewardPerSecond","type":"uint256"}],"name":"setRewardRate","outputs":[],"stateMutability":"nonpayable","type":"function"},{"inputs":[{"internalType":"uint256[]","name":"tokenIds","type":"uint256[]"}],"name":"stake","outputs":[],"stateMutability":"nonpayable","type":"function"},{"inputs":[],"name":"totalStaked","outputs":[{"internalType":"uint256","name":"","type":"uint256"}],"stateMutability":"view","type":"function"},{"inputs":[{"internalType":"address","name":"newOwner","type":"address"}],"name":"transferOwnership","outputs":[],"stateMutability":"nonpayable","type":"function"},{"inputs":[],"name":"unpause","outputs":[],"stateMutability":"nonpayable","type":"function"},{"inputs":[{"internalType":"uint256[]","name":"tokenIds","type":"uint256[]"}],"name":"unstake","outputs":[],"stateMutability":"nonpayable","type":"function"},{"inputs":[{"internalType":"address","name":"","type":"address"}],"name":"userStakedCount","outputs":[{"internalType":"uint256","name":"","type":"uint256"}],"stateMutability":"view","type":"function"}],"evm":{"bytecode":{"linkReferences":{},"object":"60c06040523480156200001157600080fd5b506040516200184138038062001841833981016040819052620000349162000169565b6200003f33620000fc565b600180556002805460ff191690556001600160a01b038316620000945760405162461bcd60e51b81526020600482015260086024820152671e995c9bc81b999d60c21b60448201526064015b60405180910390fd5b6001600160a01b038216620000e05760405162461bcd60e51b81526020600482015260116024820152703d32b937903932bbb0b932103a37b5b2b760791b60448201526064016200008b565b6001600160a01b03928316608052911660a052600355620001aa565b600080546001600160a01b038381166001600160a01b0319831681178455604051919092169283917f8be0079c531659141344cd1fd0a4f28419497f9722a3daafe3b4186f6b6457e09190a35050565b80516001600160a01b03811681146200016457600080fd5b919050565b6000806000606084860312156200017f57600080fd5b6200018a846200014c565b92506200019a602085016200014c565b9150604084015190509250925092565b60805160a051611647620001fa6000396000818161036c015281816107be015281816108c00152610b83015260008181610244015281816104ae015281816106330152610acb01526116476000f3fe608060405234801561001057600080fd5b50600436106101515760003560e01c80638456cb59116100cd57806393707a1911610081578063e449f34111610066578063e449f34114610341578063f2fde38b14610354578063f7c618c11461036757600080fd5b806393707a191461031b5780639e447fc61461032e57600080fd5b80638da5cb5b116100b25780638da5cb5b146102e15780638f10369a146102f25780639022de7e146102fb57600080fd5b80638456cb59146102c657806387a7433b146102ce57600080fd5b806347ccca02116101245780635eac6239116101095780635eac623914610294578063715018a6146102a7578063817b1cd2146102af57600080fd5b806347ccca021461023f5780635c975abb1461027e57600080fd5b80630fbf0a9314610156578063150b7a021461016b5780633f4ba83a146101d957806346f96023146101e1575b600080fd5b61016961016436600461134f565b61038e565b005b6101a36101793660046113a6565b7f150b7a020000000000000000000000000000000000000000000000000000000095945050505050565b6040517fffffffff0000000000000000000000000000000000000000000000000000000090911681526020015b60405180910390f35b6101696106e6565b61021a6101ef366004611445565b6005602052600090815260409020805460018201546002909201546001600160a01b03909116919083565b604080516001600160a01b0390941684526020840192909252908201526060016101d0565b6102667f000000000000000000000000000000000000000000000000000000000000000081565b6040516001600160a01b0390911681526020016101d0565b60025460ff1660405190151581526020016101d0565b6101696102a236600461134f565b6106f8565b610169610824565b6102b860045481565b6040519081526020016101d0565b610169610836565b6102b86102dc36600461145e565b610846565b6000546001600160a01b0316610266565b6102b860035481565b6102b86103093660046114b3565b60066020526000908152604090205481565b610169610329366004611445565b61085b565b61016961033c366004611445565b61091f565b61016961034f36600461134f565b61095c565b6101696103623660046114b3565b610bea565b6102667f000000000000000000000000000000000000000000000000000000000000000081565b610396610c7a565b61039e610cd3565b80806103e25760405162461bcd60e51b815260206004820152600e60248201526d656d70747920746f6b656e49647360901b60448201526064015b60405180910390fd5b60005b818110156106d7576000848483818110610401576104016114d7565b6020908102929092013560008181526005909352604090922054919250506001600160a01b0316156104755760405162461bcd60e51b815260206004820152600e60248201527f616c7265616479207374616b656400000000000000000000000000000000000060448201526064016103d9565b6040517f6352211e0000000000000000000000000000000000000000000000000000000081526004810182905233906001600160a01b037f00000000000000000000000000000000000000000000000000000000000000001690636352211e90602401602060405180830381865afa1580156104f5573d6000803e3d6000fd5b505050506040513d601f19601f8201168201806040525081019061051991906114ed565b6001600160a01b03161461056f5760405162461bcd60e51b815260206004820152600960248201527f6e6f74206f776e6572000000000000000000000000000000000000000000000060448201526064016103d9565b60408051606081018252338082524260208084018281528486019283526000878152600583528681209551865473ffffffffffffffffffffffffffffffffffffffff19166001600160a01b0390911617865590516001808701919091559251600290950194909455918352600690915291812080549091906105f2908490611520565b9250508190555060016004600082825461060c9190611520565b9091555050604051632142170760e11b8152336004820152306024820152604481018290527f00000000000000000000000000000000000000000000000000000000000000006001600160a01b0316906342842e0e90606401600060405180830381600087803b15801561067f57600080fd5b505af1158015610693573d6000803e3d6000fd5b50506040518392503391507f9e71bc8eea02a63969f509818f2dafb9254532904319f9dbda79b67bd34a5f3d90600090a350806106cf81611539565b9150506103e5565b50506106e260018055565b5050565b6106ee610d26565b6106f6610d80565b565b610700610c7a565b600061070d338484610dd2565b90506000811161075f5760405162461bcd60e51b815260206004820152600a60248201527f6e6f20726577617264730000000000000000000000000000000000000000000060448201526064016103d9565b60005b828110156107b0574260056000868685818110610781576107816114d7565b9050602002013581526020019081526020016000206002018190555080806107a890611539565b915050610762565b506107e56001600160a01b037f0000000000000000000000000000000000000000000000000000000000000000163383610f07565b60405181815233907ffc30cddea38e2bf4d6ea7d3f9ed3b6ad7f176419f4963bd81318067a4aee73fe9060200160405180910390a2506106e260018055565b61082c610d26565b6106f66000610fb5565b61083e610d26565b6106f6611012565b6000610853848484610dd2565b949350505050565b610863610d26565b600081116108b35760405162461bcd60e51b815260206004820152600860248201527f616d6f756e74203000000000000000000000000000000000000000000000000060448201526064016103d9565b6108e86001600160a01b037f00000000000000000000000000000000000000000000000000000000000000001633308461104f565b6040518181527fe42dde25409a3e8c7c119c1c722610d9e9bd96e73e3cead774863c9ffdd870d6906020015b60405180910390a150565b610927610d26565b60038190556040518181527f41d466ebd06fb97e7786086ac8b69b7eb7da798592036251291d34e9791cde0190602001610914565b610964610c7a565b80806109a35760405162461bcd60e51b815260206004820152600e60248201526d656d70747920746f6b656e49647360901b60448201526064016103d9565b60006109b0338585610dd2565b905060005b82811015610b6f5760008585838181106109d1576109d16114d7565b6020908102929092013560008181526005909352604090922054919250506001600160a01b03163314610a335760405162461bcd60e51b815260206004820152600a6024820152693737ba1039ba30b5b2b960b11b60448201526064016103d9565b6000818152600560209081526040808320805473ffffffffffffffffffffffffffffffffffffffff191681556001808201859055600290910184905533845260069092528220805491929091610a8a908490611552565b92505081905550600160046000828254610aa49190611552565b9091555050604051632142170760e11b8152306004820152336024820152604481018290527f00000000000000000000000000000000000000000000000000000000000000006001600160a01b0316906342842e0e90606401600060405180830381600087803b158015610b1757600080fd5b505af1158015610b2b573d6000803e3d6000fd5b50506040518392503391507f0f5bb82176feb1b5e747e28471aa92156a04d9f3ab9f45f28e2d704232b93f7590600090a35080610b6781611539565b9150506109b5565b5080156106d757610baa6001600160a01b037f0000000000000000000000000000000000000000000000000000000000000000163383610f07565b60405181815233907ffc30cddea38e2bf4d6ea7d3f9ed3b6ad7f176419f4963bd81318067a4aee73fe9060200160405180910390a250506106e260018055565b610bf2610d26565b6001600160a01b038116610c6e5760405162461bcd60e51b815260206004820152602660248201527f4f776e61626c653a206e6577206f776e657220697320746865207a65726f206160448201527f646472657373000000000000000000000000000000000000000000000000000060648201526084016103d9565b610c7781610fb5565b50565b600260015403610ccc5760405162461bcd60e51b815260206004820152601f60248201527f5265656e7472616e637947756172643a207265656e7472616e742063616c6c0060448201526064016103d9565b6002600155565b60025460ff16156106f65760405162461bcd60e51b815260206004820152601060248201527f5061757361626c653a207061757365640000000000000000000000000000000060448201526064016103d9565b6000546001600160a01b031633146106f65760405162461bcd60e51b815260206004820181905260248201527f4f776e61626c653a2063616c6c6572206973206e6f7420746865206f776e657260448201526064016103d9565b610d886110a6565b6002805460ff191690557f5db9ee0a495bf2e6ff9c91a7834c1ba4fdd244a5e8aa4e537bd38aeae4b073aa335b6040516001600160a01b03909116815260200160405180910390a1565b60008180610e135760405162461bcd60e51b815260206004820152600e60248201526d656d70747920746f6b656e49647360901b60448201526064016103d9565b60005b81811015610efe57600060056000878785818110610e3657610e366114d7565b60209081029290920135835250818101929092526040908101600020815160608101835281546001600160a01b0390811680835260018401549583019590955260029092015492810192909252909250881614610ec25760405162461bcd60e51b815260206004820152600a6024820152693737ba1039ba30b5b2b960b11b60448201526064016103d9565b6003546040820151610ed49042611552565b610ede9190611565565b610ee89085611520565b9350508080610ef690611539565b915050610e16565b50509392505050565b6040516001600160a01b038316602482015260448101829052610fb09084907fa9059cbb00000000000000000000000000000000000000000000000000000000906064015b60408051601f198184030181529190526020810180517bffffffffffffffffffffffffffffffffffffffffffffffffffffffff167fffffffff00000000000000000000000000000000000000000000000000000000909316929092179091526110f8565b505050565b600080546001600160a01b0383811673ffffffffffffffffffffffffffffffffffffffff19831681178455604051919092169283917f8be0079c531659141344cd1fd0a4f28419497f9722a3daafe3b4186f6b6457e09190a35050565b61101a610cd3565b6002805460ff191660011790557f62e78cea01bee320cd4e420270b5ea74000d11b0c9f74754ebdbfc544b05a258610db53390565b6040516001600160a01b03808516602483015283166044820152606481018290526110a09085907f23b872dd0000000000000000000000000000000000000000000000000000000090608401610f4c565b50505050565b60025460ff166106f65760405162461bcd60e51b815260206004820152601460248201527f5061757361626c653a206e6f742070617573656400000000000000000000000060448201526064016103d9565b600061114d826040518060400160405280602081526020017f5361666545524332303a206c6f772d6c6576656c2063616c6c206661696c6564815250856001600160a01b03166111e09092919063ffffffff16565b905080516000148061116e57508080602001905181019061116e919061157c565b610fb05760405162461bcd60e51b815260206004820152602a60248201527f5361666545524332303a204552433230206f7065726174696f6e20646964206e60448201527f6f7420737563636565640000000000000000000000000000000000000000000060648201526084016103d9565b6060610853848460008585600080866001600160a01b0316858760405161120791906115c2565b60006040518083038185875af1925050503d8060008114611244576040519150601f19603f3d011682016040523d82523d6000602084013e611249565b606091505b509150915061125a87838387611265565b979650505050505050565b606083156112d45782516000036112cd576001600160a01b0385163b6112cd5760405162461bcd60e51b815260206004820152601d60248201527f416464726573733a2063616c6c20746f206e6f6e2d636f6e747261637400000060448201526064016103d9565b5081610853565b61085383838151156112e95781518083602001fd5b8060405162461bcd60e51b81526004016103d991906115de565b60008083601f84011261131557600080fd5b50813567ffffffffffffffff81111561132d57600080fd5b6020830191508360208260051b850101111561134857600080fd5b9250929050565b6000806020838503121561136257600080fd5b823567ffffffffffffffff81111561137957600080fd5b61138585828601611303565b90969095509350505050565b6001600160a01b0381168114610c7757600080fd5b6000806000806000608086880312156113be57600080fd5b85356113c981611391565b945060208601356113d981611391565b935060408601359250606086013567ffffffffffffffff808211156113fd57600080fd5b818801915088601f83011261141157600080fd5b81358181111561142057600080fd5b89602082850101111561143257600080fd5b9699959850939650602001949392505050565b60006020828403121561145757600080fd5b5035919050565b60008060006040848603121561147357600080fd5b833561147e81611391565b9250602084013567ffffffffffffffff81111561149a57600080fd5b6114a686828701611303565b9497909650939450505050565b6000602082840312156114c557600080fd5b81356114d081611391565b9392505050565b634e487b7160e01b600052603260045260246000fd5b6000602082840312156114ff57600080fd5b81516114d081611391565b634e487b7160e01b600052601160045260246000fd5b808201808211156115335761153361150a565b92915050565b60006001820161154b5761154b61150a565b5060010190565b818103818111156115335761153361150a565b80820281158282048414176115335761153361150a565b60006020828403121561158e57600080fd5b815180151581146114d057600080fd5b60005b838110156115b95781810151838201526020016115a1565b50506000910152565b600082516115d481846020870161159e565b9190910192915050565b60208152600082518060208401526115fd81604085016020870161159e565b601f01601f1916919091016040019291505056fea26469706673582212201e1de7bf3e642920b8577af7446b9f07ad921da5ab0357b8409bbe6973154ad264736f6c63430008130033","opcodes":"PUSH1 0xC0 PUSH1 0x40 MSTORE CALLVALUE DUP1 ISZERO PUSH3 0x11 JUMPI PUSH1 0x0 DUP1 REVERT JUMPDEST POP PUSH1 0x40 MLOAD PUSH3 0x1841 CODESIZE SUB DUP1 PUSH3 0x1841 DUP4 CODECOPY DUP2 ADD PUSH1 0x40 DUP2 SWAP1 MSTORE PUSH3 0x34 SWAP2 PUSH3 0x169 JUMP JUMPDEST PUSH3 0x3F CALLER PUSH3 0xFC JUMP JUMPDEST PUSH1 0x1 DUP1 SSTORE PUSH1 0x2 DUP1 SLOAD PUSH1 0xFF NOT AND SWAP1 SSTORE PUSH1 0x1 PUSH1 0x1 PUSH1 0xA0 SHL SUB DUP4 AND PUSH3 0x94 JUMPI PUSH1 0x40 MLOAD PUSH3 0x461BCD PUSH1 0xE5 SHL DUP2 MSTORE PUSH1 0x20 PUSH1 0x4 DUP3 ADD MSTORE PUSH1 0x8 PUSH1 0x24 DUP3 ADD MSTORE PUSH8 0x1E995C9BC81B999D PUSH1 0xC2 SHL PUSH1 0x44 DUP3 ADD MSTORE PUSH1 0x64 ADD JUMPDEST PUSH1 0x40 MLOAD DUP1 SWAP2 SUB SWAP1 REVERT JUMPDEST PUSH1 0x1 PUSH1 0x1 PUSH1 0xA0 SHL SUB DUP3 AND PUSH3 0xE0 JUMPI PUSH1 0x40 MLOAD PUSH3 0x461BCD PUSH1 0xE5 SHL DUP2 MSTORE PUSH1 0x20 PUSH1 0x4 DUP3 ADD MSTORE PUSH1 0x11 PUSH1 0x24 DUP3 ADD MSTORE PUSH17 0x3D32B937903932BBB0B932103A37B5B2B7 PUSH1 0x79 SHL PUSH1 0x44 DUP3 ADD MSTORE PUSH1 0x64 ADD PUSH3 0x8B JUMP JUMPDEST PUSH1 0x1 PUSH1 0x1 PUSH1 0xA0 SHL SUB SWAP3 DUP4 AND PUSH1 0x80 MSTORE SWAP2 AND PUSH1 0xA0 MSTORE PUSH1 0x3 SSTORE PUSH3 0x1AA JUMP JUMPDEST PUSH1 0x0 DUP1 SLOAD PUSH1 0x1 PUSH1 0x1 PUSH1 0xA0 SHL SUB DUP4 DUP2 AND PUSH1 0x1 PUSH1 0x1 PUSH1 0xA0 SHL SUB NOT DUP4 AND DUP2 OR DUP5 SSTORE PUSH1 0x40 MLOAD SWAP2 SWAP1 SWAP3 AND SWAP3 DUP4 SWAP2 PUSH32 0x8BE0079C531659141344CD1FD0A4F28419497F9722A3DAAFE3B4186F6B6457E0 SWAP2 SWAP1 LOG3 POP POP JUMP JUMPDEST DUP1 MLOAD PUSH1 0x1 PUSH1 0x1 PUSH1 0xA0 SHL SUB DUP2 AND DUP2 EQ PUSH3 0x164 JUMPI PUSH1 0x0 DUP1 REVERT JUMPDEST SWAP2 SWAP1 POP JUMP JUMPDEST PUSH1 0x0 DUP1 PUSH1 0x0 PUSH1 0x60 DUP5 DUP7 SUB SLT ISZERO PUSH3 0x17F JUMPI PUSH1 0x0 DUP1 REVERT JUMPDEST PUSH3 0x18A DUP5 PUSH3 0x14C JUMP JUMPDEST SWAP3 POP PUSH3 0x19A PUSH1 0x20 DUP6 ADD PUSH3 0x14C JUMP JUMPDEST SWAP2 POP PUSH1 0x40 DUP5 ADD MLOAD SWAP1 POP SWAP3 POP SWAP3 POP SWAP3 JUMP JUMPDEST PUSH1 0x80 MLOAD PUSH1 0xA0 MLOAD PUSH2 0x1647 PUSH3 0x1FA PUSH1 0x0 CODECOPY PUSH1 0x0 DUP2 DUP2 PUSH2 0x36C ADD MSTORE DUP2 DUP2 PUSH2 0x7BE ADD MSTORE DUP2 DUP2 PUSH2 0x8C0 ADD MSTORE PUSH2 0xB83 ADD MSTORE PUSH1 0x0 DUP2 DUP2 PUSH2 0x244 ADD MSTORE DUP2 DUP2 PUSH2 0x4AE ADD MSTORE DUP2 DUP2 PUSH2 0x633 ADD MSTORE PUSH2 0xACB ADD MSTORE PUSH2 0x1647 PUSH1 0x0 RETURN INVALID PUSH1 0x80 PUSH1 0x40 MSTORE CALLVALUE DUP1 ISZERO PUSH2 0x10 JUMPI PUSH1 0x0 DUP1 REVERT JUMPDEST POP PUSH1 0x4 CALLDATASIZE LT PUSH2 0x151 JUMPI PUSH1 0x0 CALLDATALOAD PUSH1 0xE0 SHR DUP1 PUSH4 0x8456CB59 GT PUSH2 0xCD JUMPI DUP1 PUSH4 0x93707A19 GT PUSH2 0x81 JUMPI DUP1 PUSH4 0xE449F341 GT PUSH2 0x66 JUMPI DUP1 PUSH4 0xE449F341 EQ PUSH2 0x341 JUMPI DUP1 PUSH4 0xF2FDE38B EQ PUSH2 0x354 JUMPI DUP1 PUSH4 0xF7C618C1 EQ PUSH2 0x367 JUMPI PUSH1 0x0 DUP1 REVERT JUMPDEST DUP1 PUSH4 0x93707A19 EQ PUSH2 0x31B JUMPI DUP1 PUSH4 0x9E447FC6 EQ PUSH2 0x32E JUMPI PUSH1 0x0 DUP1 REVERT JUMPDEST DUP1 PUSH4 0x8DA5CB5B GT PUSH2 0xB2 JUMPI DUP1 PUSH4 0x8DA5CB5B EQ PUSH2 0x2E1 JUMPI DUP1 PUSH4 0x8F10369A EQ PUSH2 0x2F2 JUMPI DUP1 PUSH4 0x9022DE7E EQ PUSH2 0x2FB JUMPI PUSH1 0x0 DUP1 REVERT JUMPDEST DUP1 PUSH4 0x8456CB59 EQ PUSH2 0x2C6 JUMPI DUP1 PUSH4 0x87A7433B EQ PUSH2 0x2CE JUMPI PUSH1 0x0 DUP1 REVERT JUMPDEST DUP1 PUSH4 0x47CCCA02 GT PUSH2 0x124 JUMPI DUP1 PUSH4 0x5EAC6239 GT PUSH2 0x109 JUMPI DUP1 PUSH4 0x5EAC6239 EQ PUSH2 0x294 JUMPI DUP1 PUSH4 0x715018A6 EQ PUSH2 0x2A7 JUMPI DUP1 PUSH4 0x817B1CD2 EQ PUSH2 0x2AF JUMPI PUSH1 0x0 DUP1 REVERT JUMPDEST DUP1 PUSH4 0x47CCCA02 EQ PUSH2 0x23F JUMPI DUP1 PUSH4 0x5C975ABB EQ PUSH2 0x27E JUMPI PUSH1 0x0 DUP1 REVERT JUMPDEST DUP1 PUSH4 0xFBF0A93 EQ PUSH2 0x156 JUMPI DUP1 PUSH4 0x150B7A02 EQ PUSH2 0x16B JUMPI DUP1 PUSH4 0x3F4BA83A EQ PUSH2 0x1D9 JUMPI DUP1 PUSH4 0x46F96023 EQ PUSH2 0x1E1 JUMPI JUMPDEST PUSH1 0x0 DUP1 REVERT JUMPDEST PUSH2 0x169 PUSH2 0x164 CALLDATASIZE PUSH1 0x4 PUSH2 0x134F JUMP JUMPDEST PUSH2 0x38E JUMP JUMPDEST STOP JUMPDEST PUSH2 0x1A3 PUSH2 0x179 CALLDATASIZE PUSH1 0x4 PUSH2 0x13A6 JUMP JUMPDEST PUSH32 0x150B7A0200000000000000000000000000000000000000000000000000000000 SWAP6 SWAP5 POP POP POP POP POP JUMP JUMPDEST PUSH1 0x40 MLOAD PUSH32 0xFFFFFFFF00000000000000000000000000000000000000000000000000000000 SWAP1 SWAP2 AND DUP2 MSTORE PUSH1 0x20 ADD JUMPDEST PUSH1 0x40 MLOAD DUP1 SWAP2 SUB SWAP1 RETURN JUMPDEST PUSH2 0x169 PUSH2 0x6E6 JUMP JUMPDEST PUSH2 0x21A PUSH2 0x1EF CALLDATASIZE PUSH1 0x4 PUSH2 0x1445 JUMP JUMPDEST PUSH1 0x5 PUSH1 0x20 MSTORE PUSH1 0x0 SWAP1 DUP2 MSTORE PUSH1 0x40 SWAP1 KECCAK256 DUP1 SLOAD PUSH1 0x1 DUP3 ADD SLOAD PUSH1 0x2 SWAP1 SWAP3 ADD SLOAD PUSH1 0x1 PUSH1 0x1 PUSH1 0xA0 SHL SUB SWAP1 SWAP2 AND SWAP2 SWAP1 DUP4 JUMP JUMPDEST PUSH1 0x40 DUP1 MLOAD PUSH1 0x1 PUSH1 0x1 PUSH1 0xA0 SHL SUB SWAP1 SWAP5 AND DUP5 MSTORE PUSH1 0x20 DUP5 ADD SWAP3 SWAP1 SWAP3 MSTORE SWAP1 DUP3 ADD MSTORE PUSH1 0x60 ADD PUSH2 0x1D0 JUMP JUMPDEST PUSH2 0x266 PUSH32 0x0 DUP2 JUMP JUMPDEST PUSH1 0x40 MLOAD PUSH1 0x1 PUSH1 0x1 PUSH1 0xA0 SHL SUB SWAP1 SWAP2 AND DUP2 MSTORE PUSH1 0x20 ADD PUSH2 0x1D0 JUMP JUMPDEST PUSH1 0x2 SLOAD PUSH1 0xFF AND PUSH1 0x40 MLOAD SWAP1 ISZERO ISZERO DUP2 MSTORE PUSH1 0x20 ADD PUSH2 0x1D0 JUMP JUMPDEST PUSH2 0x169 PUSH2 0x2A2 CALLDATASIZE PUSH1 0x4 PUSH2 0x134F JUMP JUMPDEST PUSH2 0x6F8 JUMP JUMPDEST PUSH2 0x169 PUSH2 0x824 JUMP JUMPDEST PUSH2 0x2B8 PUSH1 0x4 SLOAD DUP2 JUMP JUMPDEST PUSH1 0x40 MLOAD SWAP1 DUP2 MSTORE PUSH1 0x20 ADD PUSH2 0x1D0 JUMP JUMPDEST PUSH2 0x169 PUSH2 0x836 JUMP JUMPDEST PUSH2 0x2B8 PUSH2 0x2DC CALLDATASIZE PUSH1 0x4 PUSH2 0x145E JUMP JUMPDEST PUSH2 0x846 JUMP JUMPDEST PUSH1 0x0 SLOAD PUSH1 0x1 PUSH1 0x1 PUSH1 0xA0 SHL SUB AND PUSH2 0x266 JUMP JUMPDEST PUSH2 0x2B8 PUSH1 0x3 SLOAD DUP2 JUMP JUMPDEST PUSH2 0x2B8 PUSH2 0x309 CALLDATASIZE PUSH1 0x4 PUSH2 0x14B3 JUMP JUMPDEST PUSH1 0x6 PUSH1 0x20 MSTORE PUSH1 0x0 SWAP1 DUP2 MSTORE PUSH1 0x40 SWAP1 KECCAK256 SLOAD DUP2 JUMP JUMPDEST PUSH2 0x169 PUSH2 0x329 CALLDATASIZE PUSH1 0x4 PUSH2 0x1445 JUMP JUMPDEST PUSH2 0x85B JUMP JUMPDEST PUSH2 0x169 PUSH2 0x33C CALLDATASIZE PUSH1 0x4 PUSH2 0x1445 JUMP JUMPDEST PUSH2 0x91F JUMP JUMPDEST PUSH2 0x169 PUSH2 0x34F CALLDATASIZE PUSH1 0x4 PUSH2 0x134F JUMP JUMPDEST PUSH2 0x95C JUMP JUMPDEST PUSH2 0x169 PUSH2 0x362 CALLDATASIZE PUSH1 0x4 PUSH2 0x14B3 JUMP JUMPDEST PUSH2 0xBEA JUMP JUMPDEST PUSH2 0x266 PUSH32 0x0 DUP2 JUMP JUMPDEST PUSH2 0x396 PUSH2 0xC7A JUMP JUMPDEST PUSH2 0x39E PUSH2 0xCD3 JUMP JUMPDEST DUP1 DUP1 PUSH2 0x3E2 JUMPI PUSH1 0x40 MLOAD PUSH3 0x461BCD PUSH1 0xE5 SHL DUP2 MSTORE PUSH1 0x20 PUSH1 0x4 DUP3 ADD MSTORE PUSH1 0xE PUSH1 0x24 DUP3 ADD MSTORE PUSH14 0x656D70747920746F6B656E496473 PUSH1 0x90 SHL PUSH1 0x44 DUP3 ADD MSTORE PUSH1 0x64 ADD JUMPDEST PUSH1 0x40 MLOAD DUP1 SWAP2 SUB SWAP1 REVERT JUMPDEST PUSH1 0x0 JUMPDEST DUP2 DUP2 LT ISZERO PUSH2 0x6D7 JUMPI PUSH1 0x0 DUP5 DUP5 DUP4 DUP2 DUP2 LT PUSH2 0x401 JUMPI PUSH2 0x401 PUSH2 0x14D7 JUMP JUMPDEST PUSH1 0x20 SWAP1 DUP2 MUL SWAP3 SWAP1 SWAP3 ADD CALLDATALOAD PUSH1 0x0 DUP2 DUP2 MSTORE PUSH1 0x5 SWAP1 SWAP4 MSTORE PUSH1 0x40 SWAP1 SWAP3 KECCAK256 SLOAD SWAP2 SWAP3 POP POP PUSH1 0x1 PUSH1 0x1 PUSH1 0xA0 SHL SUB AND ISZERO PUSH2 0x475 JUMPI PUSH1 0x40 MLOAD PUSH3 0x461BCD PUSH1 0xE5 SHL DUP2 MSTORE PUSH1 0x20 PUSH1 0x4 DUP3 ADD MSTORE PUSH1 0xE PUSH1 0x24 DUP3 ADD MSTORE PUSH32 0x616C7265616479207374616B6564000000000000000000000000000000000000 PUSH1 0x44 DUP3 ADD MSTORE PUSH1 0x64 ADD PUSH2 0x3D9 JUMP JUMPDEST PUSH1 0x40 MLOAD PUSH32 0x6352211E00000000000000000000000000000000000000000000000000000000 DUP2 MSTORE PUSH1 0x4 DUP2 ADD DUP3 SWAP1 MSTORE CALLER SWAP1 PUSH1 0x1 PUSH1 0x1 PUSH1 0xA0 SHL SUB PUSH32 0x0 AND SWAP1 PUSH4 0x6352211E SWAP1 PUSH1 0x24 ADD PUSH1 0x20 PUSH1 0x40 MLOAD DUP1 DUP4 SUB DUP2 DUP7 GAS STATICCALL ISZERO DUP1 ISZERO PUSH2 0x4F5 JUMPI RETURNDATASIZE PUSH1 0x0 DUP1 RETURNDATACOPY RETURNDATASIZE PUSH1 0x0 REVERT JUMPDEST POP POP POP POP PUSH1 0x40 MLOAD RETURNDATASIZE PUSH1 0x1F NOT PUSH1 0x1F DUP3 ADD AND DUP3 ADD DUP1 PUSH1 0x40 MSTORE POP DUP2 ADD SWAP1 PUSH2 0x519 SWAP2 SWAP1 PUSH2 0x14ED JUMP JUMPDEST PUSH1 0x1 PUSH1 0x1 PUSH1 0xA0 SHL SUB AND EQ PUSH2 0x56F JUMPI PUSH1 0x40 MLOAD PUSH3 0x461BCD PUSH1 0xE5 SHL DUP2 MSTORE PUSH1 0x20 PUSH1 0x4 DUP3 ADD MSTORE PUSH1 0x9 PUSH1 0x24 DUP3 ADD MSTORE PUSH32 0x6E6F74206F776E65720000000000000000000000000000000000000000000000 PUSH1 0x44 DUP3 ADD MSTORE PUSH1 0x64 ADD PUSH2 0x3D9 JUMP JUMPDEST PUSH1 0x40 DUP1 MLOAD PUSH1 0x60 DUP2 ADD DUP3 MSTORE CALLER DUP1 DUP3 MSTORE TIMESTAMP PUSH1 0x20 DUP1 DUP5 ADD DUP3 DUP2 MSTORE DUP5 DUP7 ADD SWAP3 DUP4 MSTORE PUSH1 0x0 DUP8 DUP2 MSTORE PUSH1 0x5 DUP4 MSTORE DUP7 DUP2 KECCAK256 SWAP6 MLOAD DUP7 SLOAD PUSH20 0xFFFFFFFFFFFFFFFFFFFFFFFFFFFFFFFFFFFFFFFF NOT AND PUSH1 0x1 PUSH1 0x1 PUSH1 0xA0 SHL SUB SWAP1 SWAP2 AND OR DUP7 SSTORE SWAP1 MLOAD PUSH1 0x1 DUP1 DUP8 ADD SWAP2 SWAP1 SWAP2 SSTORE SWAP3 MLOAD PUSH1 0x2 SWAP1 SWAP6 ADD SWAP5 SWAP1 SWAP5 SSTORE SWAP2 DUP4 MSTORE PUSH1 0x6 SWAP1 SWAP2 MSTORE SWAP2 DUP2 KECCAK256 DUP1 SLOAD SWAP1 SWAP2 SWAP1 PUSH2 0x5F2 SWAP1 DUP5 SWAP1 PUSH2 0x1520 JUMP JUMPDEST SWAP3 POP POP DUP2 SWAP1 SSTORE POP PUSH1 0x1 PUSH1 0x4 PUSH1 0x0 DUP3 DUP3 SLOAD PUSH2 0x60C SWAP2 SWAP1 PUSH2 0x1520 JUMP JUMPDEST SWAP1 SWAP2 SSTORE POP POP PUSH1 0x40 MLOAD PUSH4 0x21421707 PUSH1 0xE1 SHL DUP2 MSTORE CALLER PUSH1 0x4 DUP3 ADD MSTORE ADDRESS PUSH1 0x24 DUP3 ADD MSTORE PUSH1 0x44 DUP2 ADD DUP3 SWAP1 MSTORE PUSH32 0x0 PUSH1 0x1 PUSH1 0x1 PUSH1 0xA0 SHL SUB AND SWAP1 PUSH4 0x42842E0E SWAP1 PUSH1 0x64 ADD PUSH1 0x0 PUSH1 0x40 MLOAD DUP1 DUP4 SUB DUP2 PUSH1 0x0 DUP8 DUP1 EXTCODESIZE ISZERO DUP1 ISZERO PUSH2 0x67F JUMPI PUSH1 0x0 DUP1 REVERT JUMPDEST POP GAS CALL ISZERO DUP1 ISZERO PUSH2 0x693 JUMPI RETURNDATASIZE PUSH1 0x0 DUP1 RETURNDATACOPY RETURNDATASIZE PUSH1 0x0 REVERT JUMPDEST POP POP PUSH1 0x40 MLOAD DUP4 SWAP3 POP CALLER SWAP2 POP PUSH32 0x9E71BC8EEA02A63969F509818F2DAFB9254532904319F9DBDA79B67BD34A5F3D SWAP1 PUSH1 0x0 SWAP1 LOG3 POP DUP1 PUSH2 0x6CF DUP2 PUSH2 0x1539 JUMP JUMPDEST SWAP2 POP POP PUSH2 0x3E5 JUMP JUMPDEST POP POP PUSH2 0x6E2 PUSH1 0x1 DUP1 SSTORE JUMP JUMPDEST POP POP JUMP JUMPDEST PUSH2 0x6EE PUSH2 0xD26 JUMP JUMPDEST PUSH2 0x6F6 PUSH2 0xD80 JUMP JUMPDEST JUMP JUMPDEST PUSH2 0x700 PUSH2 0xC7A JUMP JUMPDEST PUSH1 0x0 PUSH2 0x70D CALLER DUP5 DUP5 PUSH2 0xDD2 JUMP JUMPDEST SWAP1 POP PUSH1 0x0 DUP2 GT PUSH2 0x75F JUMPI PUSH1 0x40 MLOAD PUSH3 0x461BCD PUSH1 0xE5 SHL DUP2 MSTORE PUSH1 0x20 PUSH1 0x4 DUP3 ADD MSTORE PUSH1 0xA PUSH1 0x24 DUP3 ADD MSTORE PUSH32 0x6E6F207265776172647300000000000000000000000000000000000000000000 PUSH1 0x44 DUP3 ADD MSTORE PUSH1 0x64 ADD PUSH2 0x3D9 JUMP JUMPDEST PUSH1 0x0 JUMPDEST DUP3 DUP2 LT ISZERO PUSH2 0x7B0 JUMPI TIMESTAMP PUSH1 0x5 PUSH1 0x0 DUP7 DUP7 DUP6 DUP2 DUP2 LT PUSH2 0x781 JUMPI PUSH2 0x781 PUSH2 0x14D7 JUMP JUMPDEST SWAP1 POP PUSH1 0x20 MUL ADD CALLDATALOAD DUP2 MSTORE PUSH1 0x20 ADD SWAP1 DUP2 MSTORE PUSH1 0x20 ADD PUSH1 0x0 KECCAK256 PUSH1 0x2 ADD DUP2 SWAP1 SSTORE POP DUP1 DUP1 PUSH2 0x7A8 SWAP1 PUSH2 0x1539 JUMP JUMPDEST SWAP2 POP POP PUSH2 0x762 JUMP JUMPDEST POP PUSH2 0x7E5 PUSH1 0x1 PUSH1 0x1 PUSH1 0xA0 SHL SUB PUSH32 0x0 AND CALLER DUP4 PUSH2 0xF07 JUMP JUMPDEST PUSH1 0x40 MLOAD DUP2 DUP2 MSTORE CALLER SWAP1 PUSH32 0xFC30CDDEA38E2BF4D6EA7D3F9ED3B6AD7F176419F4963BD81318067A4AEE73FE SWAP1 PUSH1 0x20 ADD PUSH1 0x40 MLOAD DUP1 SWAP2 SUB SWAP1 LOG2 POP PUSH2 0x6E2 PUSH1 0x1 DUP1 SSTORE JUMP JUMPDEST PUSH2 0x82C PUSH2 0xD26 JUMP JUMPDEST PUSH2 0x6F6 PUSH1 0x0 PUSH2 0xFB5 JUMP JUMPDEST PUSH2 0x83E PUSH2 0xD26 JUMP JUMPDEST PUSH2 0x6F6 PUSH2 0x1012 JUMP JUMPDEST PUSH1 0x0 PUSH2 0x853 DUP5 DUP5 DUP5 PUSH2 0xDD2 JUMP JUMPDEST SWAP5 SWAP4 POP POP POP POP JUMP JUMPDEST PUSH2 0x863 PUSH2 0xD26 JUMP JUMPDEST PUSH1 0x0 DUP2 GT PUSH2 0x8B3 JUMPI PUSH1 0x40 MLOAD PUSH3 0x461BCD PUSH1 0xE5 SHL DUP2 MSTORE PUSH1 0x20 PUSH1 0x4 DUP3 ADD MSTORE PUSH1 0x8 PUSH1 0x24 DUP3 ADD MSTORE PUSH32 0x616D6F756E742030000000000000000000000000000000000000000000000000 PUSH1 0x44 DUP3 ADD MSTORE PUSH1 0x64 ADD PUSH2 0x3D9 JUMP JUMPDEST PUSH2 0x8E8 PUSH1 0x1 PUSH1 0x1 PUSH1 0xA0 SHL SUB PUSH32 0x0 AND CALLER ADDRESS DUP5 PUSH2 0x104F JUMP JUMPDEST PUSH1 0x40 MLOAD DUP2 DUP2 MSTORE PUSH32 0xE42DDE25409A3E8C7C119C1C722610D9E9BD96E73E3CEAD774863C9FFDD870D6 SWAP1 PUSH1 0x20 ADD JUMPDEST PUSH1 0x40 MLOAD DUP1 SWAP2 SUB SWAP1 LOG1 POP JUMP JUMPDEST PUSH2 0x927 PUSH2 0xD26 JUMP JUMPDEST PUSH1 0x3 DUP2 SWAP1 SSTORE PUSH1 0x40 MLOAD DUP2 DUP2 MSTORE PUSH32 0x41D466EBD06FB97E7786086AC8B69B7EB7DA798592036251291D34E9791CDE01 SWAP1 PUSH1 0x20 ADD PUSH2 0x914 JUMP JUMPDEST PUSH2 0x964 PUSH2 0xC7A JUMP JUMPDEST DUP1 DUP1 PUSH2 0x9A3 JUMPI PUSH1 0x40 MLOAD PUSH3 0x461BCD PUSH1 0xE5 SHL DUP2 MSTORE PUSH1 0x20 PUSH1 0x4 DUP3 ADD MSTORE PUSH1 0xE PUSH1 0x24 DUP3 ADD MSTORE PUSH14 0x656D70747920746F6B656E496473 PUSH1 0x90 SHL PUSH1 0x44 DUP3 ADD MSTORE PUSH1 0x64 ADD PUSH2 0x3D9 JUMP JUMPDEST PUSH1 0x0 PUSH2 0x9B0 CALLER DUP6 DUP6 PUSH2 0xDD2 JUMP JUMPDEST SWAP1 POP PUSH1 0x0 JUMPDEST DUP3 DUP2 LT ISZERO PUSH2 0xB6F JUMPI PUSH1 0x0 DUP6 DUP6 DUP4 DUP2 DUP2 LT PUSH2 0x9D1 JUMPI PUSH2 0x9D1 PUSH2 0x14D7 JUMP JUMPDEST PUSH1 0x20 SWAP1 DUP2 MUL SWAP3 SWAP1 SWAP3 ADD CALLDATALOAD PUSH1 0x0 DUP2 DUP2 MSTORE PUSH1 0x5 SWAP1 SWAP4 MSTORE PUSH1 0x40 SWAP1 SWAP3 KECCAK256 SLOAD SWAP2 SWAP3 POP POP PUSH1 0x1 PUSH1 0x1 PUSH1 0xA0 SHL SUB AND CALLER EQ PUSH2 0xA33 JUMPI PUSH1 0x40 MLOAD PUSH3 0x461BCD PUSH1 0xE5 SHL DUP2 MSTORE PUSH1 0x20 PUSH1 0x4 DUP3 ADD MSTORE PUSH1 0xA PUSH1 0x24 DUP3 ADD MSTORE PUSH10 0x3737BA1039BA30B5B2B9 PUSH1 0xB1 SHL PUSH1 0x44 DUP3 ADD MSTORE PUSH1 0x64 ADD PUSH2 0x3D9 JUMP JUMPDEST PUSH1 0x0 DUP2 DUP2 MSTORE PUSH1 0x5 PUSH1 0x20 SWAP1 DUP2 MSTORE PUSH1 0x40 DUP1 DUP4 KECCAK256 DUP1 SLOAD PUSH20 0xFFFFFFFFFFFFFFFFFFFFFFFFFFFFFFFFFFFFFFFF NOT AND DUP2 SSTORE PUSH1 0x1 DUP1 DUP3 ADD DUP6 SWAP1 SSTORE PUSH1 0x2 SWAP1 SWAP2 ADD DUP5 SWAP1 SSTORE CALLER DUP5 MSTORE PUSH1 0x6 SWAP1 SWAP3 MSTORE DUP3 KECCAK256 DUP1 SLOAD SWAP2 SWAP3 SWAP1 SWAP2 PUSH2 0xA8A SWAP1 DUP5 SWAP1 PUSH2 0x1552 JUMP JUMPDEST SWAP3 POP POP DUP2 SWAP1 SSTORE POP PUSH1 0x1 PUSH1 0x4 PUSH1 0x0 DUP3 DUP3 SLOAD PUSH2 0xAA4 SWAP2 SWAP1 PUSH2 0x1552 JUMP JUMPDEST SWAP1 SWAP2 SSTORE POP POP PUSH1 0x40 MLOAD PUSH4 0x21421707 PUSH1 0xE1 SHL DUP2 MSTORE ADDRESS PUSH1 0x4 DUP3 ADD MSTORE CALLER PUSH1 0x24 DUP3 ADD MSTORE PUSH1 0x44 DUP2 ADD DUP3 SWAP1 MSTORE PUSH32 0x0 PUSH1 0x1 PUSH1 0x1 PUSH1 0xA0 SHL SUB AND SWAP1 PUSH4 0x42842E0E SWAP1 PUSH1 0x64 ADD PUSH1 0x0 PUSH1 0x40 MLOAD DUP1 DUP4 SUB DUP2 PUSH1 0x0 DUP8 DUP1 EXTCODESIZE ISZERO DUP1 ISZERO PUSH2 0xB17 JUMPI PUSH1 0x0 DUP1 REVERT JUMPDEST POP GAS CALL ISZERO DUP1 ISZERO PUSH2 0xB2B JUMPI RETURNDATASIZE PUSH1 0x0 DUP1 RETURNDATACOPY RETURNDATASIZE PUSH1 0x0 REVERT JUMPDEST POP POP PUSH1 0x40 MLOAD DUP4 SWAP3 POP CALLER SWAP2 POP PUSH32 0xF5BB82176FEB1B5E747E28471AA92156A04D9F3AB9F45F28E2D704232B93F75 SWAP1 PUSH1 0x0 SWAP1 LOG3 POP DUP1 PUSH2 0xB67 DUP2 PUSH2 0x1539 JUMP JUMPDEST SWAP2 POP POP PUSH2 0x9B5 JUMP JUMPDEST POP DUP1 ISZERO PUSH2 0x6D7 JUMPI PUSH2 0xBAA PUSH1 0x1 PUSH1 0x1 PUSH1 0xA0 SHL SUB PUSH32 0x0 AND CALLER DUP4 PUSH2 0xF07 JUMP JUMPDEST PUSH1 0x40 MLOAD DUP2 DUP2 MSTORE CALLER SWAP1 PUSH32 0xFC30CDDEA38E2BF4D6EA7D3F9ED3B6AD7F176419F4963BD81318067A4AEE73FE SWAP1 PUSH1 0x20 ADD PUSH1 0x40 MLOAD DUP1 SWAP2 SUB SWAP1 LOG2 POP POP PUSH2 0x6E2 PUSH1 0x1 DUP1 SSTORE JUMP JUMPDEST PUSH2 0xBF2 PUSH2 0xD26 JUMP JUMPDEST PUSH1 0x1 PUSH1 0x1 PUSH1 0xA0 SHL SUB DUP2 AND PUSH2 0xC6E JUMPI PUSH1 0x40 MLOAD PUSH3 0x461BCD PUSH1 0xE5 SHL DUP2 MSTORE PUSH1 0x20 PUSH1 0x4 DUP3 ADD MSTORE PUSH1 0x26 PUSH1 0x24 DUP3 ADD MSTORE PUSH32 0x4F776E61626C653A206E6577206F776E657220697320746865207A65726F2061 PUSH1 0x44 DUP3 ADD MSTORE PUSH32 0x6464726573730000000000000000000000000000000000000000000000000000 PUSH1 0x64 DUP3 ADD MSTORE PUSH1 0x84 ADD PUSH2 0x3D9 JUMP JUMPDEST PUSH2 0xC77 DUP2 PUSH2 0xFB5 JUMP JUMPDEST POP JUMP JUMPDEST PUSH1 0x2 PUSH1 0x1 SLOAD SUB PUSH2 0xCCC JUMPI PUSH1 0x40 MLOAD PUSH3 0x461BCD PUSH1 0xE5 SHL DUP2 MSTORE PUSH1 0x20 PUSH1 0x4 DUP3 ADD MSTORE PUSH1 0x1F PUSH1 0x24 DUP3 ADD MSTORE PUSH32 0x5265656E7472616E637947756172643A207265656E7472616E742063616C6C00 PUSH1 0x44 DUP3 ADD MSTORE PUSH1 0x64 ADD PUSH2 0x3D9 JUMP JUMPDEST PUSH1 0x2 PUSH1 0x1 SSTORE JUMP JUMPDEST PUSH1 0x2 SLOAD PUSH1 0xFF AND ISZERO PUSH2 0x6F6 JUMPI PUSH1 0x40 MLOAD PUSH3 0x461BCD PUSH1 0xE5 SHL DUP2 MSTORE PUSH1 0x20 PUSH1 0x4 DUP3 ADD MSTORE PUSH1 0x10 PUSH1 0x24 DUP3 ADD MSTORE PUSH32 0x5061757361626C653A2070617573656400000000000000000000000000000000 PUSH1 0x44 DUP3 ADD MSTORE PUSH1 0x64 ADD PUSH2 0x3D9 JUMP JUMPDEST PUSH1 0x0 SLOAD PUSH1 0x1 PUSH1 0x1 PUSH1 0xA0 SHL SUB AND CALLER EQ PUSH2 0x6F6 JUMPI PUSH1 0x40 MLOAD PUSH3 0x461BCD PUSH1 0xE5 SHL DUP2 MSTORE PUSH1 0x20 PUSH1 0x4 DUP3 ADD DUP2 SWAP1 MSTORE PUSH1 0x24 DUP3 ADD MSTORE PUSH32 0x4F776E61626C653A2063616C6C6572206973206E6F7420746865206F776E6572 PUSH1 0x44 DUP3 ADD MSTORE PUSH1 0x64 ADD PUSH2 0x3D9 JUMP JUMPDEST PUSH2 0xD88 PUSH2 0x10A6 JUMP JUMPDEST PUSH1 0x2 DUP1 SLOAD PUSH1 0xFF NOT AND SWAP1 SSTORE PUSH32 0x5DB9EE0A495BF2E6FF9C91A7834C1BA4FDD244A5E8AA4E537BD38AEAE4B073AA CALLER JUMPDEST PUSH1 0x40 MLOAD PUSH1 0x1 PUSH1 0x1 PUSH1 0xA0 SHL SUB SWAP1 SWAP2 AND DUP2 MSTORE PUSH1 0x20 ADD PUSH1 0x40 MLOAD DUP1 SWAP2 SUB SWAP1 LOG1 JUMP JUMPDEST PUSH1 0x0 DUP2 DUP1 PUSH2 0xE13 JUMPI PUSH1 0x40 MLOAD PUSH3 0x461BCD PUSH1 0xE5 SHL DUP2 MSTORE PUSH1 0x20 PUSH1 0x4 DUP3 ADD MSTORE PUSH1 0xE PUSH1 0x24 DUP3 ADD MSTORE PUSH14 0x656D70747920746F6B656E496473 PUSH1 0x90 SHL PUSH1 0x44 DUP3 ADD MSTORE PUSH1 0x64 ADD PUSH2 0x3D9 JUMP JUMPDEST PUSH1 0x0 JUMPDEST DUP2 DUP2 LT ISZERO PUSH2 0xEFE JUMPI PUSH1 0x0 PUSH1 0x5 PUSH1 0x0 DUP8 DUP8 DUP6 DUP2 DUP2 LT PUSH2 0xE36 JUMPI PUSH2 0xE36 PUSH2 0x14D7 JUMP JUMPDEST PUSH1 0x20 SWAP1 DUP2 MUL SWAP3 SWAP1 SWAP3 ADD CALLDATALOAD DUP4 MSTORE POP DUP2 DUP2 ADD SWAP3 SWAP1 SWAP3 MSTORE PUSH1 0x40 SWAP1 DUP2 ADD PUSH1 0x0 KECCAK256 DUP2 MLOAD PUSH1 0x60 DUP2 ADD DUP4 MSTORE DUP2 SLOAD PUSH1 0x1 PUSH1 0x1 PUSH1 0xA0 SHL SUB SWAP1 DUP2 AND DUP1 DUP4 MSTORE PUSH1 0x1 DUP5 ADD SLOAD SWAP6 DUP4 ADD SWAP6 SWAP1 SWAP6 MSTORE PUSH1 0x2 SWAP1 SWAP3 ADD SLOAD SWAP3 DUP2 ADD SWAP3 SWAP1 SWAP3 MSTORE SWAP1 SWAP3 POP DUP9 AND EQ PUSH2 0xEC2 JUMPI PUSH1 0x40 MLOAD PUSH3 0x461BCD PUSH1 0xE5 SHL DUP2 MSTORE PUSH1 0x20 PUSH1 0x4 DUP3 ADD MSTORE PUSH1 0xA PUSH1 0x24 DUP3 ADD MSTORE PUSH10 0x3737BA1039BA30B5B2B9 PUSH1 0xB1 SHL PUSH1 0x44 DUP3 ADD MSTORE PUSH1 0x64 ADD PUSH2 0x3D9 JUMP JUMPDEST PUSH1 0x3 SLOAD PUSH1 0x40 DUP3 ADD MLOAD PUSH2 0xED4 SWAP1 TIMESTAMP PUSH2 0x1552 JUMP JUMPDEST PUSH2 0xEDE SWAP2 SWAP1 PUSH2 0x1565 JUMP JUMPDEST PUSH2 0xEE8 SWAP1 DUP6 PUSH2 0x1520 JUMP JUMPDEST SWAP4 POP POP DUP1 DUP1 PUSH2 0xEF6 SWAP1 PUSH2 0x1539 JUMP JUMPDEST SWAP2 POP POP PUSH2 0xE16 JUMP JUMPDEST POP POP SWAP4 SWAP3 POP POP POP JUMP JUMPDEST PUSH1 0x40 MLOAD PUSH1 0x1 PUSH1 0x1 PUSH1 0xA0 SHL SUB DUP4 AND PUSH1 0x24 DUP3 ADD MSTORE PUSH1 0x44 DUP2 ADD DUP3 SWAP1 MSTORE PUSH2 0xFB0 SWAP1 DUP5 SWAP1 PUSH32 0xA9059CBB00000000000000000000000000000000000000000000000000000000 SWAP1 PUSH1 0x64 ADD JUMPDEST PUSH1 0x40 DUP1 MLOAD PUSH1 0x1F NOT DUP2 DUP5 SUB ADD DUP2 MSTORE SWAP2 SWAP1 MSTORE PUSH1 0x20 DUP2 ADD DUP1 MLOAD PUSH28 0xFFFFFFFFFFFFFFFFFFFFFFFFFFFFFFFFFFFFFFFFFFFFFFFFFFFFFFFF AND PUSH32 0xFFFFFFFF00000000000000000000000000000000000000000000000000000000 SWAP1 SWAP4 AND SWAP3 SWAP1 SWAP3 OR SWAP1 SWAP2 MSTORE PUSH2 0x10F8 JUMP JUMPDEST POP POP POP JUMP JUMPDEST PUSH1 0x0 DUP1 SLOAD PUSH1 0x1 PUSH1 0x1 PUSH1 0xA0 SHL SUB DUP4 DUP2 AND PUSH20 0xFFFFFFFFFFFFFFFFFFFFFFFFFFFFFFFFFFFFFFFF NOT DUP4 AND DUP2 OR DUP5 SSTORE PUSH1 0x40 MLOAD SWAP2 SWAP1 SWAP3 AND SWAP3 DUP4 SWAP2 PUSH32 0x8BE0079C531659141344CD1FD0A4F28419497F9722A3DAAFE3B4186F6B6457E0 SWAP2 SWAP1 LOG3 POP POP JUMP JUMPDEST PUSH2 0x101A PUSH2 0xCD3 JUMP JUMPDEST PUSH1 0x2 DUP1 SLOAD PUSH1 0xFF NOT AND PUSH1 0x1 OR SWAP1 SSTORE PUSH32 0x62E78CEA01BEE320CD4E420270B5EA74000D11B0C9F74754EBDBFC544B05A258 PUSH2 0xDB5 CALLER SWAP1 JUMP JUMPDEST PUSH1 0x40 MLOAD PUSH1 0x1 PUSH1 0x1 PUSH1 0xA0 SHL SUB DUP1 DUP6 AND PUSH1 0x24 DUP4 ADD MSTORE DUP4 AND PUSH1 0x44 DUP3 ADD MSTORE PUSH1 0x64 DUP2 ADD DUP3 SWAP1 MSTORE PUSH2 0x10A0 SWAP1 DUP6 SWAP1 PUSH32 0x23B872DD00000000000000000000000000000000000000000000000000000000 SWAP1 PUSH1 0x84 ADD PUSH2 0xF4C JUMP JUMPDEST POP POP POP POP JUMP JUMPDEST PUSH1 0x2 SLOAD PUSH1 0xFF AND PUSH2 0x6F6 JUMPI PUSH1 0x40 MLOAD PUSH3 0x461BCD PUSH1 0xE5 SHL DUP2 MSTORE PUSH1 0x20 PUSH1 0x4 DUP3 ADD MSTORE PUSH1 0x14 PUSH1 0x24 DUP3 ADD MSTORE PUSH32 0x5061757361626C653A206E6F7420706175736564000000000000000000000000 PUSH1 0x44 DUP3 ADD MSTORE PUSH1 0x64 ADD PUSH2 0x3D9 JUMP JUMPDEST PUSH1 0x0 PUSH2 0x114D DUP3 PUSH1 0x40 MLOAD DUP1 PUSH1 0x40 ADD PUSH1 0x40 MSTORE DUP1 PUSH1 0x20 DUP2 MSTORE PUSH1 0x20 ADD PUSH32 0x5361666545524332303A206C6F772D6C6576656C2063616C6C206661696C6564 DUP2 MSTORE POP DUP6 PUSH1 0x1 PUSH1 0x1 PUSH1 0xA0 SHL SUB AND PUSH2 0x11E0 SWAP1 SWAP3 SWAP2 SWAP1 PUSH4 0xFFFFFFFF AND JUMP JUMPDEST SWAP1 POP DUP1 MLOAD PUSH1 0x0 EQ DUP1 PUSH2 0x116E JUMPI POP DUP1 DUP1 PUSH1 0x20 ADD SWAP1 MLOAD DUP2 ADD SWAP1 PUSH2 0x116E SWAP2 SWAP1 PUSH2 0x157C JUMP JUMPDEST PUSH2 0xFB0 JUMPI PUSH1 0x40 MLOAD PUSH3 0x461BCD PUSH1 0xE5 SHL DUP2 MSTORE PUSH1 0x20 PUSH1 0x4 DUP3 ADD MSTORE PUSH1 0x2A PUSH1 0x24 DUP3 ADD MSTORE PUSH32 0x5361666545524332303A204552433230206F7065726174696F6E20646964206E PUSH1 0x44 DUP3 ADD MSTORE PUSH32 0x6F74207375636365656400000000000000000000000000000000000000000000 PUSH1 0x64 DUP3 ADD MSTORE PUSH1 0x84 ADD PUSH2 0x3D9 JUMP JUMPDEST PUSH1 0x60 PUSH2 0x853 DUP5 DUP5 PUSH1 0x0 DUP6 DUP6 PUSH1 0x0 DUP1 DUP7 PUSH1 0x1 PUSH1 0x1 PUSH1 0xA0 SHL SUB AND DUP6 DUP8 PUSH1 0x40 MLOAD PUSH2 0x1207 SWAP2 SWAP1 PUSH2 0x15C2 JUMP JUMPDEST PUSH1 0x0 PUSH1 0x40 MLOAD DUP1 DUP4 SUB DUP2 DUP6 DUP8 GAS CALL SWAP3 POP POP POP RETURNDATASIZE DUP1 PUSH1 0x0 DUP2 EQ PUSH2 0x1244 JUMPI PUSH1 0x40 MLOAD SWAP2 POP PUSH1 0x1F NOT PUSH1 0x3F RETURNDATASIZE ADD AND DUP3 ADD PUSH1 0x40 MSTORE RETURNDATASIZE DUP3 MSTORE RETURNDATASIZE PUSH1 0x0 PUSH1 0x20 DUP5 ADD RETURNDATACOPY PUSH2 0x1249 JUMP JUMPDEST PUSH1 0x60 SWAP2 POP JUMPDEST POP SWAP2 POP SWAP2 POP PUSH2 0x125A DUP8 DUP4 DUP4 DUP8 PUSH2 0x1265 JUMP JUMPDEST SWAP8 SWAP7 POP POP POP POP POP POP POP JUMP JUMPDEST PUSH1 0x60 DUP4 ISZERO PUSH2 0x12D4 JUMPI DUP3 MLOAD PUSH1 0x0 SUB PUSH2 0x12CD JUMPI PUSH1 0x1 PUSH1 0x1 PUSH1 0xA0 SHL SUB DUP6 AND EXTCODESIZE PUSH2 0x12CD JUMPI PUSH1 0x40 MLOAD PUSH3 0x461BCD PUSH1 0xE5 SHL DUP2 MSTORE PUSH1 0x20 PUSH1 0x4 DUP3 ADD MSTORE PUSH1 0x1D PUSH1 0x24 DUP3 ADD MSTORE PUSH32 0x416464726573733A2063616C6C20746F206E6F6E2D636F6E7472616374000000 PUSH1 0x44 DUP3 ADD MSTORE PUSH1 0x64 ADD PUSH2 0x3D9 JUMP JUMPDEST POP DUP2 PUSH2 0x853 JUMP JUMPDEST PUSH2 0x853 DUP4 DUP4 DUP2 MLOAD ISZERO PUSH2 0x12E9 JUMPI DUP2 MLOAD DUP1 DUP4 PUSH1 0x20 ADD REVERT JUMPDEST DUP1 PUSH1 0x40 MLOAD PUSH3 0x461BCD PUSH1 0xE5 SHL DUP2 MSTORE PUSH1 0x4 ADD PUSH2 0x3D9 SWAP2 SWAP1 PUSH2 0x15DE JUMP JUMPDEST PUSH1 0x0 DUP1 DUP4 PUSH1 0x1F DUP5 ADD SLT PUSH2 0x1315 JUMPI PUSH1 0x0 DUP1 REVERT JUMPDEST POP DUP2 CALLDATALOAD PUSH8 0xFFFFFFFFFFFFFFFF DUP2 GT ISZERO PUSH2 0x132D JUMPI PUSH1 0x0 DUP1 REVERT JUMPDEST PUSH1 0x20 DUP4 ADD SWAP2 POP DUP4 PUSH1 0x20 DUP3 PUSH1 0x5 SHL DUP6 ADD ADD GT ISZERO PUSH2 0x1348 JUMPI PUSH1 0x0 DUP1 REVERT JUMPDEST SWAP3 POP SWAP3 SWAP1 POP JUMP JUMPDEST PUSH1 0x0 DUP1 PUSH1 0x20 DUP4 DUP6 SUB SLT ISZERO PUSH2 0x1362 JUMPI PUSH1 0x0 DUP1 REVERT JUMPDEST DUP3 CALLDATALOAD PUSH8 0xFFFFFFFFFFFFFFFF DUP2 GT ISZERO PUSH2 0x1379 JUMPI PUSH1 0x0 DUP1 REVERT JUMPDEST PUSH2 0x1385 DUP6 DUP3 DUP7 ADD PUSH2 0x1303 JUMP JUMPDEST SWAP1 SWAP7 SWAP1 SWAP6 POP SWAP4 POP POP POP POP JUMP JUMPDEST PUSH1 0x1 PUSH1 0x1 PUSH1 0xA0 SHL SUB DUP2 AND DUP2 EQ PUSH2 0xC77 JUMPI PUSH1 0x0 DUP1 REVERT JUMPDEST PUSH1 0x0 DUP1 PUSH1 0x0 DUP1 PUSH1 0x0 PUSH1 0x80 DUP7 DUP9 SUB SLT ISZERO PUSH2 0x13BE JUMPI PUSH1 0x0 DUP1 REVERT JUMPDEST DUP6 CALLDATALOAD PUSH2 0x13C9 DUP2 PUSH2 0x1391 JUMP JUMPDEST SWAP5 POP PUSH1 0x20 DUP7 ADD CALLDATALOAD PUSH2 0x13D9 DUP2 PUSH2 0x1391 JUMP JUMPDEST SWAP4 POP PUSH1 0x40 DUP7 ADD CALLDATALOAD SWAP3 POP PUSH1 0x60 DUP7 ADD CALLDATALOAD PUSH8 0xFFFFFFFFFFFFFFFF DUP1 DUP3 GT ISZERO PUSH2 0x13FD JUMPI PUSH1 0x0 DUP1 REVERT JUMPDEST DUP2 DUP9 ADD SWAP2 POP DUP9 PUSH1 0x1F DUP4 ADD SLT PUSH2 0x1411 JUMPI PUSH1 0x0 DUP1 REVERT JUMPDEST DUP2 CALLDATALOAD DUP2 DUP2 GT ISZERO PUSH2 0x1420 JUMPI PUSH1 0x0 DUP1 REVERT JUMPDEST DUP10 PUSH1 0x20 DUP3 DUP6 ADD ADD GT ISZERO PUSH2 0x1432 JUMPI PUSH1 0x0 DUP1 REVERT JUMPDEST SWAP7 SWAP10 SWAP6 SWAP9 POP SWAP4 SWAP7 POP PUSH1 0x20 ADD SWAP5 SWAP4 SWAP3 POP POP POP JUMP JUMPDEST PUSH1 0x0 PUSH1 0x20 DUP3 DUP5 SUB SLT ISZERO PUSH2 0x1457 JUMPI PUSH1 0x0 DUP1 REVERT JUMPDEST POP CALLDATALOAD SWAP2 SWAP1 POP JUMP JUMPDEST PUSH1 0x0 DUP1 PUSH1 0x0 PUSH1 0x40 DUP5 DUP7 SUB SLT ISZERO PUSH2 0x1473 JUMPI PUSH1 0x0 DUP1 REVERT JUMPDEST DUP4 CALLDATALOAD PUSH2 0x147E DUP2 PUSH2 0x1391 JUMP JUMPDEST SWAP3 POP PUSH1 0x20 DUP5 ADD CALLDATALOAD PUSH8 0xFFFFFFFFFFFFFFFF DUP2 GT ISZERO PUSH2 0x149A JUMPI PUSH1 0x0 DUP1 REVERT JUMPDEST PUSH2 0x14A6 DUP7 DUP3 DUP8 ADD PUSH2 0x1303 JUMP JUMPDEST SWAP5 SWAP8 SWAP1 SWAP7 POP SWAP4 SWAP5 POP POP POP POP JUMP JUMPDEST PUSH1 0x0 PUSH1 0x20 DUP3 DUP5 SUB SLT ISZERO PUSH2 0x14C5 JUMPI PUSH1 0x0 DUP1 REVERT JUMPDEST DUP2 CALLDATALOAD PUSH2 0x14D0 DUP2 PUSH2 0x1391 JUMP JUMPDEST SWAP4 SWAP3 POP POP POP JUMP JUMPDEST PUSH4 0x4E487B71 PUSH1 0xE0 SHL PUSH1 0x0 MSTORE PUSH1 0x32 PUSH1 0x4 MSTORE PUSH1 0x24 PUSH1 0x0 REVERT JUMPDEST PUSH1 0x0 PUSH1 0x20 DUP3 DUP5 SUB SLT ISZERO PUSH2 0x14FF JUMPI PUSH1 0x0 DUP1 REVERT JUMPDEST DUP2 MLOAD PUSH2 0x14D0 DUP2 PUSH2 0x1391 JUMP JUMPDEST PUSH4 0x4E487B71 PUSH1 0xE0 SHL PUSH1 0x0 MSTORE PUSH1 0x11 PUSH1 0x4 MSTORE PUSH1 0x24 PUSH1 0x0 REVERT JUMPDEST DUP1 DUP3 ADD DUP1 DUP3 GT ISZERO PUSH2 0x1533 JUMPI PUSH2 0x1533 PUSH2 0x150A JUMP JUMPDEST SWAP3 SWAP2 POP POP JUMP JUMPDEST PUSH1 0x0 PUSH1 0x1 DUP3 ADD PUSH2 0x154B JUMPI PUSH2 0x154B PUSH2 0x150A JUMP JUMPDEST POP PUSH1 0x1 ADD SWAP1 JUMP JUMPDEST DUP2 DUP2 SUB DUP2 DUP2 GT ISZERO PUSH2 0x1533 JUMPI PUSH2 0x1533 PUSH2 0x150A JUMP JUMPDEST DUP1 DUP3 MUL DUP2 ISZERO DUP3 DUP3 DIV DUP5 EQ OR PUSH2 0x1533 JUMPI PUSH2 0x1533 PUSH2 0x150A JUMP JUMPDEST PUSH1 0x0 PUSH1 0x20 DUP3 DUP5 SUB SLT ISZERO PUSH2 0x158E JUMPI PUSH1 0x0 DUP1 REVERT JUMPDEST DUP2 MLOAD DUP1 ISZERO ISZERO DUP2 EQ PUSH2 0x14D0 JUMPI PUSH1 0x0 DUP1 REVERT JUMPDEST PUSH1 0x0 JUMPDEST DUP4 DUP2 LT ISZERO PUSH2 0x15B9 JUMPI DUP2 DUP2 ADD MLOAD DUP4 DUP3 ADD MSTORE PUSH1 0x20 ADD PUSH2 0x15A1 JUMP JUMPDEST POP POP PUSH1 0x0 SWAP2 ADD MSTORE JUMP JUMPDEST PUSH1 0x0 DUP3 MLOAD PUSH2 0x15D4 DUP2 DUP5 PUSH1 0x20 DUP8 ADD PUSH2 0x159E JUMP JUMPDEST SWAP2 SWAP1 SWAP2 ADD SWAP3 SWAP2 POP POP JUMP JUMPDEST PUSH1 0x20 DUP2 MSTORE PUSH1 0x0 DUP3 MLOAD DUP1 PUSH1 0x20 DUP5 ADD MSTORE PUSH2 0x15FD DUP2 PUSH1 0x40 DUP6 ADD PUSH1 0x20 DUP8 ADD PUSH2 0x159E JUMP JUMPDEST PUSH1 0x1F ADD PUSH1 0x1F NOT AND SWAP2 SWAP1 SWAP2 ADD PUSH1 0x40 ADD SWAP3 SWAP2 POP POP JUMP INVALID LOG2 PUSH5 0x6970667358 0x22 SLT KECCAK256 0x1E SAR 0xE7 0xBF RETURNDATACOPY PUSH5 0x2920B8577A 0xF7 PREVRANDAO PUSH12 0x9F07AD921DA5AB0357B8409B 0xBE PUSH10 0x73154AD264736F6C6343 STOP ADDMOD SGT STOP CALLER "},"methodIdentifiers":{"claimRewards(uint256[])":"5eac6239","fundRewards(uint256)":"93707a19","nft()":"47ccca02","onERC721Received(address,address,uint256,bytes)":"150b7a02","owner()":"8da5cb5b","pause()":"8456cb59","paused()":"5c975abb","pendingRewards(address,uint256[])":"87a7433b","positionOf(uint256)":"46f96023","renounceOwnership()":"715018a6","rewardPerSecond()":"8f10369a","rewardToken()":"f7c618c1","setRewardRate(uint256)":"9e447fc6","stake(uint256[])":"0fbf0a93","totalStaked()":"817b1cd2","transferOwnership(address)":"f2fde38b","unpause()":"3f4ba83a","unstake(uint256[])":"e449f341","userStakedCount(address)":"9022de7e"}},"storageLayout":{"storage":[{"astId":7,"contract":"contracts/NFTStaking.sol:NFTStaking","label":"_owner","offset":0,"slot":"0","type":"t_address"},{"astId":231,"contract":"contracts/NFTStaking.sol:NFTStaking","label":"_status","offset":0,"slot":"1","type":"t_uint256"},{"astId":130,"contract":"contracts/NFTStaking.sol:NFTStaking","label":"_paused","offset":0,"slot":"2","type":"t_bool"},{"astId":1317,"contract":"contracts/NFTStaking.sol:NFTStaking","label":"rewardPerSecond","offset":0,"slot":"3","type":"t_uint256"},{"astId":1319,"contract":"contracts/NFTStaking.sol:NFTStaking","label":"totalStaked","offset":0,"slot":"4","type":"t_uint256"},{"astId":1324,"contract":"contracts/NFTStaking.sol:NFTStaking","label":"positionOf","offset":0,"slot":"5","type":"t_mapping(t_uint256,t_struct(StakePosition)1309_storage)"},{"astId":1328,"contract":"contracts/NFTStaking.sol:NFTStaking","label":"userStakedCount","offset":0,"slot":"6","type":"t_mapping(t_address,t_uint256)"}],"types":{"t_address":{"encoding":"inplace","label":"address","numberOfBytes":"20"},"t_bool":{"encoding":"inplace","label":"bool","numberOfBytes":"1"},"t_mapping(t_address,t_uint256)":{"encoding":"mapping","key":"t_address","label":"mapping(address => uint256)","numberOfBytes":"32","value":"t_uint256"},"t_mapping(t_uint256,t_struct(StakePosition)1309_storage)":{"encoding":"mapping","key":"t_uint256","label":"mapping(uint256 => struct NFTStaking.StakePosition)","numberOfBytes":"32","value":"t_struct(StakePosition)1309_storage"},"t_struct(StakePosition)1309_storage":{"encoding":"inplace","label":"struct NFTStaking.StakePosition","members":[{"astId":1304,"contract":"contracts/NFTStaking.sol:NFTStaking","label":"owner","offset":0,"slot":"0","type":"t_address"},{"astId":1306,"contract":"contracts/NFTStaking.sol:NFTStaking","label":"stakedAt","offset":0,"slot":"1","type":"t_uint256"},{"astId":1308,"contract":"contracts/NFTStaking.sol:NFTStaking","label":"lastClaimAt","offset":0,"slot":"2","type":"t_uint256"}],"numberOfBytes":"96"},"t_uint256":{"encoding":"inplace","label":"uint256","numberOfBytes":"32"}}}}}}