{
  "_format": "hh-sol-artifact-1",
  "contractName": "TieredStaking",
  "sourceName": "contracts/multi_ai.sol",
  "abi": [
    {
      "inputs": [
        {
          "internalType": "address",
          "name": "_stakingToken",
          "type": "address"
        },
        {
          "internalType": "address",
          "name": "_rewardToken",
          "type": "address"
        },
        {
          "internalType": "uint256",
          "name": "_baseRewardRate",
          "type": "uint256"
        }
      ],
      "stateMutability": "nonpayable",
      "type": "constructor"
    },
    {
      "anonymous": false,
      "inputs": [
        {
          "indexed": true,
          "internalType": "address",
          "name": "previousOwner",
          "type": "address"
        },
        {
          "indexed": true,
          "internalType": "address",
          "name": "newOwner",
          "type": "address"
        }
      ],
      "name": "OwnershipTransferred",
      "type": "event"
    },
    {
      "anonymous": false,
      "inputs": [
        {
          "indexed": true,
          "internalType": "address",
          "name": "user",
          "type": "address"
        },
        {
          "indexed": false,
          "internalType": "uint256",
          "name": "amount",
          "type": "uint256"
        },
        {
          "indexed": false,
          "internalType": "uint256",
          "name": "stakeIndex",
          "type": "uint256"
        }
      ],
      "name": "RewardClaimed",
      "type": "event"
    },
    {
      "anonymous": false,
      "inputs": [
        {
          "indexed": true,
          "internalType": "address",
          "name": "user",
          "type": "address"
        },
        {
          "indexed": false,
          "internalType": "uint256",
          "name": "amount",
          "type": "uint256"
        },
        {
          "indexed": false,
          "internalType": "uint256",
          "name": "tierId",
          "type": "uint256"
        },
        {
          "indexed": false,
          "internalType": "uint256",
          "name": "stakeIndex",
          "type": "uint256"
        }
      ],
      "name": "Staked",
      "type": "event"
    },
    {
      "anonymous": false,
      "inputs": [
        {
          "indexed": true,
          "internalType": "uint256",
          "name": "tierId",
          "type": "uint256"
        },
        {
          "indexed": false,
          "internalType": "uint256",
          "name": "minAmount",
          "type": "uint256"
        },
        {
          "indexed": false,
          "internalType": "uint256",
          "name": "maxAmount",
          "type": "uint256"
        },
        {
          "indexed": false,
          "internalType": "uint256",
          "name": "multiplier",
          "type": "uint256"
        },
        {
          "indexed": false,
          "internalType": "uint256",
          "name": "lockDuration",
          "type": "uint256"
        }
      ],
      "name": "TierCreated",
      "type": "event"
    },
    {
      "anonymous": false,
      "inputs": [
        {
          "indexed": true,
          "internalType": "uint256",
          "name": "tierId",
          "type": "uint256"
        },
        {
          "indexed": false,
          "internalType": "bool",
          "name": "isActive",
          "type": "bool"
        }
      ],
      "name": "TierUpdated",
      "type": "event"
    },
    {
      "anonymous": false,
      "inputs": [
        {
          "indexed": true,
          "internalType": "address",
          "name": "user",
          "type": "address"
        },
        {
          "indexed": false,
          "internalType": "uint256",
          "name": "amount",
          "type": "uint256"
        },
        {
          "indexed": false,
          "internalType": "uint256",
          "name": "stakeIndex",
          "type": "uint256"
        }
      ],
      "name": "Withdrawn",
      "type": "event"
    },
    {
      "inputs": [],
      "name": "baseRewardRate",
      "outputs": [
        {
          "internalType": "uint256",
          "name": "",
          "type": "uint256"
        }
      ],
      "stateMutability": "view",
      "type": "function"
    },
    {
      "inputs": [
        {
          "internalType": "address",
          "name": "user",
          "type": "address"
        },
        {
          "internalType": "uint256",
          "name": "stakeIndex",
          "type": "uint256"
        }
      ],
      "name": "calculateRewards",
      "outputs": [
        {
          "internalType": "uint256",
          "name": "",
          "type": "uint256"
        }
      ],
      "stateMutability": "view",
      "type": "function"
    },
    {
      "inputs": [
        {
          "internalType": "uint256",
          "name": "stakeIndex",
          "type": "uint256"
        }
      ],
      "name": "claimRewards",
      "outputs": [],
      "stateMutability": "nonpayable",
      "type": "function"
    },
    {
      "inputs": [
        {
          "internalType": "uint256",
          "name": "minAmount",
          "type": "uint256"
        },
        {
          "internalType": "uint256",
          "name": "maxAmount",
          "type": "uint256"
        },
        {
          "internalType": "uint256",
          "name": "rewardMultiplier",
          "type": "uint256"
        },
        {
          "internalType": "uint256",
          "name": "lockDuration",
          "type": "uint256"
        }
      ],
      "name": "createTier",
      "outputs": [],
      "stateMutability": "nonpayable",
      "type": "function"
    },
    {
      "inputs": [
        {
          "internalType": "uint256",
          "name": "stakeIndex",
          "type": "uint256"
        }
      ],
      "name": "emergencyWithdraw",
      "outputs": [],
      "stateMutability": "nonpayable",
      "type": "function"
    },
    {
      "inputs": [
        {
          "internalType": "uint256",
          "name": "amount",
          "type": "uint256"
        }
      ],
      "name": "fundRewards",
      "outputs": [],
      "stateMutability": "nonpayable",
      "type": "function"
    },
    {
      "inputs": [
        {
          "internalType": "address",
          "name": "user",
          "type": "address"
        }
      ],
      "name": "getUserStakes",
      "outputs": [
        {
          "components": [
            {
              "internalType": "uint256",
              "name": "amount",
              "type": "uint256"
            },
            {
              "internalType": "uint256",
              "name": "tierId",
              "type": "uint256"
            },
            {
              "internalType": "uint256",
              "name": "stakedAt",
              "type": "uint256"
            },
            {
              "internalType": "uint256",
              "name": "lastClaimed",
              "type": "uint256"
            },
            {
              "internalType": "uint256",
              "name": "pendingRewards",
              "type": "uint256"
            }
          ],
          "internalType": "struct TieredStaking.StakeInfo[]",
          "name": "",
          "type": "tuple[]"
        }
      ],
      "stateMutability": "view",
      "type": "function"
    },
    {
      "inputs": [],
      "name": "owner",
      "outputs": [
        {
          "internalType": "address",
          "name": "",
          "type": "address"
        }
      ],
      "stateMutability": "view",
      "type": "function"
    },
    {
      "inputs": [],
      "name": "renounceOwnership",
      "outputs": [],
      "stateMutability": "nonpayable",
      "type": "function"
    },
    {
      "inputs": [],
      "name": "rewardToken",
      "outputs": [
        {
          "internalType": "contract IERC20",
          "name": "",
          "type": "address"
        }
      ],
      "stateMutability": "view",
      "type": "function"
    },
    {
      "inputs": [
        {
          "internalType": "uint256",
          "name": "newRate",
          "type": "uint256"
        }
      ],
      "name": "setBaseRewardRate",
      "outputs": [],
      "stateMutability": "nonpayable",
      "type": "function"
    },
    {
      "inputs": [
        {
          "internalType": "uint256",
          "name": "tierId",
          "type": "uint256"
        },
        {
          "internalType": "bool",
          "name": "isActive",
          "type": "bool"
        }
      ],
      "name": "setTierStatus",
      "outputs": [],
      "stateMutability": "nonpayable",
      "type": "function"
    },
    {
      "inputs": [
        {
          "internalType": "uint256",
          "name": "amount",
          "type": "uint256"
        },
        {
          "internalType": "uint256",
          "name": "tierId",
          "type": "uint256"
        }
      ],
      "name": "stake",
      "outputs": [],
      "stateMutability": "nonpayable",
      "type": "function"
    },
    {
      "inputs": [],
      "name": "stakingToken",
      "outputs": [
        {
          "internalType": "contract IERC20",
          "name": "",
          "type": "address"
        }
      ],
      "stateMutability": "view",
      "type": "function"
    },
    {
      "inputs": [],
      "name": "tierCount",
      "outputs": [
        {
          "internalType": "uint256",
          "name": "",
          "type": "uint256"
        }
      ],
      "stateMutability": "view",
      "type": "function"
    },
    {
      "inputs": [
        {
          "internalType": "uint256",
          "name": "",
          "type": "uint256"
        }
      ],
      "name": "tiers",
      "outputs": [
        {
          "internalType": "uint256",
          "name": "minAmount",
          "type": "uint256"
        },
        {
          "internalType": "uint256",
          "name": "maxAmount",
          "type": "uint256"
        },
        {
          "internalType": "uint256",
          "name": "rewardMultiplier",
          "type": "uint256"
        },
        {
          "internalType": "uint256",
          "name": "lockDuration",
          "type": "uint256"
        },
        {
          "internalType": "bool",
          "name": "isActive",
          "type": "bool"
        }
      ],
      "stateMutability": "view",
      "type": "function"
    },
    {
      "inputs": [],
      "name": "totalStaked",
      "outputs": [
        {
          "internalType": "uint256",
          "name": "",
          "type": "uint256"
        }
      ],
      "stateMutability": "view",
      "type": "function"
    },
    {
      "inputs": [
        {
          "internalType": "address",
          "name": "",
          "type": "address"
        }
      ],
      "name": "totalUserStaked",
      "outputs": [
        {
          "internalType": "uint256",
          "name": "",
          "type": "uint256"
        }
      ],
      "stateMutability": "view",
      "type": "function"
    },
    {
      "inputs": [
        {
          "internalType": "address",
          "name": "newOwner",
          "type": "address"
        }
      ],
      "name": "transferOwnership",
      "outputs": [],
      "stateMutability": "nonpayable",
      "type": "function"
    },
    {
      "inputs": [
        {
          "internalType": "address",
          "name": "",
          "type": "address"
        },
        {
          "internalType": "uint256",
          "name": "",
          "type": "uint256"
        }
      ],
      "name": "userStakes",
      "outputs": [
        {
          "internalType": "uint256",
          "name": "amount",
          "type": "uint256"
        },
        {
          "internalType": "uint256",
          "name": "tierId",
          "type": "uint256"
        },
        {
          "internalType": "uint256",
          "name": "stakedAt",
          "type": "uint256"
        },
        {
          "internalType": "uint256",
          "name": "lastClaimed",
          "type": "uint256"
        },
        {
          "internalType": "uint256",
          "name": "pendingRewards",
          "type": "uint256"
        }
      ],
      "stateMutability": "view",
      "type": "function"
    },
    {
      "inputs": [
        {
          "internalType": "uint256",
          "name": "stakeIndex",
          "type": "uint256"
        }
      ],
      "name": "withdrawStake",
      "outputs": [],
      "stateMutability": "nonpayable",
      "type": "function"
    }
  ],
  "bytecode": "0x60806040523480156200001157600080fd5b5060405162001c8838038062001c888339810160408190526200003491620000e9565b6200003f336200007c565b60018055600280546001600160a01b039485166001600160a01b03199182161790915560038054939094169216919091179091556004556200012a565b600080546001600160a01b038381166001600160a01b0319831681178455604051919092169283917f8be0079c531659141344cd1fd0a4f28419497f9722a3daafe3b4186f6b6457e09190a35050565b80516001600160a01b0381168114620000e457600080fd5b919050565b600080600060608486031215620000ff57600080fd5b6200010a84620000cc565b92506200011a60208501620000cc565b9150604084015190509250925092565b611b4e806200013a6000396000f3fe608060405234801561001057600080fd5b50600436106101775760003560e01c8063817b1cd2116100d8578063afbf34401161008c578063f0a9abe711610066578063f0a9abe71461036d578063f2fde38b14610380578063f7c618c11461039357600080fd5b8063afbf344014610316578063b5d5b5fa1461031f578063beb8314c1461035a57600080fd5b80638da5cb5b116100bd5780638da5cb5b146102e957806393707a19146102fa57806396b55f7d1461030d57600080fd5b8063817b1cd2146102c0578063842e2981146102c957600080fd5b80633a1077391161012f578063715018a611610114578063715018a61461027a57806372f702f3146102825780637b0472f0146102ad57600080fd5b80633a107739146102395780635312ea8e1461026757600080fd5b80630962ef79116101605780630962ef79146102005780631ebb4fdc1461021357806325d5971f1461022657600080fd5b8063039af9eb1461017c57806307738af8146101eb575b600080fd5b6101bc61018a36600461184d565b600660205260009081526040902080546001820154600283015460038401546004909401549293919290919060ff1685565b6040805195865260208601949094529284019190915260608301521515608082015260a0015b60405180910390f35b6101fe6101f9366004611866565b6103a6565b005b6101fe61020e36600461184d565b61051f565b6101fe6102213660046118a6565b6106a3565b6101fe61023436600461184d565b610752565b6102596102473660046118f2565b60096020526000908152604090205481565b6040519081526020016101e2565b6101fe61027536600461184d565b610a97565b6101fe610cb2565b600254610295906001600160a01b031681565b6040516001600160a01b0390911681526020016101e2565b6101fe6102bb366004611914565b610cc6565b61025960055481565b6102dc6102d73660046118f2565b6110a3565b6040516101e29190611936565b6000546001600160a01b0316610295565b6101fe61030836600461184d565b61114a565b61025960075481565b61025960045481565b61033261032d3660046119a4565b61116a565b604080519586526020860194909452928401919091526060830152608082015260a0016101e2565b6102596103683660046119a4565b6111b8565b6101fe61037b36600461184d565b611304565b6101fe61038e3660046118f2565b611311565b600354610295906001600160a01b031681565b6103ae61139e565b8284106104025760405162461bcd60e51b815260206004820152600f60248201527f496e76616c696420616d6f756e7473000000000000000000000000000000000060448201526064015b60405180910390fd5b600082116104525760405162461bcd60e51b815260206004820152601260248201527f496e76616c6964206d756c7469706c696572000000000000000000000000000060448201526064016103f9565b60078054906000610462836119e4565b90915550506040805160a081018252858152602080820186815282840186815260608085018781526001608080880182815260078054600090815260068a528b902099518a559651928901929092559351600288015590516003870155516004909501805460ff191695151595909517909455905484518981529283018890529382018690529181018490527f1d87edd766d4a80321c9b268fd614fda07e60cdebe8c75fa2e5fa8584dbbf90b910160405180910390a250505050565b6105276113f8565b3360009081526008602052604090205481106105755760405162461bcd60e51b815260206004820152600d60248201526c496e76616c6964207374616b6560981b60448201526064016103f9565b600061058133836111b8565b9050600081116105d35760405162461bcd60e51b815260206004820152601360248201527f4e6f207265776172647320746f20636c61696d0000000000000000000000000060448201526064016103f9565b3360009081526008602052604090208054429190849081106105f7576105f76119fd565b600091825260208083206003600590930201919091019290925533815260089091526040812080548490811061062f5761062f6119fd565b600091825260209091206004600590920201015560035461065a906001600160a01b03163383611451565b604080518281526020810184905233917ff01da32686223933d8a18a391060918c7f11a3648639edd87ae013e2e273174391015b60405180910390a2506106a060018055565b50565b6106ab61139e565b6000821180156106bd57506007548211155b6106f85760405162461bcd60e51b815260206004820152600c60248201526b24b73b30b634b2103a34b2b960a11b60448201526064016103f9565b600082815260066020908152604091829020600401805460ff1916841515908117909155915191825283917f8f71204ab5049511d33210dd0e3f57d281dfb0c878c1246c78bba0e1d0ecb561910160405180910390a25050565b61075a6113f8565b3360009081526008602052604090205481106107a85760405162461bcd60e51b815260206004820152600d60248201526c496e76616c6964207374616b6560981b60448201526064016103f9565b3360009081526008602052604081208054839081106107c9576107c96119fd565b600091825260208083206040805160a080820183526005909502909201805483526001808201548486018190526002808401548686019081526003808601546060808a01919091526004968701546080808b0191909152948c5260068a529a87902087519a8b01885280548b5294850154988a0198909852908301549488019490945294810154968601879052015460ff161515928401929092529051909350909161087491611a13565b4210156108c35760405162461bcd60e51b815260206004820152601260248201527f5374616b65207374696c6c206c6f636b6564000000000000000000000000000060448201526064016103f9565b60006108cf33856111b8565b905080156108ee576003546108ee906001600160a01b03163383611451565b8251336000908152600960205260408120805490919061090f908490611a26565b9091555050825160058054600090610928908490611a26565b9091555050336000908152600860205260409020805461094a90600190611a26565b8154811061095a5761095a6119fd565b906000526020600020906005020160086000336001600160a01b03166001600160a01b03168152602001908152602001600020858154811061099e5761099e6119fd565b60009182526020808320845460059093020191825560018085015490830155600280850154908301556003808501549083015560049384015493909101929092553381526008909152604090208054806109fa576109fa611a39565b60008281526020812060056000199093019283020181815560018101829055600280820183905560038201839055600490910191909155915583519054610a4e916001600160a01b03909116903390611451565b8251604080519182526020820186905233917f92ccf450a286a957af52509bc1c9939d1a6a481783e142e41e2499f0bb66ebc6910160405180910390a25050506106a060018055565b610a9f6113f8565b336000908152600860205260409020548110610aed5760405162461bcd60e51b815260206004820152600d60248201526c496e76616c6964207374616b6560981b60448201526064016103f9565b336000908152600860205260408120805483908110610b0e57610b0e6119fd565b60009182526020808320600590920290910154338352600990915260408220805491935083929091610b41908490611a26565b925050819055508060056000828254610b5a9190611a26565b90915550503360009081526008602052604090208054610b7c90600190611a26565b81548110610b8c57610b8c6119fd565b906000526020600020906005020160086000336001600160a01b03166001600160a01b031681526020019081526020016000208381548110610bd057610bd06119fd565b6000918252602080832084546005909302019182556001808501549083015560028085015490830155600380850154908301556004938401549390910192909255338152600890915260409020805480610c2c57610c2c611a39565b60008281526020812060056000199093019283020181815560018101829055600280820183905560038201839055600490910191909155915554610c7a906001600160a01b03163383611451565b604080518281526020810184905233917f92ccf450a286a957af52509bc1c9939d1a6a481783e142e41e2499f0bb66ebc6910161068e565b610cba61139e565b610cc460006114ff565b565b610cce6113f8565b600081118015610ce057506007548111155b610d1b5760405162461bcd60e51b815260206004820152600c60248201526b24b73b30b634b2103a34b2b960a11b60448201526064016103f9565b600081815260066020908152604091829020825160a081018452815481526001820154928101929092526002810154928201929092526003820154606082015260049091015460ff16151560808201819052610db95760405162461bcd60e51b815260206004820152600f60248201527f54696572206e6f7420616374697665000000000000000000000000000000000060448201526064016103f9565b80518310801590610dce575080602001518311155b610e1a5760405162461bcd60e51b815260206004820152601860248201527f416d6f756e74206e6f7420696e20746965722072616e6765000000000000000060448201526064016103f9565b60008311610e6a5760405162461bcd60e51b815260206004820152600e60248201527f43616e6e6f74207374616b65203000000000000000000000000000000000000060448201526064016103f9565b6000805b33600090815260086020526040902054811015610f1357336000908152600860205260409020805485919083908110610ea957610ea96119fd565b90600052602060002090600502016001015403610f0157336000908152600860205260409020805482908110610ee157610ee16119fd565b90600052602060002090600502016000015482610efe9190611a13565b91505b80610f0b816119e4565b915050610e6e565b506020820151610f238583611a13565b1115610f715760405162461bcd60e51b815260206004820152601060248201527f457863656564732074696572206d61780000000000000000000000000000000060448201526064016103f9565b336000818152600860209081526040808320815160a081018352898152808401898152428285018181526060840191825260808401888152855460018181018855968a52888a209551600590910290950194855592519484019490945592516002830155915160038201559051600490910155928252600990529081208054869290610ffe908490611a13565b9250508190555083600560008282546110179190611a13565b9091555050600254611034906001600160a01b0316333087611567565b336000818152600860205260409020547fb4caaf29adda3eefee3ad552a8e85058589bf834c7466cae4ee58787f70589ed908690869061107690600190611a26565b6040805193845260208401929092529082015260600160405180910390a2505061109f60018055565b5050565b6001600160a01b0381166000908152600860209081526040808320805482518185028101850190935280835260609492939192909184015b8282101561113f57838290600052602060002090600502016040518060a001604052908160008201548152602001600182015481526020016002820154815260200160038201548152602001600482015481525050815260200190600101906110db565b505050509050919050565b61115261139e565b6003546106a0906001600160a01b0316333084611567565b6008602052816000526040600020818154811061118657600080fd5b600091825260209091206005909102018054600182015460028301546003840154600490940154929550909350919085565b6001600160a01b03821660009081526008602052604081208054829190849081106111e5576111e56119fd565b600091825260208083206040805160a080820183526005909502909201805483526001808201548486018190526002808401548686015260038085015460608089019182526004968701546080808b0191909152948c5260068a52878c2088519b8c01895280548c5295860154998b019990995291840154958901959095529382015495870195909552015460ff16151592840192909252905190935090919061128f9042611a26565b90506000670de0b6b3a76400008260045486600001516112af9190611a4f565b6112b99190611a4f565b6112c39190611a66565b905060006127108460400151836112da9190611a4f565b6112e49190611a66565b90508460800151816112f69190611a13565b955050505050505b92915050565b61130c61139e565b600455565b61131961139e565b6001600160a01b0381166113955760405162461bcd60e51b815260206004820152602660248201527f4f776e61626c653a206e6577206f776e657220697320746865207a65726f206160448201527f646472657373000000000000000000000000000000000000000000000000000060648201526084016103f9565b6106a0816114ff565b6000546001600160a01b03163314610cc45760405162461bcd60e51b815260206004820181905260248201527f4f776e61626c653a2063616c6c6572206973206e6f7420746865206f776e657260448201526064016103f9565b60026001540361144a5760405162461bcd60e51b815260206004820152601f60248201527f5265656e7472616e637947756172643a207265656e7472616e742063616c6c0060448201526064016103f9565b6002600155565b6040516001600160a01b0383166024820152604481018290526114fa9084907fa9059cbb00000000000000000000000000000000000000000000000000000000906064015b60408051601f198184030181529190526020810180517bffffffffffffffffffffffffffffffffffffffffffffffffffffffff167fffffffff00000000000000000000000000000000000000000000000000000000909316929092179091526115be565b505050565b600080546001600160a01b038381167fffffffffffffffffffffffff0000000000000000000000000000000000000000831681178455604051919092169283917f8be0079c531659141344cd1fd0a4f28419497f9722a3daafe3b4186f6b6457e09190a35050565b6040516001600160a01b03808516602483015283166044820152606481018290526115b89085907f23b872dd0000000000000000000000000000000000000000000000000000000090608401611496565b50505050565b6000611613826040518060400160405280602081526020017f5361666545524332303a206c6f772d6c6576656c2063616c6c206661696c6564815250856001600160a01b03166116a69092919063ffffffff16565b90508051600014806116345750808060200190518101906116349190611a88565b6114fa5760405162461bcd60e51b815260206004820152602a60248201527f5361666545524332303a204552433230206f7065726174696f6e20646964206e60448201527f6f7420737563636565640000000000000000000000000000000000000000000060648201526084016103f9565b60606116b584846000856116bd565b949350505050565b6060824710156117355760405162461bcd60e51b815260206004820152602660248201527f416464726573733a20696e73756666696369656e742062616c616e636520666f60448201527f722063616c6c000000000000000000000000000000000000000000000000000060648201526084016103f9565b600080866001600160a01b031685876040516117519190611ac9565b60006040518083038185875af1925050503d806000811461178e576040519150601f19603f3d011682016040523d82523d6000602084013e611793565b606091505b50915091506117a4878383876117af565b979650505050505050565b6060831561181e578251600003611817576001600160a01b0385163b6118175760405162461bcd60e51b815260206004820152601d60248201527f416464726573733a2063616c6c20746f206e6f6e2d636f6e747261637400000060448201526064016103f9565b50816116b5565b6116b583838151156118335781518083602001fd5b8060405162461bcd60e51b81526004016103f99190611ae5565b60006020828403121561185f57600080fd5b5035919050565b6000806000806080858703121561187c57600080fd5b5050823594602084013594506040840135936060013592509050565b80151581146106a057600080fd5b600080604083850312156118b957600080fd5b8235915060208301356118cb81611898565b809150509250929050565b80356001600160a01b03811681146118ed57600080fd5b919050565b60006020828403121561190457600080fd5b61190d826118d6565b9392505050565b6000806040838503121561192757600080fd5b50508035926020909101359150565b602080825282518282018190526000919060409081850190868401855b828110156119975781518051855286810151878601528581015186860152606080820151908601526080908101519085015260a09093019290850190600101611953565b5091979650505050505050565b600080604083850312156119b757600080fd5b6119c0836118d6565b946020939093013593505050565b634e487b7160e01b600052601160045260246000fd5b6000600182016119f6576119f66119ce565b5060010190565b634e487b7160e01b600052603260045260246000fd5b808201808211156112fe576112fe6119ce565b818103818111156112fe576112fe6119ce565b634e487b7160e01b600052603160045260246000fd5b80820281158282048414176112fe576112fe6119ce565b600082611a8357634e487b7160e01b600052601260045260246000fd5b500490565b600060208284031215611a9a57600080fd5b815161190d81611898565b60005b83811015611ac0578181015183820152602001611aa8565b50506000910152565b60008251611adb818460208701611aa5565b9190910192915050565b6020815260008251806020840152611b04816040850160208701611aa5565b601f01601f1916919091016040019291505056fea2646970667358221220eaf238c81efe198183d99d4456fe3bb609102484c9387cb2cb03f63de2527f1264736f6c63430008130033",
  "linkReferences": {},
  "deployedLinkReferences": {}
}