{
  "_format": "hh-sol-artifact-1",
  "contractName": "StakingContract",
  "sourceName": "contracts/ai.sol",
  "abi": [
    {
      "inputs": [
        {
          "internalType": "address",
          "name": "_stakingToken",
          "type": "address"
        },
        {
          "internalType": "address",
          "name": "_rewardToken",
          "type": "address"
        },
        {
          "internalType": "uint256",
          "name": "_weeklyRateBps",
          "type": "uint256"
        }
      ],
      "stateMutability": "nonpayable",
      "type": "constructor"
    },
    {
      "anonymous": false,
      "inputs": [
        {
          "indexed": true,
          "internalType": "address",
          "name": "previousOwner",
          "type": "address"
        },
        {
          "indexed": true,
          "internalType": "address",
          "name": "newOwner",
          "type": "address"
        }
      ],
      "name": "OwnershipTransferred",
      "type": "event"
    },
    {
      "anonymous": false,
      "inputs": [
        {
          "indexed": false,
          "internalType": "address",
          "name": "account",
          "type": "address"
        }
      ],
      "name": "Paused",
      "type": "event"
    },
    {
      "anonymous": false,
      "inputs": [
        {
          "indexed": true,
          "internalType": "address",
          "name": "user",
          "type": "address"
        },
        {
          "indexed": false,
          "internalType": "uint256",
          "name": "reward",
          "type": "uint256"
        }
      ],
      "name": "RewardPaid",
      "type": "event"
    },
    {
      "anonymous": false,
      "inputs": [
        {
          "indexed": false,
          "internalType": "uint256",
          "name": "amount",
          "type": "uint256"
        }
      ],
      "name": "RewardsFunded",
      "type": "event"
    },
    {
      "anonymous": false,
      "inputs": [
        {
          "indexed": true,
          "internalType": "address",
          "name": "user",
          "type": "address"
        },
        {
          "indexed": false,
          "internalType": "uint256",
          "name": "amount",
          "type": "uint256"
        }
      ],
      "name": "Staked",
      "type": "event"
    },
    {
      "anonymous": false,
      "inputs": [
        {
          "indexed": false,
          "internalType": "uint256",
          "name": "newDuration",
          "type": "uint256"
        }
      ],
      "name": "StakingDurationUpdated",
      "type": "event"
    },
    {
      "anonymous": false,
      "inputs": [
        {
          "indexed": false,
          "internalType": "address",
          "name": "account",
          "type": "address"
        }
      ],
      "name": "Unpaused",
      "type": "event"
    },
    {
      "anonymous": false,
      "inputs": [
        {
          "indexed": false,
          "internalType": "uint256",
          "name": "newWeeklyRateBps",
          "type": "uint256"
        }
      ],
      "name": "WeeklyRateUpdated",
      "type": "event"
    },
    {
      "anonymous": false,
      "inputs": [
        {
          "indexed": true,
          "internalType": "address",
          "name": "user",
          "type": "address"
        },
        {
          "indexed": false,
          "internalType": "uint256",
          "name": "amount",
          "type": "uint256"
        }
      ],
      "name": "Withdrawn",
      "type": "event"
    },
    {
      "inputs": [],
      "name": "DEFAULT_WEEKLY_RATE_BPS",
      "outputs": [
        {
          "internalType": "uint256",
          "name": "",
          "type": "uint256"
        }
      ],
      "stateMutability": "view",
      "type": "function"
    },
    {
      "inputs": [],
      "name": "MAX_WEEKLY_RATE_BPS",
      "outputs": [
        {
          "internalType": "uint256",
          "name": "",
          "type": "uint256"
        }
      ],
      "stateMutability": "view",
      "type": "function"
    },
    {
      "inputs": [
        {
          "internalType": "address",
          "name": "account",
          "type": "address"
        }
      ],
      "name": "earned",
      "outputs": [
        {
          "internalType": "uint256",
          "name": "",
          "type": "uint256"
        }
      ],
      "stateMutability": "view",
      "type": "function"
    },
    {
      "inputs": [],
      "name": "emergencyWithdraw",
      "outputs": [],
      "stateMutability": "nonpayable",
      "type": "function"
    },
    {
      "inputs": [
        {
          "internalType": "uint256",
          "name": "amount",
          "type": "uint256"
        }
      ],
      "name": "fundRewards",
      "outputs": [],
      "stateMutability": "nonpayable",
      "type": "function"
    },
    {
      "inputs": [],
      "name": "getReward",
      "outputs": [],
      "stateMutability": "nonpayable",
      "type": "function"
    },
    {
      "inputs": [],
      "name": "lastUpdateTime",
      "outputs": [
        {
          "internalType": "uint256",
          "name": "",
          "type": "uint256"
        }
      ],
      "stateMutability": "view",
      "type": "function"
    },
    {
      "inputs": [],
      "name": "owner",
      "outputs": [
        {
          "internalType": "address",
          "name": "",
          "type": "address"
        }
      ],
      "stateMutability": "view",
      "type": "function"
    },
    {
      "inputs": [],
      "name": "pause",
      "outputs": [],
      "stateMutability": "nonpayable",
      "type": "function"
    },
    {
      "inputs": [],
      "name": "paused",
      "outputs": [
        {
          "internalType": "bool",
          "name": "",
          "type": "bool"
        }
      ],
      "stateMutability": "view",
      "type": "function"
    },
    {
      "inputs": [],
      "name": "renounceOwnership",
      "outputs": [],
      "stateMutability": "nonpayable",
      "type": "function"
    },
    {
      "inputs": [],
      "name": "resetWeeklyRate",
      "outputs": [],
      "stateMutability": "nonpayable",
      "type": "function"
    },
    {
      "inputs": [],
      "name": "rewardPerToken",
      "outputs": [
        {
          "internalType": "uint256",
          "name": "",
          "type": "uint256"
        }
      ],
      "stateMutability": "view",
      "type": "function"
    },
    {
      "inputs": [],
      "name": "rewardPerTokenStored",
      "outputs": [
        {
          "internalType": "uint256",
          "name": "",
          "type": "uint256"
        }
      ],
      "stateMutability": "view",
      "type": "function"
    },
    {
      "inputs": [],
      "name": "rewardToken",
      "outputs": [
        {
          "internalType": "contract IERC20",
          "name": "",
          "type": "address"
        }
      ],
      "stateMutability": "view",
      "type": "function"
    },
    {
      "inputs": [
        {
          "internalType": "address",
          "name": "",
          "type": "address"
        }
      ],
      "name": "rewards",
      "outputs": [
        {
          "internalType": "uint256",
          "name": "",
          "type": "uint256"
        }
      ],
      "stateMutability": "view",
      "type": "function"
    },
    {
      "inputs": [],
      "name": "rewardsPool",
      "outputs": [
        {
          "internalType": "uint256",
          "name": "",
          "type": "uint256"
        }
      ],
      "stateMutability": "view",
      "type": "function"
    },
    {
      "inputs": [
        {
          "internalType": "uint256",
          "name": "_duration",
          "type": "uint256"
        }
      ],
      "name": "setStakingDuration",
      "outputs": [],
      "stateMutability": "nonpayable",
      "type": "function"
    },
    {
      "inputs": [
        {
          "internalType": "uint256",
          "name": "_weeklyRateBps",
          "type": "uint256"
        }
      ],
      "name": "setWeeklyRateBps",
      "outputs": [],
      "stateMutability": "nonpayable",
      "type": "function"
    },
    {
      "inputs": [
        {
          "internalType": "uint256",
          "name": "amount",
          "type": "uint256"
        }
      ],
      "name": "stake",
      "outputs": [],
      "stateMutability": "nonpayable",
      "type": "function"
    },
    {
      "inputs": [
        {
          "internalType": "address",
          "name": "",
          "type": "address"
        }
      ],
      "name": "stakedBalance",
      "outputs": [
        {
          "internalType": "uint256",
          "name": "",
          "type": "uint256"
        }
      ],
      "stateMutability": "view",
      "type": "function"
    },
    {
      "inputs": [],
      "name": "stakingDuration",
      "outputs": [
        {
          "internalType": "uint256",
          "name": "",
          "type": "uint256"
        }
      ],
      "stateMutability": "view",
      "type": "function"
    },
    {
      "inputs": [
        {
          "internalType": "address",
          "name": "",
          "type": "address"
        }
      ],
      "name": "stakingTimestamp",
      "outputs": [
        {
          "internalType": "uint256",
          "name": "",
          "type": "uint256"
        }
      ],
      "stateMutability": "view",
      "type": "function"
    },
    {
      "inputs": [],
      "name": "stakingToken",
      "outputs": [
        {
          "internalType": "contract IERC20",
          "name": "",
          "type": "address"
        }
      ],
      "stateMutability": "view",
      "type": "function"
    },
    {
      "inputs": [],
      "name": "totalStaked",
      "outputs": [
        {
          "internalType": "uint256",
          "name": "",
          "type": "uint256"
        }
      ],
      "stateMutability": "view",
      "type": "function"
    },
    {
      "inputs": [
        {
          "internalType": "address",
          "name": "newOwner",
          "type": "address"
        }
      ],
      "name": "transferOwnership",
      "outputs": [],
      "stateMutability": "nonpayable",
      "type": "function"
    },
    {
      "inputs": [],
      "name": "unpause",
      "outputs": [],
      "stateMutability": "nonpayable",
      "type": "function"
    },
    {
      "inputs": [
        {
          "internalType": "address",
          "name": "",
          "type": "address"
        }
      ],
      "name": "userRewardPerTokenPaid",
      "outputs": [
        {
          "internalType": "uint256",
          "name": "",
          "type": "uint256"
        }
      ],
      "stateMutability": "view",
      "type": "function"
    },
    {
      "inputs": [],
      "name": "weeklyRateBps",
      "outputs": [
        {
          "internalType": "uint256",
          "name": "",
          "type": "uint256"
        }
      ],
      "stateMutability": "view",
      "type": "function"
    },
    {
      "inputs": [
        {
          "internalType": "uint256",
          "name": "amount",
          "type": "uint256"
        }
      ],
      "name": "withdraw",
      "outputs": [],
      "stateMutability": "nonpayable",
      "type": "function"
    },
    {
      "inputs": [],
      "name": "withdrawAndGetReward",
      "outputs": [],
      "stateMutability": "nonpayable",
      "type": "function"
    }
  ],
  "bytecode": "0x608060405262278d006009553480156200001857600080fd5b506040516200184c3803806200184c8339810160408190526200003b9162000229565b6200004633620001bc565b600180556002805460ff191690556001600160a01b038316620000b05760405162461bcd60e51b815260206004820152601560248201527f496e76616c6964207374616b696e6720746f6b656e000000000000000000000060448201526064015b60405180910390fd5b6001600160a01b038216620001085760405162461bcd60e51b815260206004820152601460248201527f496e76616c69642072657761726420746f6b656e0000000000000000000000006044820152606401620000a7565b60028054610100600160a81b0319166101006001600160a01b038681169190910291909117909155600380546001600160a01b031916918416919091179055801562000155578062000158565b60325b600481905560c81015620001af5760405162461bcd60e51b815260206004820152601460248201527f5765656b6c79207261746520746f6f20686967680000000000000000000000006044820152606401620000a7565b505042600555506200026a565b600080546001600160a01b038381166001600160a01b0319831681178455604051919092169283917f8be0079c531659141344cd1fd0a4f28419497f9722a3daafe3b4186f6b6457e09190a35050565b80516001600160a01b03811681146200022457600080fd5b919050565b6000806000606084860312156200023f57600080fd5b6200024a846200020c565b92506200025a602085016200020c565b9150604084015190509250925092565b6115d2806200027a6000396000f3fe608060405234801561001057600080fd5b50600436106101e45760003560e01c8063817b1cd21161010f578063cd3daf9d116100a2578063df136d6511610071578063df136d65146103bc578063f2fde38b146103c5578063f7c618c1146103d8578063fc7cb627146103eb57600080fd5b8063cd3daf9d1461039b578063d54b6e70146103a3578063da9d6e8a146103ab578063db2e21bc146103b457600080fd5b80638f0794fe116100de5780638f0794fe1461034c57806393707a191461036c578063a694fc3a1461037f578063c8f33c911461039257600080fd5b8063817b1cd21461030a5780638456cb59146103135780638b8763471461031b5780638da5cb5b1461033b57600080fd5b806359c5e746116101875780636f9888b7116101565780636f9888b7146102b6578063715018a6146102c957806372f702f3146102d15780638005a7de1461030157600080fd5b806359c5e746146102655780635c975abb1461026d57806360217267146102835780636a8ca691146102a357600080fd5b80632e1a7d4d116101c35780632e1a7d4d146102385780633d18b9121461024d5780633f4ba83a14610255578063528defa11461025d57600080fd5b80628cc262146101e95780630359fea91461020f5780630700037d14610218575b600080fd5b6101fc6101f7366004611449565b6103f3565b6040519081526020015b60405180910390f35b6101fc60085481565b6101fc610226366004611449565b600c6020526000908152604090205481565b61024b610246366004611479565b610470565b005b61024b610681565b61024b610758565b6101fc60c881565b6101fc603281565b60025460ff166040519015158152602001610206565b6101fc610291366004611449565b600a6020526000908152604090205481565b61024b6102b1366004611479565b610768565b61024b6102c4366004611479565b6107ac565b61024b61088f565b6002546102e99061010090046001600160a01b031681565b6040516001600160a01b039091168152602001610206565b6101fc60095481565b6101fc60075481565b61024b6108a1565b6101fc610329366004611449565b600b6020526000908152604090205481565b6000546001600160a01b03166102e9565b6101fc61035a366004611449565b600d6020526000908152604090205481565b61024b61037a366004611479565b6108b1565b61024b61038d366004611479565b610968565b6101fc60055481565b6101fc610ab4565b61024b610b68565b6101fc60045481565b61024b610bf5565b6101fc60065481565b61024b6103d3366004611449565b610cde565b6003546102e9906001600160a01b031681565b61024b610d6b565b6001600160a01b0381166000908152600c6020908152604080832054600b909252822054670de0b6b3a764000090610429610ab4565b61043391906114a8565b6001600160a01b0385166000908152600a602052604090205461045691906114bb565b61046091906114d2565b61046a91906114f4565b92915050565b610478610d8c565b33610481610de5565b6001600160a01b038116156104c557610499816103f3565b6001600160a01b0382166000908152600c6020908152604080832093909355600654600b909152919020555b6000821161051a5760405162461bcd60e51b815260206004820152601160248201527f43616e6e6f74207769746864726177203000000000000000000000000000000060448201526064015b60405180910390fd5b336000908152600a60205260409020548211156105795760405162461bcd60e51b815260206004820152601460248201527f496e73756666696369656e742062616c616e63650000000000000000000000006044820152606401610511565b600954336000908152600d602052604090205461059691906114f4565b4210156105e55760405162461bcd60e51b815260206004820152600c60248201527f5374696c6c206c6f636b656400000000000000000000000000000000000000006044820152606401610511565b336000908152600a6020526040812080548492906106049084906114a8565b92505081905550816007600082825461061d91906114a8565b909155505060025461063e9061010090046001600160a01b03163384610ebf565b60405182815233907f7084f5476618d8e60b11ef0d7d3f06914655adb8793e28ff7f018d4c76d505d5906020015b60405180910390a25061067e60018055565b50565b610689610d8c565b33610692610de5565b6001600160a01b038116156106d6576106aa816103f3565b6001600160a01b0382166000908152600c6020908152604080832093909355600654600b909152919020555b336000908152600c6020526040902054801561074b57336000818152600c6020526040812055600354610715916001600160a01b039091169083610ebf565b60405181815233907fe2403640ba68fed3a2f88b7557551d1993f84b99bb10ff833f0cf8db0c5e04869060200160405180910390a25b505061075660018055565b565b610760610f6d565b610756610fc7565b610770610f6d565b60098190556040518181527f8c7ba3004ed566ca0f3da73aaa1e3470028922c65772882a9b89612e44a72dcf906020015b60405180910390a150565b6107b4610f6d565b60006107be610de5565b6001600160a01b03811615610802576107d6816103f3565b6001600160a01b0382166000908152600c6020908152604080832093909355600654600b909152919020555b60c88211156108535760405162461bcd60e51b815260206004820152601460248201527f5765656b6c79207261746520746f6f20686967680000000000000000000000006044820152606401610511565b60048290556040518281527f33a0b46dfa3e2cea9acbde71cfdd54d3d26187fedb09b839d120ec5f7cf549b49060200160405180910390a15050565b610897610f6d565b6107566000611019565b6108a9610f6d565b610756611081565b6108b9610f6d565b600081116109095760405162461bcd60e51b815260206004820152601260248201527f416d6f756e74206d757374206265203e203000000000000000000000000000006044820152606401610511565b600354610921906001600160a01b03163330846110be565b806008600082825461093391906114f4565b90915550506040518181527fe42dde25409a3e8c7c119c1c722610d9e9bd96e73e3cead774863c9ffdd870d6906020016107a1565b610970610d8c565b610978611115565b33610981610de5565b6001600160a01b038116156109c557610999816103f3565b6001600160a01b0382166000908152600c6020908152604080832093909355600654600b909152919020555b60008211610a155760405162461bcd60e51b815260206004820152600e60248201527f43616e6e6f74207374616b6520300000000000000000000000000000000000006044820152606401610511565b336000908152600a602052604081208054849290610a349084906114f4565b925050819055508160076000828254610a4d91906114f4565b9091555050336000818152600d60205260409020429055600254610a82916101009091046001600160a01b03169030856110be565b60405182815233907f9e71bc8eea02a63969f509818f2dafb9254532904319f9dbda79b67bd34a5f3d9060200161066c565b6000600754600003610ac7575060065490565b600060055442610ad791906114a8565b9050801580610ae65750600854155b15610af357505060065490565b60006401687d280082600454600754610b0c91906114bb565b610b1691906114bb565b610b2091906114d2565b6008549091508190811115610b3457506008545b600754610b4982670de0b6b3a76400006114bb565b610b5391906114d2565b600654610b6091906114f4565b935050505090565b610b70610f6d565b6000610b7a610de5565b6001600160a01b03811615610bbe57610b92816103f3565b6001600160a01b0382166000908152600c6020908152604080832093909355600654600b909152919020555b603260048190556040519081527f33a0b46dfa3e2cea9acbde71cfdd54d3d26187fedb09b839d120ec5f7cf549b4906020016107a1565b610bfd610d8c565b336000908152600a602052604090205480610c5a5760405162461bcd60e51b815260206004820152601060248201527f4e6f20746f6b656e73207374616b6564000000000000000000000000000000006044820152606401610511565b336000908152600a6020526040812081905560078054839290610c7e9084906114a8565b9091555050600254610c9f9061010090046001600160a01b03163383610ebf565b60405181815233907f7084f5476618d8e60b11ef0d7d3f06914655adb8793e28ff7f018d4c76d505d59060200160405180910390a25061075660018055565b610ce6610f6d565b6001600160a01b038116610d625760405162461bcd60e51b815260206004820152602660248201527f4f776e61626c653a206e6577206f776e657220697320746865207a65726f206160448201527f64647265737300000000000000000000000000000000000000000000000000006064820152608401610511565b61067e81611019565b336000908152600a6020526040902054610d8490610470565b610756610681565b600260015403610dde5760405162461bcd60e51b815260206004820152601f60248201527f5265656e7472616e637947756172643a207265656e7472616e742063616c6c006044820152606401610511565b6002600155565b600754600003610df55742600555565b600060055442610e0591906114a8565b9050801580610e145750600854155b15610e20575042600555565b60006401687d280082600454600754610e3991906114bb565b610e4391906114bb565b610e4d91906114d2565b6008549091508190811115610e6157506008545b8015610eb657600754610e7c82670de0b6b3a76400006114bb565b610e8691906114d2565b60066000828254610e9791906114f4565b925050819055508060086000828254610eb091906114a8565b90915550505b50504260055550565b6040516001600160a01b038316602482015260448101829052610f689084907fa9059cbb00000000000000000000000000000000000000000000000000000000906064015b60408051601f198184030181529190526020810180517bffffffffffffffffffffffffffffffffffffffffffffffffffffffff167fffffffff0000000000000000000000000000000000000000000000000000000090931692909217909152611168565b505050565b6000546001600160a01b031633146107565760405162461bcd60e51b815260206004820181905260248201527f4f776e61626c653a2063616c6c6572206973206e6f7420746865206f776e65726044820152606401610511565b610fcf611250565b6002805460ff191690557f5db9ee0a495bf2e6ff9c91a7834c1ba4fdd244a5e8aa4e537bd38aeae4b073aa335b6040516001600160a01b03909116815260200160405180910390a1565b600080546001600160a01b038381167fffffffffffffffffffffffff0000000000000000000000000000000000000000831681178455604051919092169283917f8be0079c531659141344cd1fd0a4f28419497f9722a3daafe3b4186f6b6457e09190a35050565b611089611115565b6002805460ff191660011790557f62e78cea01bee320cd4e420270b5ea74000d11b0c9f74754ebdbfc544b05a258610ffc3390565b6040516001600160a01b038085166024830152831660448201526064810182905261110f9085907f23b872dd0000000000000000000000000000000000000000000000000000000090608401610f04565b50505050565b60025460ff16156107565760405162461bcd60e51b815260206004820152601060248201527f5061757361626c653a20706175736564000000000000000000000000000000006044820152606401610511565b60006111bd826040518060400160405280602081526020017f5361666545524332303a206c6f772d6c6576656c2063616c6c206661696c6564815250856001600160a01b03166112a29092919063ffffffff16565b90508051600014806111de5750808060200190518101906111de9190611507565b610f685760405162461bcd60e51b815260206004820152602a60248201527f5361666545524332303a204552433230206f7065726174696f6e20646964206e60448201527f6f742073756363656564000000000000000000000000000000000000000000006064820152608401610511565b60025460ff166107565760405162461bcd60e51b815260206004820152601460248201527f5061757361626c653a206e6f74207061757365640000000000000000000000006044820152606401610511565b60606112b184846000856112b9565b949350505050565b6060824710156113315760405162461bcd60e51b815260206004820152602660248201527f416464726573733a20696e73756666696369656e742062616c616e636520666f60448201527f722063616c6c00000000000000000000000000000000000000000000000000006064820152608401610511565b600080866001600160a01b0316858760405161134d919061154d565b60006040518083038185875af1925050503d806000811461138a576040519150601f19603f3d011682016040523d82523d6000602084013e61138f565b606091505b50915091506113a0878383876113ab565b979650505050505050565b6060831561141a578251600003611413576001600160a01b0385163b6114135760405162461bcd60e51b815260206004820152601d60248201527f416464726573733a2063616c6c20746f206e6f6e2d636f6e74726163740000006044820152606401610511565b50816112b1565b6112b1838381511561142f5781518083602001fd5b8060405162461bcd60e51b81526004016105119190611569565b60006020828403121561145b57600080fd5b81356001600160a01b038116811461147257600080fd5b9392505050565b60006020828403121561148b57600080fd5b5035919050565b634e487b7160e01b600052601160045260246000fd5b8181038181111561046a5761046a611492565b808202811582820484141761046a5761046a611492565b6000826114ef57634e487b7160e01b600052601260045260246000fd5b500490565b8082018082111561046a5761046a611492565b60006020828403121561151957600080fd5b8151801515811461147257600080fd5b60005b8381101561154457818101518382015260200161152c565b50506000910152565b6000825161155f818460208701611529565b9190910192915050565b6020815260008251806020840152611588816040850160208701611529565b601f01601f1916919091016040019291505056fea26469706673582212205422118d02ff781446d667209249434a32aabdd8317836721f6957c30de5db2964736f6c63430008130033",
  "linkReferences": {},
  "deployedLinkReferences": {}
}