{
  "_format": "hh-sol-artifact-1",
  "contractName": "MyNFT",
  "sourceName": "contracts/MyNFT.sol",
  "abi": [
    {
      "inputs": [
        {
          "internalType": "string",
          "name": "name_",
          "type": "string"
        },
        {
          "internalType": "string",
          "name": "symbol_",
          "type": "string"
        },
        {
          "internalType": "string",
          "name": "baseTokenURI_",
          "type": "string"
        }
      ],
      "stateMutability": "nonpayable",
      "type": "constructor"
    },
    {
      "anonymous": false,
      "inputs": [
        {
          "indexed": true,
          "internalType": "address",
          "name": "owner",
          "type": "address"
        },
        {
          "indexed": true,
          "internalType": "address",
          "name": "approved",
          "type": "address"
        },
        {
          "indexed": true,
          "internalType": "uint256",
          "name": "tokenId",
          "type": "uint256"
        }
      ],
      "name": "Approval",
      "type": "event"
    },
    {
      "anonymous": false,
      "inputs": [
        {
          "indexed": true,
          "internalType": "address",
          "name": "owner",
          "type": "address"
        },
        {
          "indexed": true,
          "internalType": "address",
          "name": "operator",
          "type": "address"
        },
        {
          "indexed": false,
          "internalType": "bool",
          "name": "approved",
          "type": "bool"
        }
      ],
      "name": "ApprovalForAll",
      "type": "event"
    },
    {
      "anonymous": false,
      "inputs": [
        {
          "indexed": false,
          "internalType": "string",
          "name": "newBaseURI",
          "type": "string"
        }
      ],
      "name": "BaseURIUpdated",
      "type": "event"
    },
    {
      "anonymous": false,
      "inputs": [
        {
          "indexed": true,
          "internalType": "address",
          "name": "to",
          "type": "address"
        },
        {
          "indexed": true,
          "internalType": "uint256",
          "name": "tokenId",
          "type": "uint256"
        }
      ],
      "name": "Minted",
      "type": "event"
    },
    {
      "anonymous": false,
      "inputs": [
        {
          "indexed": true,
          "internalType": "address",
          "name": "previousOwner",
          "type": "address"
        },
        {
          "indexed": true,
          "internalType": "address",
          "name": "newOwner",
          "type": "address"
        }
      ],
      "name": "OwnershipTransferred",
      "type": "event"
    },
    {
      "anonymous": false,
      "inputs": [
        {
          "indexed": true,
          "internalType": "address",
          "name": "from",
          "type": "address"
        },
        {
          "indexed": true,
          "internalType": "address",
          "name": "to",
          "type": "address"
        },
        {
          "indexed": true,
          "internalType": "uint256",
          "name": "tokenId",
          "type": "uint256"
        }
      ],
      "name": "Transfer",
      "type": "event"
    },
    {
      "inputs": [
        {
          "internalType": "address",
          "name": "to",
          "type": "address"
        },
        {
          "internalType": "uint256",
          "name": "tokenId",
          "type": "uint256"
        }
      ],
      "name": "approve",
      "outputs": [],
      "stateMutability": "nonpayable",
      "type": "function"
    },
    {
      "inputs": [
        {
          "internalType": "address",
          "name": "owner",
          "type": "address"
        }
      ],
      "name": "balanceOf",
      "outputs": [
        {
          "internalType": "uint256",
          "name": "",
          "type": "uint256"
        }
      ],
      "stateMutability": "view",
      "type": "function"
    },
    {
      "inputs": [
        {
          "internalType": "uint256",
          "name": "tokenId",
          "type": "uint256"
        }
      ],
      "name": "getApproved",
      "outputs": [
        {
          "internalType": "address",
          "name": "",
          "type": "address"
        }
      ],
      "stateMutability": "view",
      "type": "function"
    },
    {
      "inputs": [
        {
          "internalType": "address",
          "name": "owner",
          "type": "address"
        },
        {
          "internalType": "address",
          "name": "operator",
          "type": "address"
        }
      ],
      "name": "isApprovedForAll",
      "outputs": [
        {
          "internalType": "bool",
          "name": "",
          "type": "bool"
        }
      ],
      "stateMutability": "view",
      "type": "function"
    },
    {
      "inputs": [
        {
          "internalType": "address",
          "name": "to",
          "type": "address"
        }
      ],
      "name": "mint",
      "outputs": [
        {
          "internalType": "uint256",
          "name": "tokenId",
          "type": "uint256"
        }
      ],
      "stateMutability": "nonpayable",
      "type": "function"
    },
    {
      "inputs": [],
      "name": "name",
      "outputs": [
        {
          "internalType": "string",
          "name": "",
          "type": "string"
        }
      ],
      "stateMutability": "view",
      "type": "function"
    },
    {
      "inputs": [],
      "name": "nextTokenId",
      "outputs": [
        {
          "internalType": "uint256",
          "name": "",
          "type": "uint256"
        }
      ],
      "stateMutability": "view",
      "type": "function"
    },
    {
      "inputs": [],
      "name": "owner",
      "outputs": [
        {
          "internalType": "address",
          "name": "",
          "type": "address"
        }
      ],
      "stateMutability": "view",
      "type": "function"
    },
    {
      "inputs": [
        {
          "internalType": "uint256",
          "name": "tokenId",
          "type": "uint256"
        }
      ],
      "name": "ownerOf",
      "outputs": [
        {
          "internalType": "address",
          "name": "",
          "type": "address"
        }
      ],
      "stateMutability": "view",
      "type": "function"
    },
    {
      "inputs": [],
      "name": "renounceOwnership",
      "outputs": [],
      "stateMutability": "nonpayable",
      "type": "function"
    },
    {
      "inputs": [
        {
          "internalType": "address",
          "name": "from",
          "type": "address"
        },
        {
          "internalType": "address",
          "name": "to",
          "type": "address"
        },
        {
          "internalType": "uint256",
          "name": "tokenId",
          "type": "uint256"
        }
      ],
      "name": "safeTransferFrom",
      "outputs": [],
      "stateMutability": "nonpayable",
      "type": "function"
    },
    {
      "inputs": [
        {
          "internalType": "address",
          "name": "from",
          "type": "address"
        },
        {
          "internalType": "address",
          "name": "to",
          "type": "address"
        },
        {
          "internalType": "uint256",
          "name": "tokenId",
          "type": "uint256"
        },
        {
          "internalType": "bytes",
          "name": "data",
          "type": "bytes"
        }
      ],
      "name": "safeTransferFrom",
      "outputs": [],
      "stateMutability": "nonpayable",
      "type": "function"
    },
    {
      "inputs": [
        {
          "internalType": "address",
          "name": "operator",
          "type": "address"
        },
        {
          "internalType": "bool",
          "name": "approved",
          "type": "bool"
        }
      ],
      "name": "setApprovalForAll",
      "outputs": [],
      "stateMutability": "nonpayable",
      "type": "function"
    },
    {
      "inputs": [
        {
          "internalType": "string",
          "name": "newBaseTokenURI",
          "type": "string"
        }
      ],
      "name": "setBaseURI",
      "outputs": [],
      "stateMutability": "nonpayable",
      "type": "function"
    },
    {
      "inputs": [
        {
          "internalType": "bytes4",
          "name": "interfaceId",
          "type": "bytes4"
        }
      ],
      "name": "supportsInterface",
      "outputs": [
        {
          "internalType": "bool",
          "name": "",
          "type": "bool"
        }
      ],
      "stateMutability": "view",
      "type": "function"
    },
    {
      "inputs": [],
      "name": "symbol",
      "outputs": [
        {
          "internalType": "string",
          "name": "",
          "type": "string"
        }
      ],
      "stateMutability": "view",
      "type": "function"
    },
    {
      "inputs": [
        {
          "internalType": "uint256",
          "name": "tokenId",
          "type": "uint256"
        }
      ],
      "name": "tokenURI",
      "outputs": [
        {
          "internalType": "string",
          "name": "",
          "type": "string"
        }
      ],
      "stateMutability": "view",
      "type": "function"
    },
    {
      "inputs": [
        {
          "internalType": "address",
          "name": "from",
          "type": "address"
        },
        {
          "internalType": "address",
          "name": "to",
          "type": "address"
        },
        {
          "internalType": "uint256",
          "name": "tokenId",
          "type": "uint256"
        }
      ],
      "name": "transferFrom",
      "outputs": [],
      "stateMutability": "nonpayable",
      "type": "function"
    },
    {
      "inputs": [
        {
          "internalType": "address",
          "name": "newOwner",
          "type": "address"
        }
      ],
      "name": "transferOwnership",
      "outputs": [],
      "stateMutability": "nonpayable",
      "type": "function"
    }
  ],
  "bytecode": "0x60806040523480156200001157600080fd5b5060405162001d6838038062001d688339810160408190526200003491620001a3565b82826000620000448382620002c3565b506001620000538282620002c3565b505050620000706200006a6200008860201b60201c565b6200008c565b60086200007e8282620002c3565b505050506200038f565b3390565b600680546001600160a01b038381166001600160a01b0319831681179093556040519116919082907f8be0079c531659141344cd1fd0a4f28419497f9722a3daafe3b4186f6b6457e090600090a35050565b634e487b7160e01b600052604160045260246000fd5b600082601f8301126200010657600080fd5b81516001600160401b0380821115620001235762000123620000de565b604051601f8301601f19908116603f011681019082821181831017156200014e576200014e620000de565b816040528381526020925086838588010111156200016b57600080fd5b600091505b838210156200018f578582018301518183018401529082019062000170565b600093810190920192909252949350505050565b600080600060608486031215620001b957600080fd5b83516001600160401b0380821115620001d157600080fd5b620001df87838801620000f4565b94506020860151915080821115620001f657600080fd5b6200020487838801620000f4565b935060408601519150808211156200021b57600080fd5b506200022a86828701620000f4565b9150509250925092565b600181811c908216806200024957607f821691505b6020821081036200026a57634e487b7160e01b600052602260045260246000fd5b50919050565b601f821115620002be57600081815260208120601f850160051c81016020861015620002995750805b601f850160051c820191505b81811015620002ba57828155600101620002a5565b5050505b505050565b81516001600160401b03811115620002df57620002df620000de565b620002f781620002f0845462000234565b8462000270565b602080601f8311600181146200032f5760008415620003165750858301515b600019600386901b1c1916600185901b178555620002ba565b600085815260208120601f198616915b8281101562000360578886015182559484019460019091019084016200033f565b50858210156200037f5787850151600019600388901b60f8161c191681555b5050505050600190811b01905550565b6119c9806200039f6000396000f3fe608060405234801561001057600080fd5b50600436106101515760003560e01c806370a08231116100cd578063a22cb46511610081578063c87b56dd11610066578063c87b56dd146102a3578063e985e9c5146102b6578063f2fde38b146102f257600080fd5b8063a22cb4651461027d578063b88d4fde1461029057600080fd5b806375794a3c116100b257806375794a3c1461025b5780638da5cb5b1461026457806395d89b411461027557600080fd5b806370a0823114610240578063715018a61461025357600080fd5b806323b872dd1161012457806355f804b31161010957806355f804b3146101f95780636352211e1461020c5780636a6278421461021f57600080fd5b806323b872dd146101d357806342842e0e146101e657600080fd5b806301ffc9a71461015657806306fdde031461017e578063081812fc14610193578063095ea7b3146101be575b600080fd5b610169610164366004611463565b610305565b60405190151581526020015b60405180910390f35b6101866103a2565b60405161017591906114d0565b6101a66101a13660046114e3565b610434565b6040516001600160a01b039091168152602001610175565b6101d16101cc366004611518565b61045b565b005b6101d16101e1366004611542565b610591565b6101d16101f4366004611542565b610608565b6101d161020736600461157e565b610623565b6101a661021a3660046114e3565b610676565b61023261022d3660046115f0565b6106db565b604051908152602001610175565b61023261024e3660046115f0565b610796565b6101d1610830565b61023260075481565b6006546001600160a01b03166101a6565b610186610844565b6101d161028b36600461160b565b610853565b6101d161029e36600461165d565b610862565b6101866102b13660046114e3565b6108e0565b6101696102c4366004611739565b6001600160a01b03918216600090815260056020908152604080832093909416825291909152205460ff1690565b6101d16103003660046115f0565b610947565b60006001600160e01b031982167f80ac58cd00000000000000000000000000000000000000000000000000000000148061036857506001600160e01b031982167f5b5e139f00000000000000000000000000000000000000000000000000000000145b8061039c57507f01ffc9a7000000000000000000000000000000000000000000000000000000006001600160e01b03198316145b92915050565b6060600080546103b19061176c565b80601f01602080910402602001604051908101604052809291908181526020018280546103dd9061176c565b801561042a5780601f106103ff5761010080835404028352916020019161042a565b820191906000526020600020905b81548152906001019060200180831161040d57829003601f168201915b5050505050905090565b600061043f826109d7565b506000908152600460205260409020546001600160a01b031690565b600061046682610676565b9050806001600160a01b0316836001600160a01b0316036104f45760405162461bcd60e51b815260206004820152602160248201527f4552433732313a20617070726f76616c20746f2063757272656e74206f776e6560448201527f720000000000000000000000000000000000000000000000000000000000000060648201526084015b60405180910390fd5b336001600160a01b0382161480610510575061051081336102c4565b6105825760405162461bcd60e51b815260206004820152603d60248201527f4552433732313a20617070726f76652063616c6c6572206973206e6f7420746f60448201527f6b656e206f776e6572206f7220617070726f76656420666f7220616c6c00000060648201526084016104eb565b61058c8383610a3b565b505050565b61059b3382610ab6565b6105fd5760405162461bcd60e51b815260206004820152602d60248201527f4552433732313a2063616c6c6572206973206e6f7420746f6b656e206f776e6560448201526c1c881bdc88185c1c1c9bdd9959609a1b60648201526084016104eb565b61058c838383610b35565b61058c83838360405180602001604052806000815250610862565b61062b610d3b565b60086106388284836117f4565b507f6741b2fc379fad678116fe3d4d4b9a1a184ab53ba36b86ad0fa66340b1ab41ad828260405161066a9291906118b5565b60405180910390a15050565b6000818152600260205260408120546001600160a01b03168061039c5760405162461bcd60e51b815260206004820152601860248201527f4552433732313a20696e76616c696420746f6b656e204944000000000000000060448201526064016104eb565b60006106e5610d3b565b6001600160a01b03821661073b5760405162461bcd60e51b815260206004820152601160248201527f496e76616c696420726563697069656e7400000000000000000000000000000060448201526064016104eb565b60076000815461074a906118e4565b9182905550905061075b8282610d95565b60405181906001600160a01b038416907f30385c845b448a36257a6a1716e6ad2e1bc2cbe333cde1e69fe849ad6511adfe90600090a3919050565b60006001600160a01b0382166108145760405162461bcd60e51b815260206004820152602960248201527f4552433732313a2061646472657373207a65726f206973206e6f74206120766160448201527f6c6964206f776e6572000000000000000000000000000000000000000000000060648201526084016104eb565b506001600160a01b031660009081526003602052604090205490565b610838610d3b565b6108426000610daf565b565b6060600180546103b19061176c565b61085e338383610e0e565b5050565b61086c3383610ab6565b6108ce5760405162461bcd60e51b815260206004820152602d60248201527f4552433732313a2063616c6c6572206973206e6f7420746f6b656e206f776e6560448201526c1c881bdc88185c1c1c9bdd9959609a1b60648201526084016104eb565b6108da84848484610edc565b50505050565b60606108eb826109d7565b60006108f5610f5a565b905060008151116109155760405180602001604052806000815250610940565b8061091f84610f69565b60405160200161093092919061190b565b6040516020818303038152906040525b9392505050565b61094f610d3b565b6001600160a01b0381166109cb5760405162461bcd60e51b815260206004820152602660248201527f4f776e61626c653a206e6577206f776e657220697320746865207a65726f206160448201527f646472657373000000000000000000000000000000000000000000000000000060648201526084016104eb565b6109d481610daf565b50565b6000818152600260205260409020546001600160a01b03166109d45760405162461bcd60e51b815260206004820152601860248201527f4552433732313a20696e76616c696420746f6b656e204944000000000000000060448201526064016104eb565b6000818152600460205260409020805473ffffffffffffffffffffffffffffffffffffffff19166001600160a01b0384169081179091558190610a7d82610676565b6001600160a01b03167f8c5be1e5ebec7d5bd14f71427d1e84f3dd0314c0f7b2291e5b200ac8c7c3b92560405160405180910390a45050565b600080610ac283610676565b9050806001600160a01b0316846001600160a01b03161480610b0957506001600160a01b0380821660009081526005602090815260408083209388168352929052205460ff165b80610b2d5750836001600160a01b0316610b2284610434565b6001600160a01b0316145b949350505050565b826001600160a01b0316610b4882610676565b6001600160a01b031614610bac5760405162461bcd60e51b815260206004820152602560248201527f4552433732313a207472616e736665722066726f6d20696e636f72726563742060448201526437bbb732b960d91b60648201526084016104eb565b6001600160a01b038216610c275760405162461bcd60e51b8152602060048201526024808201527f4552433732313a207472616e7366657220746f20746865207a65726f2061646460448201527f726573730000000000000000000000000000000000000000000000000000000060648201526084016104eb565b826001600160a01b0316610c3a82610676565b6001600160a01b031614610c9e5760405162461bcd60e51b815260206004820152602560248201527f4552433732313a207472616e736665722066726f6d20696e636f72726563742060448201526437bbb732b960d91b60648201526084016104eb565b6000818152600460209081526040808320805473ffffffffffffffffffffffffffffffffffffffff199081169091556001600160a01b0387811680865260038552838620805460001901905590871680865283862080546001019055868652600290945282852080549092168417909155905184937fddf252ad1be2c89b69c2b068fc378daa952ba7f163c4a11628f55a4df523b3ef91a4505050565b6006546001600160a01b031633146108425760405162461bcd60e51b815260206004820181905260248201527f4f776e61626c653a2063616c6c6572206973206e6f7420746865206f776e657260448201526064016104eb565b61085e828260405180602001604052806000815250611009565b600680546001600160a01b0383811673ffffffffffffffffffffffffffffffffffffffff19831681179093556040519116919082907f8be0079c531659141344cd1fd0a4f28419497f9722a3daafe3b4186f6b6457e090600090a35050565b816001600160a01b0316836001600160a01b031603610e6f5760405162461bcd60e51b815260206004820152601960248201527f4552433732313a20617070726f766520746f2063616c6c65720000000000000060448201526064016104eb565b6001600160a01b03838116600081815260056020908152604080832094871680845294825291829020805460ff191686151590811790915591519182527f17307eab39ab6107e8899845ad3d59bd9653f200f220920489ca2b5937696c31910160405180910390a3505050565b610ee7848484610b35565b610ef384848484611087565b6108da5760405162461bcd60e51b815260206004820152603260248201527f4552433732313a207472616e7366657220746f206e6f6e20455243373231526560448201527131b2b4bb32b91034b6b83632b6b2b73a32b960711b60648201526084016104eb565b6060600880546103b19061176c565b60606000610f76836111d3565b600101905060008167ffffffffffffffff811115610f9657610f96611647565b6040519080825280601f01601f191660200182016040528015610fc0576020820181803683370190505b5090508181016020015b600019017f3031323334353637383961626364656600000000000000000000000000000000600a86061a8153600a8504945084610fca57509392505050565b61101383836112b5565b6110206000848484611087565b61058c5760405162461bcd60e51b815260206004820152603260248201527f4552433732313a207472616e7366657220746f206e6f6e20455243373231526560448201527131b2b4bb32b91034b6b83632b6b2b73a32b960711b60648201526084016104eb565b60006001600160a01b0384163b156111c857604051630a85bd0160e11b81526001600160a01b0385169063150b7a02906110cb90339089908890889060040161193a565b6020604051808303816000875af1925050508015611106575060408051601f3d908101601f1916820190925261110391810190611976565b60015b6111ae573d808015611134576040519150601f19603f3d011682016040523d82523d6000602084013e611139565b606091505b5080516000036111a65760405162461bcd60e51b815260206004820152603260248201527f4552433732313a207472616e7366657220746f206e6f6e20455243373231526560448201527131b2b4bb32b91034b6b83632b6b2b73a32b960711b60648201526084016104eb565b805181602001fd5b6001600160e01b031916630a85bd0160e11b149050610b2d565b506001949350505050565b6000807a184f03e93ff9f4daa797ed6e38ed64bf6a1f010000000000000000831061121c577a184f03e93ff9f4daa797ed6e38ed64bf6a1f010000000000000000830492506040015b6d04ee2d6d415b85acef81000000008310611248576d04ee2d6d415b85acef8100000000830492506020015b662386f26fc10000831061126657662386f26fc10000830492506010015b6305f5e100831061127e576305f5e100830492506008015b612710831061129257612710830492506004015b606483106112a4576064830492506002015b600a831061039c5760010192915050565b6001600160a01b03821661130b5760405162461bcd60e51b815260206004820181905260248201527f4552433732313a206d696e7420746f20746865207a65726f206164647265737360448201526064016104eb565b6000818152600260205260409020546001600160a01b0316156113705760405162461bcd60e51b815260206004820152601c60248201527f4552433732313a20746f6b656e20616c7265616479206d696e7465640000000060448201526064016104eb565b6000818152600260205260409020546001600160a01b0316156113d55760405162461bcd60e51b815260206004820152601c60248201527f4552433732313a20746f6b656e20616c7265616479206d696e7465640000000060448201526064016104eb565b6001600160a01b0382166000818152600360209081526040808320805460010190558483526002909152808220805473ffffffffffffffffffffffffffffffffffffffff19168417905551839291907fddf252ad1be2c89b69c2b068fc378daa952ba7f163c4a11628f55a4df523b3ef908290a45050565b6001600160e01b0319811681146109d457600080fd5b60006020828403121561147557600080fd5b81356109408161144d565b60005b8381101561149b578181015183820152602001611483565b50506000910152565b600081518084526114bc816020860160208601611480565b601f01601f19169290920160200192915050565b60208152600061094060208301846114a4565b6000602082840312156114f557600080fd5b5035919050565b80356001600160a01b038116811461151357600080fd5b919050565b6000806040838503121561152b57600080fd5b611534836114fc565b946020939093013593505050565b60008060006060848603121561155757600080fd5b611560846114fc565b925061156e602085016114fc565b9150604084013590509250925092565b6000806020838503121561159157600080fd5b823567ffffffffffffffff808211156115a957600080fd5b818501915085601f8301126115bd57600080fd5b8135818111156115cc57600080fd5b8660208285010111156115de57600080fd5b60209290920196919550909350505050565b60006020828403121561160257600080fd5b610940826114fc565b6000806040838503121561161e57600080fd5b611627836114fc565b91506020830135801515811461163c57600080fd5b809150509250929050565b634e487b7160e01b600052604160045260246000fd5b6000806000806080858703121561167357600080fd5b61167c856114fc565b935061168a602086016114fc565b925060408501359150606085013567ffffffffffffffff808211156116ae57600080fd5b818701915087601f8301126116c257600080fd5b8135818111156116d4576116d4611647565b604051601f8201601f19908116603f011681019083821181831017156116fc576116fc611647565b816040528281528a602084870101111561171557600080fd5b82602086016020830137600060208483010152809550505050505092959194509250565b6000806040838503121561174c57600080fd5b611755836114fc565b9150611763602084016114fc565b90509250929050565b600181811c9082168061178057607f821691505b6020821081036117a057634e487b7160e01b600052602260045260246000fd5b50919050565b601f82111561058c57600081815260208120601f850160051c810160208610156117cd5750805b601f850160051c820191505b818110156117ec578281556001016117d9565b505050505050565b67ffffffffffffffff83111561180c5761180c611647565b6118208361181a835461176c565b836117a6565b6000601f841160018114611854576000851561183c5750838201355b600019600387901b1c1916600186901b1783556118ae565b600083815260209020601f19861690835b828110156118855786850135825560209485019460019092019101611865565b50868210156118a25760001960f88860031b161c19848701351681555b505060018560011b0183555b5050505050565b60208152816020820152818360408301376000818301604090810191909152601f909201601f19160101919050565b60006001820161190457634e487b7160e01b600052601160045260246000fd5b5060010190565b6000835161191d818460208801611480565b835190830190611931818360208801611480565b01949350505050565b60006001600160a01b0380871683528086166020840152508360408301526080606083015261196c60808301846114a4565b9695505050505050565b60006020828403121561198857600080fd5b81516109408161144d56fea26469706673582212206b0965c0bdc6342141e2f7ffd32125414459386cb17545ad47fa38c04361fdad64736f6c63430008130033",
  "linkReferences": {},
  "deployedLinkReferences": {}
}