{
  "_format": "hh-sol-artifact-1",
  "contractName": "NFTStaking",
  "sourceName": "contracts/NFTStaking.sol",
  "abi": [
    {
      "inputs": [
        {
          "internalType": "address",
          "name": "nft_",
          "type": "address"
        },
        {
          "internalType": "address",
          "name": "rewardToken_",
          "type": "address"
        },
        {
          "internalType": "uint256",
          "name": "rewardPerSecond_",
          "type": "uint256"
        }
      ],
      "stateMutability": "nonpayable",
      "type": "constructor"
    },
    {
      "anonymous": false,
      "inputs": [
        {
          "indexed": true,
          "internalType": "address",
          "name": "previousOwner",
          "type": "address"
        },
        {
          "indexed": true,
          "internalType": "address",
          "name": "newOwner",
          "type": "address"
        }
      ],
      "name": "OwnershipTransferred",
      "type": "event"
    },
    {
      "anonymous": false,
      "inputs": [
        {
          "indexed": false,
          "internalType": "address",
          "name": "account",
          "type": "address"
        }
      ],
      "name": "Paused",
      "type": "event"
    },
    {
      "anonymous": false,
      "inputs": [
        {
          "indexed": false,
          "internalType": "uint256",
          "name": "newRewardPerSecond",
          "type": "uint256"
        }
      ],
      "name": "RewardRateUpdated",
      "type": "event"
    },
    {
      "anonymous": false,
      "inputs": [
        {
          "indexed": true,
          "internalType": "address",
          "name": "user",
          "type": "address"
        },
        {
          "indexed": false,
          "internalType": "uint256",
          "name": "amount",
          "type": "uint256"
        }
      ],
      "name": "RewardsClaimed",
      "type": "event"
    },
    {
      "anonymous": false,
      "inputs": [
        {
          "indexed": false,
          "internalType": "uint256",
          "name": "amount",
          "type": "uint256"
        }
      ],
      "name": "RewardsFunded",
      "type": "event"
    },
    {
      "anonymous": false,
      "inputs": [
        {
          "indexed": true,
          "internalType": "address",
          "name": "user",
          "type": "address"
        },
        {
          "indexed": true,
          "internalType": "uint256",
          "name": "tokenId",
          "type": "uint256"
        }
      ],
      "name": "Staked",
      "type": "event"
    },
    {
      "anonymous": false,
      "inputs": [
        {
          "indexed": false,
          "internalType": "address",
          "name": "account",
          "type": "address"
        }
      ],
      "name": "Unpaused",
      "type": "event"
    },
    {
      "anonymous": false,
      "inputs": [
        {
          "indexed": true,
          "internalType": "address",
          "name": "user",
          "type": "address"
        },
        {
          "indexed": true,
          "internalType": "uint256",
          "name": "tokenId",
          "type": "uint256"
        }
      ],
      "name": "Unstaked",
      "type": "event"
    },
    {
      "inputs": [
        {
          "internalType": "uint256[]",
          "name": "tokenIds",
          "type": "uint256[]"
        }
      ],
      "name": "claimRewards",
      "outputs": [],
      "stateMutability": "nonpayable",
      "type": "function"
    },
    {
      "inputs": [
        {
          "internalType": "uint256",
          "name": "amount",
          "type": "uint256"
        }
      ],
      "name": "fundRewards",
      "outputs": [],
      "stateMutability": "nonpayable",
      "type": "function"
    },
    {
      "inputs": [],
      "name": "nft",
      "outputs": [
        {
          "internalType": "contract IERC721",
          "name": "",
          "type": "address"
        }
      ],
      "stateMutability": "view",
      "type": "function"
    },
    {
      "inputs": [
        {
          "internalType": "address",
          "name": "",
          "type": "address"
        },
        {
          "internalType": "address",
          "name": "",
          "type": "address"
        },
        {
          "internalType": "uint256",
          "name": "",
          "type": "uint256"
        },
        {
          "internalType": "bytes",
          "name": "",
          "type": "bytes"
        }
      ],
      "name": "onERC721Received",
      "outputs": [
        {
          "internalType": "bytes4",
          "name": "",
          "type": "bytes4"
        }
      ],
      "stateMutability": "pure",
      "type": "function"
    },
    {
      "inputs": [],
      "name": "owner",
      "outputs": [
        {
          "internalType": "address",
          "name": "",
          "type": "address"
        }
      ],
      "stateMutability": "view",
      "type": "function"
    },
    {
      "inputs": [],
      "name": "pause",
      "outputs": [],
      "stateMutability": "nonpayable",
      "type": "function"
    },
    {
      "inputs": [],
      "name": "paused",
      "outputs": [
        {
          "internalType": "bool",
          "name": "",
          "type": "bool"
        }
      ],
      "stateMutability": "view",
      "type": "function"
    },
    {
      "inputs": [
        {
          "internalType": "address",
          "name": "user",
          "type": "address"
        },
        {
          "internalType": "uint256[]",
          "name": "tokenIds",
          "type": "uint256[]"
        }
      ],
      "name": "pendingRewards",
      "outputs": [
        {
          "internalType": "uint256",
          "name": "",
          "type": "uint256"
        }
      ],
      "stateMutability": "view",
      "type": "function"
    },
    {
      "inputs": [
        {
          "internalType": "uint256",
          "name": "",
          "type": "uint256"
        }
      ],
      "name": "positionOf",
      "outputs": [
        {
          "internalType": "address",
          "name": "owner",
          "type": "address"
        },
        {
          "internalType": "uint256",
          "name": "stakedAt",
          "type": "uint256"
        },
        {
          "internalType": "uint256",
          "name": "lastClaimAt",
          "type": "uint256"
        }
      ],
      "stateMutability": "view",
      "type": "function"
    },
    {
      "inputs": [],
      "name": "renounceOwnership",
      "outputs": [],
      "stateMutability": "nonpayable",
      "type": "function"
    },
    {
      "inputs": [],
      "name": "rewardPerSecond",
      "outputs": [
        {
          "internalType": "uint256",
          "name": "",
          "type": "uint256"
        }
      ],
      "stateMutability": "view",
      "type": "function"
    },
    {
      "inputs": [],
      "name": "rewardToken",
      "outputs": [
        {
          "internalType": "contract IERC20",
          "name": "",
          "type": "address"
        }
      ],
      "stateMutability": "view",
      "type": "function"
    },
    {
      "inputs": [
        {
          "internalType": "uint256",
          "name": "newRewardPerSecond",
          "type": "uint256"
        }
      ],
      "name": "setRewardRate",
      "outputs": [],
      "stateMutability": "nonpayable",
      "type": "function"
    },
    {
      "inputs": [
        {
          "internalType": "uint256[]",
          "name": "tokenIds",
          "type": "uint256[]"
        }
      ],
      "name": "stake",
      "outputs": [],
      "stateMutability": "nonpayable",
      "type": "function"
    },
    {
      "inputs": [],
      "name": "totalStaked",
      "outputs": [
        {
          "internalType": "uint256",
          "name": "",
          "type": "uint256"
        }
      ],
      "stateMutability": "view",
      "type": "function"
    },
    {
      "inputs": [
        {
          "internalType": "address",
          "name": "newOwner",
          "type": "address"
        }
      ],
      "name": "transferOwnership",
      "outputs": [],
      "stateMutability": "nonpayable",
      "type": "function"
    },
    {
      "inputs": [],
      "name": "unpause",
      "outputs": [],
      "stateMutability": "nonpayable",
      "type": "function"
    },
    {
      "inputs": [
        {
          "internalType": "uint256[]",
          "name": "tokenIds",
          "type": "uint256[]"
        }
      ],
      "name": "unstake",
      "outputs": [],
      "stateMutability": "nonpayable",
      "type": "function"
    },
    {
      "inputs": [
        {
          "internalType": "address",
          "name": "",
          "type": "address"
        }
      ],
      "name": "userStakedCount",
      "outputs": [
        {
          "internalType": "uint256",
          "name": "",
          "type": "uint256"
        }
      ],
      "stateMutability": "view",
      "type": "function"
    }
  ],
  "bytecode": "0x60c06040523480156200001157600080fd5b506040516200184138038062001841833981016040819052620000349162000169565b6200003f33620000fc565b600180556002805460ff191690556001600160a01b038316620000945760405162461bcd60e51b81526020600482015260086024820152671e995c9bc81b999d60c21b60448201526064015b60405180910390fd5b6001600160a01b038216620000e05760405162461bcd60e51b81526020600482015260116024820152703d32b937903932bbb0b932103a37b5b2b760791b60448201526064016200008b565b6001600160a01b03928316608052911660a052600355620001aa565b600080546001600160a01b038381166001600160a01b0319831681178455604051919092169283917f8be0079c531659141344cd1fd0a4f28419497f9722a3daafe3b4186f6b6457e09190a35050565b80516001600160a01b03811681146200016457600080fd5b919050565b6000806000606084860312156200017f57600080fd5b6200018a846200014c565b92506200019a602085016200014c565b9150604084015190509250925092565b60805160a051611647620001fa6000396000818161036c015281816107be015281816108c00152610b83015260008181610244015281816104ae015281816106330152610acb01526116476000f3fe608060405234801561001057600080fd5b50600436106101515760003560e01c80638456cb59116100cd57806393707a1911610081578063e449f34111610066578063e449f34114610341578063f2fde38b14610354578063f7c618c11461036757600080fd5b806393707a191461031b5780639e447fc61461032e57600080fd5b80638da5cb5b116100b25780638da5cb5b146102e15780638f10369a146102f25780639022de7e146102fb57600080fd5b80638456cb59146102c657806387a7433b146102ce57600080fd5b806347ccca02116101245780635eac6239116101095780635eac623914610294578063715018a6146102a7578063817b1cd2146102af57600080fd5b806347ccca021461023f5780635c975abb1461027e57600080fd5b80630fbf0a9314610156578063150b7a021461016b5780633f4ba83a146101d957806346f96023146101e1575b600080fd5b61016961016436600461134f565b61038e565b005b6101a36101793660046113a6565b7f150b7a020000000000000000000000000000000000000000000000000000000095945050505050565b6040517fffffffff0000000000000000000000000000000000000000000000000000000090911681526020015b60405180910390f35b6101696106e6565b61021a6101ef366004611445565b6005602052600090815260409020805460018201546002909201546001600160a01b03909116919083565b604080516001600160a01b0390941684526020840192909252908201526060016101d0565b6102667f000000000000000000000000000000000000000000000000000000000000000081565b6040516001600160a01b0390911681526020016101d0565b60025460ff1660405190151581526020016101d0565b6101696102a236600461134f565b6106f8565b610169610824565b6102b860045481565b6040519081526020016101d0565b610169610836565b6102b86102dc36600461145e565b610846565b6000546001600160a01b0316610266565b6102b860035481565b6102b86103093660046114b3565b60066020526000908152604090205481565b610169610329366004611445565b61085b565b61016961033c366004611445565b61091f565b61016961034f36600461134f565b61095c565b6101696103623660046114b3565b610bea565b6102667f000000000000000000000000000000000000000000000000000000000000000081565b610396610c7a565b61039e610cd3565b80806103e25760405162461bcd60e51b815260206004820152600e60248201526d656d70747920746f6b656e49647360901b60448201526064015b60405180910390fd5b60005b818110156106d7576000848483818110610401576104016114d7565b6020908102929092013560008181526005909352604090922054919250506001600160a01b0316156104755760405162461bcd60e51b815260206004820152600e60248201527f616c7265616479207374616b656400000000000000000000000000000000000060448201526064016103d9565b6040517f6352211e0000000000000000000000000000000000000000000000000000000081526004810182905233906001600160a01b037f00000000000000000000000000000000000000000000000000000000000000001690636352211e90602401602060405180830381865afa1580156104f5573d6000803e3d6000fd5b505050506040513d601f19601f8201168201806040525081019061051991906114ed565b6001600160a01b03161461056f5760405162461bcd60e51b815260206004820152600960248201527f6e6f74206f776e6572000000000000000000000000000000000000000000000060448201526064016103d9565b60408051606081018252338082524260208084018281528486019283526000878152600583528681209551865473ffffffffffffffffffffffffffffffffffffffff19166001600160a01b0390911617865590516001808701919091559251600290950194909455918352600690915291812080549091906105f2908490611520565b9250508190555060016004600082825461060c9190611520565b9091555050604051632142170760e11b8152336004820152306024820152604481018290527f00000000000000000000000000000000000000000000000000000000000000006001600160a01b0316906342842e0e90606401600060405180830381600087803b15801561067f57600080fd5b505af1158015610693573d6000803e3d6000fd5b50506040518392503391507f9e71bc8eea02a63969f509818f2dafb9254532904319f9dbda79b67bd34a5f3d90600090a350806106cf81611539565b9150506103e5565b50506106e260018055565b5050565b6106ee610d26565b6106f6610d80565b565b610700610c7a565b600061070d338484610dd2565b90506000811161075f5760405162461bcd60e51b815260206004820152600a60248201527f6e6f20726577617264730000000000000000000000000000000000000000000060448201526064016103d9565b60005b828110156107b0574260056000868685818110610781576107816114d7565b9050602002013581526020019081526020016000206002018190555080806107a890611539565b915050610762565b506107e56001600160a01b037f0000000000000000000000000000000000000000000000000000000000000000163383610f07565b60405181815233907ffc30cddea38e2bf4d6ea7d3f9ed3b6ad7f176419f4963bd81318067a4aee73fe9060200160405180910390a2506106e260018055565b61082c610d26565b6106f66000610fb5565b61083e610d26565b6106f6611012565b6000610853848484610dd2565b949350505050565b610863610d26565b600081116108b35760405162461bcd60e51b815260206004820152600860248201527f616d6f756e74203000000000000000000000000000000000000000000000000060448201526064016103d9565b6108e86001600160a01b037f00000000000000000000000000000000000000000000000000000000000000001633308461104f565b6040518181527fe42dde25409a3e8c7c119c1c722610d9e9bd96e73e3cead774863c9ffdd870d6906020015b60405180910390a150565b610927610d26565b60038190556040518181527f41d466ebd06fb97e7786086ac8b69b7eb7da798592036251291d34e9791cde0190602001610914565b610964610c7a565b80806109a35760405162461bcd60e51b815260206004820152600e60248201526d656d70747920746f6b656e49647360901b60448201526064016103d9565b60006109b0338585610dd2565b905060005b82811015610b6f5760008585838181106109d1576109d16114d7565b6020908102929092013560008181526005909352604090922054919250506001600160a01b03163314610a335760405162461bcd60e51b815260206004820152600a6024820152693737ba1039ba30b5b2b960b11b60448201526064016103d9565b6000818152600560209081526040808320805473ffffffffffffffffffffffffffffffffffffffff191681556001808201859055600290910184905533845260069092528220805491929091610a8a908490611552565b92505081905550600160046000828254610aa49190611552565b9091555050604051632142170760e11b8152306004820152336024820152604481018290527f00000000000000000000000000000000000000000000000000000000000000006001600160a01b0316906342842e0e90606401600060405180830381600087803b158015610b1757600080fd5b505af1158015610b2b573d6000803e3d6000fd5b50506040518392503391507f0f5bb82176feb1b5e747e28471aa92156a04d9f3ab9f45f28e2d704232b93f7590600090a35080610b6781611539565b9150506109b5565b5080156106d757610baa6001600160a01b037f0000000000000000000000000000000000000000000000000000000000000000163383610f07565b60405181815233907ffc30cddea38e2bf4d6ea7d3f9ed3b6ad7f176419f4963bd81318067a4aee73fe9060200160405180910390a250506106e260018055565b610bf2610d26565b6001600160a01b038116610c6e5760405162461bcd60e51b815260206004820152602660248201527f4f776e61626c653a206e6577206f776e657220697320746865207a65726f206160448201527f646472657373000000000000000000000000000000000000000000000000000060648201526084016103d9565b610c7781610fb5565b50565b600260015403610ccc5760405162461bcd60e51b815260206004820152601f60248201527f5265656e7472616e637947756172643a207265656e7472616e742063616c6c0060448201526064016103d9565b6002600155565b60025460ff16156106f65760405162461bcd60e51b815260206004820152601060248201527f5061757361626c653a207061757365640000000000000000000000000000000060448201526064016103d9565b6000546001600160a01b031633146106f65760405162461bcd60e51b815260206004820181905260248201527f4f776e61626c653a2063616c6c6572206973206e6f7420746865206f776e657260448201526064016103d9565b610d886110a6565b6002805460ff191690557f5db9ee0a495bf2e6ff9c91a7834c1ba4fdd244a5e8aa4e537bd38aeae4b073aa335b6040516001600160a01b03909116815260200160405180910390a1565b60008180610e135760405162461bcd60e51b815260206004820152600e60248201526d656d70747920746f6b656e49647360901b60448201526064016103d9565b60005b81811015610efe57600060056000878785818110610e3657610e366114d7565b60209081029290920135835250818101929092526040908101600020815160608101835281546001600160a01b0390811680835260018401549583019590955260029092015492810192909252909250881614610ec25760405162461bcd60e51b815260206004820152600a6024820152693737ba1039ba30b5b2b960b11b60448201526064016103d9565b6003546040820151610ed49042611552565b610ede9190611565565b610ee89085611520565b9350508080610ef690611539565b915050610e16565b50509392505050565b6040516001600160a01b038316602482015260448101829052610fb09084907fa9059cbb00000000000000000000000000000000000000000000000000000000906064015b60408051601f198184030181529190526020810180517bffffffffffffffffffffffffffffffffffffffffffffffffffffffff167fffffffff00000000000000000000000000000000000000000000000000000000909316929092179091526110f8565b505050565b600080546001600160a01b0383811673ffffffffffffffffffffffffffffffffffffffff19831681178455604051919092169283917f8be0079c531659141344cd1fd0a4f28419497f9722a3daafe3b4186f6b6457e09190a35050565b61101a610cd3565b6002805460ff191660011790557f62e78cea01bee320cd4e420270b5ea74000d11b0c9f74754ebdbfc544b05a258610db53390565b6040516001600160a01b03808516602483015283166044820152606481018290526110a09085907f23b872dd0000000000000000000000000000000000000000000000000000000090608401610f4c565b50505050565b60025460ff166106f65760405162461bcd60e51b815260206004820152601460248201527f5061757361626c653a206e6f742070617573656400000000000000000000000060448201526064016103d9565b600061114d826040518060400160405280602081526020017f5361666545524332303a206c6f772d6c6576656c2063616c6c206661696c6564815250856001600160a01b03166111e09092919063ffffffff16565b905080516000148061116e57508080602001905181019061116e919061157c565b610fb05760405162461bcd60e51b815260206004820152602a60248201527f5361666545524332303a204552433230206f7065726174696f6e20646964206e60448201527f6f7420737563636565640000000000000000000000000000000000000000000060648201526084016103d9565b6060610853848460008585600080866001600160a01b0316858760405161120791906115c2565b60006040518083038185875af1925050503d8060008114611244576040519150601f19603f3d011682016040523d82523d6000602084013e611249565b606091505b509150915061125a87838387611265565b979650505050505050565b606083156112d45782516000036112cd576001600160a01b0385163b6112cd5760405162461bcd60e51b815260206004820152601d60248201527f416464726573733a2063616c6c20746f206e6f6e2d636f6e747261637400000060448201526064016103d9565b5081610853565b61085383838151156112e95781518083602001fd5b8060405162461bcd60e51b81526004016103d991906115de565b60008083601f84011261131557600080fd5b50813567ffffffffffffffff81111561132d57600080fd5b6020830191508360208260051b850101111561134857600080fd5b9250929050565b6000806020838503121561136257600080fd5b823567ffffffffffffffff81111561137957600080fd5b61138585828601611303565b90969095509350505050565b6001600160a01b0381168114610c7757600080fd5b6000806000806000608086880312156113be57600080fd5b85356113c981611391565b945060208601356113d981611391565b935060408601359250606086013567ffffffffffffffff808211156113fd57600080fd5b818801915088601f83011261141157600080fd5b81358181111561142057600080fd5b89602082850101111561143257600080fd5b9699959850939650602001949392505050565b60006020828403121561145757600080fd5b5035919050565b60008060006040848603121561147357600080fd5b833561147e81611391565b9250602084013567ffffffffffffffff81111561149a57600080fd5b6114a686828701611303565b9497909650939450505050565b6000602082840312156114c557600080fd5b81356114d081611391565b9392505050565b634e487b7160e01b600052603260045260246000fd5b6000602082840312156114ff57600080fd5b81516114d081611391565b634e487b7160e01b600052601160045260246000fd5b808201808211156115335761153361150a565b92915050565b60006001820161154b5761154b61150a565b5060010190565b818103818111156115335761153361150a565b80820281158282048414176115335761153361150a565b60006020828403121561158e57600080fd5b815180151581146114d057600080fd5b60005b838110156115b95781810151838201526020016115a1565b50506000910152565b600082516115d481846020870161159e565b9190910192915050565b60208152600082518060208401526115fd81604085016020870161159e565b601f01601f1916919091016040019291505056fea26469706673582212201e1de7bf3e642920b8577af7446b9f07ad921da5ab0357b8409bbe6973154ad264736f6c63430008130033",
  "linkReferences": {},
  "deployedLinkReferences": {}
}