{
  "_format": "hh-sol-artifact-1",
  "contractName": "StakingContract",
  "sourceName": "contracts/ai.sol",
  "abi": [
    {
      "inputs": [
        {
          "internalType": "address",
          "name": "_stakingToken",
          "type": "address"
        },
        {
          "internalType": "address",
          "name": "_rewardToken",
          "type": "address"
        },
        {
          "internalType": "uint256",
          "name": "_rewardRate",
          "type": "uint256"
        }
      ],
      "stateMutability": "nonpayable",
      "type": "constructor"
    },
    {
      "anonymous": false,
      "inputs": [
        {
          "indexed": true,
          "internalType": "address",
          "name": "previousOwner",
          "type": "address"
        },
        {
          "indexed": true,
          "internalType": "address",
          "name": "newOwner",
          "type": "address"
        }
      ],
      "name": "OwnershipTransferred",
      "type": "event"
    },
    {
      "anonymous": false,
      "inputs": [
        {
          "indexed": false,
          "internalType": "address",
          "name": "account",
          "type": "address"
        }
      ],
      "name": "Paused",
      "type": "event"
    },
    {
      "anonymous": false,
      "inputs": [
        {
          "indexed": true,
          "internalType": "address",
          "name": "user",
          "type": "address"
        },
        {
          "indexed": false,
          "internalType": "uint256",
          "name": "reward",
          "type": "uint256"
        }
      ],
      "name": "RewardPaid",
      "type": "event"
    },
    {
      "anonymous": false,
      "inputs": [
        {
          "indexed": false,
          "internalType": "uint256",
          "name": "newRate",
          "type": "uint256"
        }
      ],
      "name": "RewardRateUpdated",
      "type": "event"
    },
    {
      "anonymous": false,
      "inputs": [
        {
          "indexed": true,
          "internalType": "address",
          "name": "user",
          "type": "address"
        },
        {
          "indexed": false,
          "internalType": "uint256",
          "name": "amount",
          "type": "uint256"
        }
      ],
      "name": "Staked",
      "type": "event"
    },
    {
      "anonymous": false,
      "inputs": [
        {
          "indexed": false,
          "internalType": "uint256",
          "name": "newDuration",
          "type": "uint256"
        }
      ],
      "name": "StakingDurationUpdated",
      "type": "event"
    },
    {
      "anonymous": false,
      "inputs": [
        {
          "indexed": false,
          "internalType": "address",
          "name": "account",
          "type": "address"
        }
      ],
      "name": "Unpaused",
      "type": "event"
    },
    {
      "anonymous": false,
      "inputs": [
        {
          "indexed": true,
          "internalType": "address",
          "name": "user",
          "type": "address"
        },
        {
          "indexed": false,
          "internalType": "uint256",
          "name": "amount",
          "type": "uint256"
        }
      ],
      "name": "Withdrawn",
      "type": "event"
    },
    {
      "inputs": [
        {
          "internalType": "address",
          "name": "account",
          "type": "address"
        }
      ],
      "name": "earned",
      "outputs": [
        {
          "internalType": "uint256",
          "name": "",
          "type": "uint256"
        }
      ],
      "stateMutability": "view",
      "type": "function"
    },
    {
      "inputs": [],
      "name": "emergencyWithdraw",
      "outputs": [],
      "stateMutability": "nonpayable",
      "type": "function"
    },
    {
      "inputs": [
        {
          "internalType": "uint256",
          "name": "amount",
          "type": "uint256"
        }
      ],
      "name": "fundRewards",
      "outputs": [],
      "stateMutability": "nonpayable",
      "type": "function"
    },
    {
      "inputs": [],
      "name": "getReward",
      "outputs": [],
      "stateMutability": "nonpayable",
      "type": "function"
    },
    {
      "inputs": [],
      "name": "lastUpdateTime",
      "outputs": [
        {
          "internalType": "uint256",
          "name": "",
          "type": "uint256"
        }
      ],
      "stateMutability": "view",
      "type": "function"
    },
    {
      "inputs": [],
      "name": "owner",
      "outputs": [
        {
          "internalType": "address",
          "name": "",
          "type": "address"
        }
      ],
      "stateMutability": "view",
      "type": "function"
    },
    {
      "inputs": [],
      "name": "pause",
      "outputs": [],
      "stateMutability": "nonpayable",
      "type": "function"
    },
    {
      "inputs": [],
      "name": "paused",
      "outputs": [
        {
          "internalType": "bool",
          "name": "",
          "type": "bool"
        }
      ],
      "stateMutability": "view",
      "type": "function"
    },
    {
      "inputs": [],
      "name": "renounceOwnership",
      "outputs": [],
      "stateMutability": "nonpayable",
      "type": "function"
    },
    {
      "inputs": [],
      "name": "rewardPerToken",
      "outputs": [
        {
          "internalType": "uint256",
          "name": "",
          "type": "uint256"
        }
      ],
      "stateMutability": "view",
      "type": "function"
    },
    {
      "inputs": [],
      "name": "rewardPerTokenStored",
      "outputs": [
        {
          "internalType": "uint256",
          "name": "",
          "type": "uint256"
        }
      ],
      "stateMutability": "view",
      "type": "function"
    },
    {
      "inputs": [],
      "name": "rewardRate",
      "outputs": [
        {
          "internalType": "uint256",
          "name": "",
          "type": "uint256"
        }
      ],
      "stateMutability": "view",
      "type": "function"
    },
    {
      "inputs": [],
      "name": "rewardToken",
      "outputs": [
        {
          "internalType": "contract IERC20",
          "name": "",
          "type": "address"
        }
      ],
      "stateMutability": "view",
      "type": "function"
    },
    {
      "inputs": [
        {
          "internalType": "address",
          "name": "",
          "type": "address"
        }
      ],
      "name": "rewards",
      "outputs": [
        {
          "internalType": "uint256",
          "name": "",
          "type": "uint256"
        }
      ],
      "stateMutability": "view",
      "type": "function"
    },
    {
      "inputs": [
        {
          "internalType": "uint256",
          "name": "_rewardRate",
          "type": "uint256"
        }
      ],
      "name": "setRewardRate",
      "outputs": [],
      "stateMutability": "nonpayable",
      "type": "function"
    },
    {
      "inputs": [
        {
          "internalType": "uint256",
          "name": "_duration",
          "type": "uint256"
        }
      ],
      "name": "setStakingDuration",
      "outputs": [],
      "stateMutability": "nonpayable",
      "type": "function"
    },
    {
      "inputs": [
        {
          "internalType": "uint256",
          "name": "amount",
          "type": "uint256"
        }
      ],
      "name": "stake",
      "outputs": [],
      "stateMutability": "nonpayable",
      "type": "function"
    },
    {
      "inputs": [
        {
          "internalType": "address",
          "name": "",
          "type": "address"
        }
      ],
      "name": "stakedBalance",
      "outputs": [
        {
          "internalType": "uint256",
          "name": "",
          "type": "uint256"
        }
      ],
      "stateMutability": "view",
      "type": "function"
    },
    {
      "inputs": [],
      "name": "stakingDuration",
      "outputs": [
        {
          "internalType": "uint256",
          "name": "",
          "type": "uint256"
        }
      ],
      "stateMutability": "view",
      "type": "function"
    },
    {
      "inputs": [
        {
          "internalType": "address",
          "name": "",
          "type": "address"
        }
      ],
      "name": "stakingTimestamp",
      "outputs": [
        {
          "internalType": "uint256",
          "name": "",
          "type": "uint256"
        }
      ],
      "stateMutability": "view",
      "type": "function"
    },
    {
      "inputs": [],
      "name": "stakingToken",
      "outputs": [
        {
          "internalType": "contract IERC20",
          "name": "",
          "type": "address"
        }
      ],
      "stateMutability": "view",
      "type": "function"
    },
    {
      "inputs": [],
      "name": "totalStaked",
      "outputs": [
        {
          "internalType": "uint256",
          "name": "",
          "type": "uint256"
        }
      ],
      "stateMutability": "view",
      "type": "function"
    },
    {
      "inputs": [
        {
          "internalType": "address",
          "name": "newOwner",
          "type": "address"
        }
      ],
      "name": "transferOwnership",
      "outputs": [],
      "stateMutability": "nonpayable",
      "type": "function"
    },
    {
      "inputs": [],
      "name": "unpause",
      "outputs": [],
      "stateMutability": "nonpayable",
      "type": "function"
    },
    {
      "inputs": [
        {
          "internalType": "address",
          "name": "",
          "type": "address"
        }
      ],
      "name": "userRewardPerTokenPaid",
      "outputs": [
        {
          "internalType": "uint256",
          "name": "",
          "type": "uint256"
        }
      ],
      "stateMutability": "view",
      "type": "function"
    },
    {
      "inputs": [
        {
          "internalType": "uint256",
          "name": "amount",
          "type": "uint256"
        }
      ],
      "name": "withdraw",
      "outputs": [],
      "stateMutability": "nonpayable",
      "type": "function"
    },
    {
      "inputs": [],
      "name": "withdrawAndGetReward",
      "outputs": [],
      "stateMutability": "nonpayable",
      "type": "function"
    }
  ],
  "bytecode": "0x608060405262278d006008553480156200001857600080fd5b5060405162001508380380620015088339810160408190526200003b91620001bc565b62000046336200014f565b600180556002805460ff191690556001600160a01b038316620000b05760405162461bcd60e51b815260206004820152601560248201527f496e76616c6964207374616b696e6720746f6b656e000000000000000000000060448201526064015b60405180910390fd5b6001600160a01b038216620001085760405162461bcd60e51b815260206004820152601460248201527f496e76616c69642072657761726420746f6b656e0000000000000000000000006044820152606401620000a7565b60028054610100600160a81b0319166101006001600160a01b0395861602179055600380546001600160a01b031916929093169190911790915560045542600555620001fd565b600080546001600160a01b038381166001600160a01b0319831681178455604051919092169283917f8be0079c531659141344cd1fd0a4f28419497f9722a3daafe3b4186f6b6457e09190a35050565b80516001600160a01b0381168114620001b757600080fd5b919050565b600080600060608486031215620001d257600080fd5b620001dd846200019f565b9250620001ed602085016200019f565b9150604084015190509250925092565b6112fb806200020d6000396000f3fe608060405234801561001057600080fd5b50600436106101b85760003560e01c80638456cb59116100f9578063c8f33c9111610097578063df136d6511610071578063df136d651461036f578063f2fde38b14610378578063f7c618c11461038b578063fc7cb6271461039e57600080fd5b8063c8f33c9114610356578063cd3daf9d1461035f578063db2e21bc1461036757600080fd5b80638f0794fe116100d35780638f0794fe146102fd57806393707a191461031d5780639e447fc614610330578063a694fc3a1461034357600080fd5b80638456cb59146102c45780638b876347146102cc5780638da5cb5b146102ec57600080fd5b8063602172671161016657806372f702f31161014057806372f702f3146102795780637b0a47ee146102a95780638005a7de146102b2578063817b1cd2146102bb57600080fd5b8063602172671461023e5780636a8ca6911461025e578063715018a61461027157600080fd5b80633d18b912116101975780633d18b912146102185780633f4ba83a146102205780635c975abb1461022857600080fd5b80628cc262146101bd5780630700037d146101e35780632e1a7d4d14610203575b600080fd5b6101d06101cb366004611172565b6103a6565b6040519081526020015b60405180910390f35b6101d06101f1366004611172565b600b6020526000908152604090205481565b6102166102113660046111a2565b610423565b005b61021661063b565b610216610719565b60025460ff1660405190151581526020016101da565b6101d061024c366004611172565b60096020526000908152604090205481565b61021661026c3660046111a2565b610729565b61021661076c565b6002546102919061010090046001600160a01b031681565b6040516001600160a01b0390911681526020016101da565b6101d060045481565b6101d060085481565b6101d060075481565b61021661077e565b6101d06102da366004611172565b600a6020526000908152604090205481565b6000546001600160a01b0316610291565b6101d061030b366004611172565b600c6020526000908152604090205481565b61021661032b3660046111a2565b61078e565b61021661033e3660046111a2565b6107ae565b6102166103513660046111a2565b610847565b6101d060055481565b6101d061099a565b6102166109f8565b6101d060065481565b610216610386366004611172565b610ae1565b600354610291906001600160a01b031681565b610216610b6e565b6001600160a01b0381166000908152600b6020908152604080832054600a909252822054670de0b6b3a7640000906103dc61099a565b6103e691906111d1565b6001600160a01b03851660009081526009602052604090205461040991906111e4565b61041391906111fb565b61041d919061121d565b92915050565b61042b610b8f565b3361043461099a565b600655426005556001600160a01b0381161561047f57610453816103a6565b6001600160a01b0382166000908152600b6020908152604080832093909355600654600a909152919020555b600082116104d45760405162461bcd60e51b815260206004820152601160248201527f43616e6e6f74207769746864726177203000000000000000000000000000000060448201526064015b60405180910390fd5b336000908152600960205260409020548211156105335760405162461bcd60e51b815260206004820152601460248201527f496e73756666696369656e742062616c616e636500000000000000000000000060448201526064016104cb565b600854336000908152600c6020526040902054610550919061121d565b42101561059f5760405162461bcd60e51b815260206004820152600c60248201527f5374696c6c206c6f636b6564000000000000000000000000000000000000000060448201526064016104cb565b33600090815260096020526040812080548492906105be9084906111d1565b9250508190555081600760008282546105d791906111d1565b90915550506002546105f89061010090046001600160a01b03163384610be8565b60405182815233907f7084f5476618d8e60b11ef0d7d3f06914655adb8793e28ff7f018d4c76d505d5906020015b60405180910390a25061063860018055565b50565b610643610b8f565b3361064c61099a565b600655426005556001600160a01b038116156106975761066b816103a6565b6001600160a01b0382166000908152600b6020908152604080832093909355600654600a909152919020555b336000908152600b6020526040902054801561070c57336000818152600b60205260408120556003546106d6916001600160a01b039091169083610be8565b60405181815233907fe2403640ba68fed3a2f88b7557551d1993f84b99bb10ff833f0cf8db0c5e04869060200160405180910390a25b505061071760018055565b565b610721610c96565b610717610cf0565b610731610c96565b60088190556040518181527f8c7ba3004ed566ca0f3da73aaa1e3470028922c65772882a9b89612e44a72dcf9060200160405180910390a150565b610774610c96565b6107176000610d42565b610786610c96565b610717610daa565b610796610c96565b600354610638906001600160a01b0316333084610de7565b6107b6610c96565b60006107c061099a565b600655426005556001600160a01b0381161561080b576107df816103a6565b6001600160a01b0382166000908152600b6020908152604080832093909355600654600a909152919020555b60048290556040518281527f41d466ebd06fb97e7786086ac8b69b7eb7da798592036251291d34e9791cde019060200160405180910390a15050565b61084f610b8f565b610857610e3e565b3361086061099a565b600655426005556001600160a01b038116156108ab5761087f816103a6565b6001600160a01b0382166000908152600b6020908152604080832093909355600654600a909152919020555b600082116108fb5760405162461bcd60e51b815260206004820152600e60248201527f43616e6e6f74207374616b65203000000000000000000000000000000000000060448201526064016104cb565b336000908152600960205260408120805484929061091a90849061121d565b925050819055508160076000828254610933919061121d565b9091555050336000818152600c60205260409020429055600254610968916101009091046001600160a01b0316903085610de7565b60405182815233907f9e71bc8eea02a63969f509818f2dafb9254532904319f9dbda79b67bd34a5f3d90602001610626565b60006007546000036109ad575060065490565b6007546004546005546109c090426111d1565b6109ca91906111e4565b6109dc90670de0b6b3a76400006111e4565b6109e691906111fb565b6006546109f3919061121d565b905090565b610a00610b8f565b3360009081526009602052604090205480610a5d5760405162461bcd60e51b815260206004820152601060248201527f4e6f20746f6b656e73207374616b65640000000000000000000000000000000060448201526064016104cb565b33600090815260096020526040812081905560078054839290610a819084906111d1565b9091555050600254610aa29061010090046001600160a01b03163383610be8565b60405181815233907f7084f5476618d8e60b11ef0d7d3f06914655adb8793e28ff7f018d4c76d505d59060200160405180910390a25061071760018055565b610ae9610c96565b6001600160a01b038116610b655760405162461bcd60e51b815260206004820152602660248201527f4f776e61626c653a206e6577206f776e657220697320746865207a65726f206160448201527f646472657373000000000000000000000000000000000000000000000000000060648201526084016104cb565b61063881610d42565b33600090815260096020526040902054610b8790610423565b61071761063b565b600260015403610be15760405162461bcd60e51b815260206004820152601f60248201527f5265656e7472616e637947756172643a207265656e7472616e742063616c6c0060448201526064016104cb565b6002600155565b6040516001600160a01b038316602482015260448101829052610c919084907fa9059cbb00000000000000000000000000000000000000000000000000000000906064015b60408051601f198184030181529190526020810180517bffffffffffffffffffffffffffffffffffffffffffffffffffffffff167fffffffff0000000000000000000000000000000000000000000000000000000090931692909217909152610e91565b505050565b6000546001600160a01b031633146107175760405162461bcd60e51b815260206004820181905260248201527f4f776e61626c653a2063616c6c6572206973206e6f7420746865206f776e657260448201526064016104cb565b610cf8610f79565b6002805460ff191690557f5db9ee0a495bf2e6ff9c91a7834c1ba4fdd244a5e8aa4e537bd38aeae4b073aa335b6040516001600160a01b03909116815260200160405180910390a1565b600080546001600160a01b038381167fffffffffffffffffffffffff0000000000000000000000000000000000000000831681178455604051919092169283917f8be0079c531659141344cd1fd0a4f28419497f9722a3daafe3b4186f6b6457e09190a35050565b610db2610e3e565b6002805460ff191660011790557f62e78cea01bee320cd4e420270b5ea74000d11b0c9f74754ebdbfc544b05a258610d253390565b6040516001600160a01b0380851660248301528316604482015260648101829052610e389085907f23b872dd0000000000000000000000000000000000000000000000000000000090608401610c2d565b50505050565b60025460ff16156107175760405162461bcd60e51b815260206004820152601060248201527f5061757361626c653a207061757365640000000000000000000000000000000060448201526064016104cb565b6000610ee6826040518060400160405280602081526020017f5361666545524332303a206c6f772d6c6576656c2063616c6c206661696c6564815250856001600160a01b0316610fcb9092919063ffffffff16565b9050805160001480610f07575080806020019051810190610f079190611230565b610c915760405162461bcd60e51b815260206004820152602a60248201527f5361666545524332303a204552433230206f7065726174696f6e20646964206e60448201527f6f7420737563636565640000000000000000000000000000000000000000000060648201526084016104cb565b60025460ff166107175760405162461bcd60e51b815260206004820152601460248201527f5061757361626c653a206e6f742070617573656400000000000000000000000060448201526064016104cb565b6060610fda8484600085610fe2565b949350505050565b60608247101561105a5760405162461bcd60e51b815260206004820152602660248201527f416464726573733a20696e73756666696369656e742062616c616e636520666f60448201527f722063616c6c000000000000000000000000000000000000000000000000000060648201526084016104cb565b600080866001600160a01b031685876040516110769190611276565b60006040518083038185875af1925050503d80600081146110b3576040519150601f19603f3d011682016040523d82523d6000602084013e6110b8565b606091505b50915091506110c9878383876110d4565b979650505050505050565b6060831561114357825160000361113c576001600160a01b0385163b61113c5760405162461bcd60e51b815260206004820152601d60248201527f416464726573733a2063616c6c20746f206e6f6e2d636f6e747261637400000060448201526064016104cb565b5081610fda565b610fda83838151156111585781518083602001fd5b8060405162461bcd60e51b81526004016104cb9190611292565b60006020828403121561118457600080fd5b81356001600160a01b038116811461119b57600080fd5b9392505050565b6000602082840312156111b457600080fd5b5035919050565b634e487b7160e01b600052601160045260246000fd5b8181038181111561041d5761041d6111bb565b808202811582820484141761041d5761041d6111bb565b60008261121857634e487b7160e01b600052601260045260246000fd5b500490565b8082018082111561041d5761041d6111bb565b60006020828403121561124257600080fd5b8151801515811461119b57600080fd5b60005b8381101561126d578181015183820152602001611255565b50506000910152565b60008251611288818460208701611252565b9190910192915050565b60208152600082518060208401526112b1816040850160208701611252565b601f01601f1916919091016040019291505056fea26469706673582212203f31e80bd8cd98643ad1edf23aa4579482a1fd5157933fcc98f80eac358d7c5c64736f6c63430008130033",
  "linkReferences": {},
  "deployedLinkReferences": {}
}